:20000000F0FF03203D1A0000F71B0000F91B0000FB1B0000FD1B0000FF1B00000000000009
:20002000000000000000000000000000011C0000031C000000000000051C0000071C000040
:20004000091C00000B1C00000D1C00000F1C0000111C0000131C0000151C0000171C000040
:20006000191C00001B1C00001D1C00001F1C0000211C0000231C0000251C0000271C0000A0
:20008000291C00002B1C00002D1C00002F1C0000311C0000F71B0000F91B0000FB1B0000B7
:2000A000FD1B0000FF1B0000011C0000031C0000051C0000071C0000091C00000B1C000042
:2000C0000D1C00000F1C0000111C0000131C0000151C0000171C0000191C00001B1C0000A0
:2000E0001D1C00001F1C0000000000000000000000000000271C0000291C00002B1C0000BD
:200100002D1C00002F1C0000311C0000F71B0000F71B0000F71B0000F71B0000F71B0000A4
:20012000F71B0000F71B0000F71B0000F71B0000F71B0000F71B0000F71B0000F71B00002F
:20014000F71B0000F71B0000F71B0000F71B0000F71B0000F71B0000F71B0000F71B00000F
:20016000F71B0000F71B0000F71B0000F71B0000F71B0000F71B0000000000000000000013
:20018000F71B0000F71B0000F71B0000F71B000000000000F71B0000F71B0000F71B0000E1
:2001A000F71B0000F71B0000F71B0000F71B0000F71B0000F71B0000F71B0000F71B0000AF
:2001C000F71B0000F71B0000F71B0000F71B0000F71B0000F71B0000F71B0000F71B00008F
:2001E000F71B0000F71B0000F71B0000F71B0000F71B0000F71B0000F71B0000F71B00006F
:20020000F71B0000F71B0000F71B0000F71B0000F71B0000F71B0000F71B0000F71B00004E
:20022000F71B0000F71B0000F71B0000F71B0000F71B0000F71B0000F71B0000F71B00002E
:20024000F71B0000F71B0000F71B0000F71B0000F71B0000F71B0000F71B0000F71B00000E
:20026000F71B0000F0FF03203D1A0000F71B0000F91B0000FB1B0000FD1B0000FF1B000095
:2002800000000000000000000000000000000000011C0000031C000000000000051C000001
:2002A000071C0000091C00000B1C00000D1C00000F1C0000111C0000131C0000151C0000EE
:2002C000171C0000191C00001B1C00001D1C00001F1C0000211C0000231C0000251C00004E
:2002E000271C0000291C00002B1C00002D1C00002F1C0000311C0000F71B0000F91B000028
:20030000FB1B0000FD1B0000FF1B0000011C0000031C0000051C0000071C0000091C0000F0
:200320000B1C00000D1C00000F1C0000111C0000131C0000151C0000171C0000191C00004D
:200340001B1C00001D1C00001F1C0000000000000000000000000000271C0000291C00006A
:200360002B1C00002D1C00002F1C0000311C0000F71B0000F71B0000F71B0000F71B00000D
:20038000F71B0000F71B0000F71B0000F71B0000F71B0000F71B0000F71B0000F71B0000CD
:2003A000F71B0000F71B0000F71B0000F71B0000F71B0000F71B0000F71B0000F71B0000AD
:2003C000F71B0000F71B0000F71B0000F71B0000F71B0000F71B0000F71B0000000000009F
:2003E00000000000F71B0000F71B0000F71B0000F71B000000000000F71B0000F71B000091
:20040000F71B0000F71B0000F71B0000F71B0000F71B0000F71B0000F71B0000F71B00004C
:20042000F71B0000F71B0000F71B0000F71B0000F71B0000F71B0000F71B0000F71B00002C
:20044000F71B0000F71B0000F71B0000F71B0000F71B0000F71B0000F71B0000F71B00000C
:20046000F71B0000F71B0000F71B0000F71B0000F71B0000F71B0000F71B0000F71B0000EC
:20048000F71B0000F71B0000F71B0000F71B0000F71B0000F71B0000F71B0000F71B0000CC
:2004A000F71B0000F71B0000F71B0000F71B0000F71B0000F71B0000F71B0000F71B0000AC
:2004C000F71B0000F71B0000F8B500BFF8BC08BC9E467047091B0000F8B500BFF8BC08BC71
:2004E0009E467047E51A000080B400AFBFF34F8F0549054BDB6803F4E062044B1343CB6005
:20050000BFF34F8F00BFFDE700ED00E00400FA0580B586B000AFF860B9607A6000237B6174
:2005200007F114037A68B968F86801F001FA7B6918461837BD4680BD80B586B000AFF8601A
:20054000B9607A6000237B6112E0FA687B6913441846BA687B691344194600F0D1FC00BF84
:2005600000F070FD0346002BFAD17B6908337B617A697B689A42E8D300BF1837BD4680BD39
:2005800080B5ADF5067D00AF07F10C03186007F1080319603B1D1A600023C7F8143224E059
:2005A00007F10C031A68D7F81432134407F114014FF40072184600F0CAFB07F108031A68EC
:2005C000D7F814321A4407F114031146184600F0D9FC00BF00F036FD0346002BFAD1D7F82F
:2005E000143203F50073C7F814323B1DD7F814221B689A42D4D300BF07F50677BD4680BD6A
:2006000080B584B000AF786039600023FB6021E000BF00F017FD0346002BFAD17A68FB688B
:200620001344184600F036FD00BF00F00BFD0346002BFAD17A68FB681344184600F0D6FC30
:2006400000BF00F0FFFC0346002BFAD1FB6803F50053FB60FA683B689A42D9D300BF103715
:20066000BD4680BD80B582B000AF7860144801F00DF87B689B68A3F5005319464FF4005037
:20068000FFF7BEFF4FF400514FF47830FFF7B8FF0C4800F0FBFF7B689B68A3F500531A460C
:2006A0004FF400514FF48420FFF76AFF4FF400524FF478314FF4FC20FFF762FFFFF714FF20
:2006C000101300002813000090B593B000AF4FF400531B683B6442F204031B68FB6300238E
:2006E000BB63002001F03EFA01F094F801F07EF89F4800F0CBFF6F219E4800F092FF0122F4
:2007000001219C4800F032FF07F1100310221946994800F01CFB07F12003102219469748A3
:2007200000F015FB954B7B6302220221914800F01DFF934800F0AAFF7B6B9A687B6BDB684A
:200740001946104601F00FF88E4800F09FFFBB6AFA6A1146184601F006F88B4800F096FF03
:20076000BB69FA691146184600F0FDFFBB6AB3F1FF3F5ED0854800F089FFBB6AFA6A1146F7
:20078000184600F0F0FFFC6ABB6A19464FF4005000F007FB03469C423BD17D4800F076FF50
:2007A00004220421734800F0E1FE7A4800F06EFFBB6AA3F5005319464FF40050FFF720FF2E
:2007C0004FF400514FF47830FFF71AFF724800F05DFFBB6AA3F500531A464FF400514FF43E
:2007E0000050FFF7CDFE4FF400524FF478314FF47830FFF7C5FE694800F048FF4FF48051C7
:200800004FF47C3000F049FA654800F03FFFFFF76BFE644800F03AFF4FF480514FF47C30A4
:2008200000F03BFA07F1200310221946534800F08EFA7B6B9B68B3F1FF3F31D15A4800F075
:2008400025FF5A4B7B6407E07B6C1B68B3F1FF3F07D17B6C043B7B647B6CB3F5005FF3D22D
:2008600000E000BF7B6CBB60BB68A3F500534FF0FF3219464FF40050FFF74AFE0346FB6085
:2008800000233B6001237B604FF400514FF47830FFF7B6FE3B46102238491846FFF74CFEA0
:2008A0007B6B9B68A3F500534FF0FF3219464FF40050FFF72DFE02467B6BDB689A4228D19B
:2008C0003B4800F0E3FE082208212A4800F04EFEBB6B03F02003002B33D0364800F0D6FE17
:2008E000BB69B3F1FF3F2CD0FC69BB6903F5802319464FF4842000F054FA03469C4220D136
:200900002D4800F0C3FE07F110031846FFF7AAFE17E0BB69B3F1FF3F13D0FC69BB6903F549
:20092000802319464FF4842000F03BFA03469C4207D1224800F0AAFE07F110031846FFF749
:2009400091FE1F4800F0A2FE20222021094800F00DFE1C4B4FF400529A603B6C3B633B6B61
:2009600083F30888FB6B184700BF4C37BD4690BD3C13000000810041F0FF0700F0FF030021
:2009800054130000601300006C1300007C1300008C1300001013000028130000A4130000BB
:2009A000C0130000CC130000EC130000ECFF0300141400002C140000481400006814000058
:2009C0009C14000000ED00E080B582B000AF05233B713A46381D0123012100F038F83B78C2
:2009E00003F00103002B01D0012300E0002318460837BD4680BD80B582B000AF05233B7116
:200A00003A46381D0123012100F021F83B7803F00203002B01D0012300E000231846083747
:200A2000BD4680BD80B582B000AF06233B713A46381D0023012100F00AF800BFFFF7C4FF07
:200A40000346002BFAD100BF0837BD4680BD80B489B000AFF860B9607A603B60424B4FF447
:200A60008042C3F894200023BB612CE000237B6123E0BB69FA6813441B7819467B698022A3
:200A800042FA03F30B40002B05D0374B4FF48052C3F8982004E0344B4FF48052C3F89420E8
:200AA000314B4FF40052C3F894202F4B4FF40052C3F898207B6901337B617B69072BD8D979
:200AC000BB690133BB61BA69BB689A42CED3264B4FF48052C3F898200023BB6133E0BB6970
:200AE0007A68134400221A7000237B6125E01E4B4FF40052C3F894201B4B4FF40052C3F8EA
:200B00009820194BD3F8A030FB61FB6903F40043002B0FD07B69802242FA03F0BB697A685F
:200B20001A4479680B441B7859B243B20B435BB2DBB213707B6901337B617B69072BD6D970
:200B4000BB690133BB61BA693B689A42C7D3064B4FF48042C3F89820012318462437BD463C
:200B60005DF8047B704700BF0080004180B584B000AF786000BFFFF727FF0346002BFAD160
:200B800001E0FFF74FFFFFF736FF034683F00103DBB2002BF5D120233B737B681B0CDBB23F
:200BA0007B737B681B0ADBB2BB737B68DBB2FB7307F1080207F10C0000230421FFF747FF1C
:200BC00000BFFFF701FF0346002BFAD100BF1037BD4680BD80B582B000AF9F233B713A46D7
:200BE000381D03230121FFF732FF05233B713A46381D01230121FFF72AFFFFF713FF0123F7
:200C00003B7100237B713A46381D00230221FFF71EFF00BF0837BD4680BD80B590B000AF89
:200C2000F860B9607A6000BFFFF7CEFE0346002BFAD101E0FFF7F6FEFFF7DDFE034683F051
:200C40000103DBB2002BF5D102233B76FB681B0CDBB27B76FB681B0ADBB2BB76FB68DBB2FE
:200C6000FB767A6807F118030433B968184600F0AFFF7B680433194607F1140207F1180023
:200C80000023FFF7E4FE00BFFFF79EFE0346002BFAD100BF4037BD4680BD80B584B000AF3B
:200CA000786039600023FB6009E07A68FB6813441846FFF75BFFFB6803F58053FB60FA6827
:200CC0003B689A42F1D300BF1037BD4680BD80B586B000AFF860B9607A60BB68C3F30B033F
:200CE000002B03D1BB681846FFF740FF00237B6125E0BA687B69134407F110010122184654
:200D000000F025F83B7CFF2B05D0BA687B6913441846FFF72BFFFA687B6913441B78FF2BDB
:200D20000AD0BA687B6913441846FA687B69134401221946FFF771FF7B6901337B617A69C2
:200D40007B689A42D5D300BF1837BD4680BD80B586B000AFF860B9607A6000BFFFF734FE92
:200D60000346002BFAD103233B75FB681B0CDBB27B75FB681B0ADBB2BB75FB68DBB2FB75B2
:200D8000BB687A680021184600F02DFFBA6807F114007B680421FFF75AFE00BF1837BD461E
:200DA00080BD80B58EB000AF786039604FF0FF33FB627B687B631AE03A687B6BD31A3B63C7
:200DC0003B6B202B01D920233B6307F10C033A6B1946786BFFF7BBFF07F10C00FA6A07F169
:200DE0002C03396B00F0A4FD7B6B20337B637A6B3B689A42E0D3FB6A18463837BD4680BDEF
:200E000080B400AF074B4FF4E0721A80054B40F2FF721A82034B0022DA8100BFBD465DF8FD
:200E2000047B70470040004180B584B000AFF860B9607A607B68BA681946F86800F0C8FE1E
:200E4000012318461037BD4680BD80B483B000AF0346FB710849084B1B889BB223F03003E4
:200E60009AB2FB799BB213439BB20B8000BF0C37BD465DF8047B70470040004180B586B0BB
:200E800000AF786039600023FB750023BB753B683B61194B1B889BB203F03003FB60174BD6
:200EA00000221A803B6803F00F03002B02D00023BB751BE02020FFF7C8FF0023FB750BE008
:200EC0003B691A1D3A61FA7D920079680A4412681A60FB7D0133FB75FB7D032BF0D9FB6882
:200EE000DBB21846FFF7B1FF0123BB75BB7D18461837BD4680BD00BF004000412400002064
:200F000080B586B000AF786039600023FB750023BB753B683B61194B1B889BB203F03003A7
:200F2000FB60174B00221A803B6803F00703002B02D00023BB751BE01020FFF786FF00237F
:200F4000FB750BE03B691A1D3A61FA7D920079680A4412681A60FB7D0133FB75FB7D012BD4
:200F6000F0D9FB68DBB21846FFF76FFF0123BB75BB7D18461837BD4680BD00BF004000413D
:200F80002400002080B485B000AF786039600023FB603B68BB60134B00221A800023FB60B0
:200FA0000BE0BB681A1DBA60FA68920079680A4412681A60FB680133FB60FB687F2BF0D9F3
:200FC000094B1B889BB203F03003002B03D1064B4AF203529A80012318461437BD465DF887
:200FE000047B7047240000200040004180B483B000AF7860084B00221A80084A7B68536110
:20100000064B4AF201529A80012318460C37BD465DF8047B704700BF2400002000400041FF
:2010200080B400AF054B5B8A9AB2054B1A80044B1B881846BD465DF8047B70470040004103
:201040002600002080B400AF074B5B8A9BB203F00103002B0CBF01230023DBB21846BD46C1
:201060005DF8047B704700BF0040004180B483B000AF7860064A7B685361054B4AF21152E1
:201080009A8000BF0C37BD465DF8047B704700BF0040004180B483B000AF7860064A7B6845
:2010A0005361054B4AF212529A8000BF0C37BD465DF8047B704700BF0040004180B400AFBF
:2010C000034B9B691846BD465DF8047B704700BF0040004180B400AF044B4AF217529A80A1
:2010E00000BFBD465DF8047B704700BF0040004180B400AF074B084A9A6100BF054B1B694E
:2011000003F00203022BF9D100BFBD465DF8047B704700BF00100040062E800080B400AFED
:20112000034B00221A7400BFBD465DF8047B70470014004080B400AF034B02221A7700BF6B
:20114000BD465DF8047B70470010004080B400AF0C4B01225A7100BF0A4BDB78DBB203F0A2
:201160000103012BF8D1084B084A1A6200BF064B5B6803F00403042BF9D000BFBD465DF879
:20118000047B704700080040001C00400609010080B400AF074B084A5A6200BF054B5B6850
:2011A00003F00803082BF9D000BFBD465DF8047B704700BF001C00400101040080B500AFE3
:2011C00000F0F0FA4F4B01221A7000BF4D4B5B6803F00103012BF9D100F01CFBFFF788FF63
:2011E00000F018FBFFF79AFF00F014FBFFF7A2FFFFF7ACFF00F00EFBFFF7CAFF00F00AFB79
:20120000404B4122C3F89C2000BF3E4BD3F89C3003F04003402BF8D100F0FCFA394B412253
:20122000C3F8A02000BF374BD3F8A03003F04003402BF8D100F0EEFA324B4122C3F8A420B6
:2012400000BF304BD3F8A43003F04003402BF8D100F0E0FA2B4B4122C3F8DC2000BF294BBE
:20126000D3F8DC3003F04003402BF8D100F0D2FA244B4122C3F8082100BF224BD3F808318B
:2012800003F04003402BF8D100F0C4FA1D4B4122C3F80C2100BF1B4BD3F80C3103F0400320
:2012A000402BF8D100F0B6FA164B4122C3F8102100BF144BD3F8103103F04003402BF8D116
:2012C00000F0A8FA0F4B4122C3F8142100BF0D4BD3F8143103F04003402BF8D100F09AFABA
:2012E000094B6FF07F421A61074B4FF2FF725A61054B064A9A61044B0F221A6200F076FA49
:2013000000BF80BD001C0040000800405682010045726173696E672041524D20617070200A
:2013200073706163650D0A00436F7079696E672066726F6D205350490D0A0000426F6F7426
:201340006C6F61646572205374617274696E670D0A0000BF41524D2053746F726564200043
:201360005350492053746F7265642000464143544F52592053746F7265642000466F756E6F
:201380006420646F776E6C6F61642000496E7374616C6C696E6720446F776E6C6F61640DD7
:2013A0000A0000BF496E76616C69646174696E672053504920666C6173680D0A000000BF7A
:2013C000526573657474696E670D0A0045726173696E672062616420646F776E6C6F6164B9
:2013E00020696D6167650D0A000000BF496E7374616C6C696E672043524320666F722064FC
:2014000065627567676572206F7065726174696F6E0D0A00476F6F642043524320666F72FB
:201420002041524D206170700D0A00005761746368646F6720666972656420617420626FF3
:201440006F740D0A000000BF46616C6C696E67206261636B20746F20666163746F7279202A
:20146000696D6167650D0A004261642041524D20617070204352432C2066616C6C696E67C9
:20148000206261636B20746F20666163746F727920696D6167650D0A000000BF426F6F74F3
:2014A0006C6F6164657220646F6E652C206C61756E6368696E67206170700D0A000000BFB3
:2014C00080B400AF224B00221A60214A204B1B6843F0C00313601E4B012283F84E201C4B82
:2014E000012283F84F201A4BCC2283F83720184B4FF4F842C3F88020154B4FF4F842C3F8E7
:201500009020134B042283F8CC20114B042283F8CD200F4B042283F8CE200D4B062283F862
:20152000CF200B4B44F26F02C3F80021084B012283F84C21064B012283F84D21044B222295
:2015400083F8362100BFBD465DF8047B704700BF0080004180B483B000AF78607B681B6A96
:2015600018460C37BD465DF8047B704780B485B000AFF860B9607A60FB68FA681169BA6878
:20158000D2431140B8687A6802400A431A6100BF1437BD465DF8047B704780B483B000AF2B
:2015A00078607B681B6918460C37BD465DF8047B704780B483B000AF786039607B683A68B1
:2015C0009A6100BF0C37BD465DF8047B704780B483B000AF786039607B683A685A6100BFFA
:2015E0000C37BD465DF8047B704780B483B000AF786039607B683A68DA6100BF0C37BD46CE
:201600005DF8047B704780B483B000AF786039607B683A685A6000BF0C37BD465DF8047BA0
:20162000704780B483B000AF786039607B683A689A6000BF0C37BD465DF8047B704700BF9E
:2016400080B400AF0F4B104A1A600E4B4AF2A0129A810C4B4FF480325A6000BF094BDB69BA
:20166000002BFBD1074A074B1B6843F00203136000BF044BDB69002BFBD100BFBD465DF842
:20168000047B7047000C00438401204080B485B000AF7860124B80221A76114B07225A83FF
:2016A0000023FB7310E000BF0D4B1B7EDBB203F00103002BF8D00A49FB7B7A6813441B78ED
:2016C0008B62FB7B0133FB73FB7B7A6813441B78002BE8D100BF1437BD465DF8047B704747
:2016E000000C004380B586B000AF78600023FB752BE0FB7DFA7DC2F107029200796821FAD2
:2017000002F2D2B202F00F02D2B23032D2B207F118010B4403F80C2CFB7D07F11802134470
:2017200013F80C3C392B0DD9FB7DFA7D07F118010A4412F80C2C0732D2B207F118010B445F
:2017400003F80C2CFB7D0133FB75FB7D072BD0D900233B7507F10C031846FFF797FF00BF64
:201760001837BD4680BD80B582B000AF786039600948FFF78BFF7868FFF7B4FF0748FFF7B4
:2017800085FF3868FFF7AEFF0548FFF77FFF00BF0837BD4680BD00BFB81B0000C41B000012
:2017A000CC1B000080B400AF0F4B1B78DBB203F08003802B0FD00C4B06225A700A4A0A4BF3
:2017C0001B78DBB243F00203DBB2137000BF064B9B68002BFBD1044B01225A7100BFBD4698
:2017E0005DF8047B704700BF0020004080B400AF074A074B1B78DBB223F00203DBB2137071
:20180000034B01221A7100BFBD465DF8047B70470020004080B400AF064B9B6803F01003E2
:20182000102B02D0034BA5221A7300BFBD465DF8047B70470020004080B483B000AF78605E
:201840003960064A7B681360044A3B68536000BF0C37BD465DF8047B704700BF0000002036
:2018600080B500AF074B01229A71074B1B68002B05D0054B1B68044A52681046984700BF60
:2018800080BD00BF002000400000002080B400AF00BFBD465DF8047B704780B485B000AF84
:2018A0000346FB710023FB73134BBB6097F90730002B00DA1F335B115BB29B00BA681344BE
:2018C0001A6897F90730594203F01F0301F01F0158BF4B425BB2194601238B401340002B81
:2018E00014BF01230023FB73FB7B18461437BD465DF8047B704700BF3400004080B483B019
:2019000000AF03460A46FB711346BB714FF0804197F907309AB2BB791B0403F47F03134359
:201920000B6000BF0C37BD465DF8047B704700BF80B487B000AFF860B9607A603B600023CA
:20194000FB75BB68002B2FD03B68002B2CD01A4AFB685360184ABB689360174A7B68D36097
:20196000154B154A5278D2B25A70134B04221A7000BF114B5B78DBB203F00103002B06D10E
:201980000D4B5B78DBB203F00403002BF1D00A4B5B78DBB203F00403002B05D1064BDA6866
:2019A0003B681A600123FB75FB7D18461C37BD465DF8047B704700BF002000411C4B1D4AD1
:2019C000934230B438BF002103D203F8011B9342FBD1194800250168C1B9426832B38368C6
:2019E0000C30D3B10139034613F8014B01F8014F1C1A9442F8D312F0030318BF012303EB3C
:201A0000920200EB820001680029E6D0846842680B460C303CB9002ADDD01A4403F8015BD9
:201A20009A42FBD1D7E7002ADCD1E4E730BC70470000002008000020241B000072B6BFF39A
:201A40005F8F00220D4B1A700D4B03B198470D4B03B1984700F09CF8FFF7B0FF0A4A0B4BEB
:201A600023F07F0393600A4B98470A4B03B19847094B03B19847FEF727FEFEE72C00002090
:201A8000000000000000000000ED00E0000000009D1A0000000000000000000070B50D4E42
:201AA0000D4CA41BA4100025A54209D10B4E0C4CFEF70AFDA41BA4100025A54205D170BD45
:201AC00056F8253098470135EEE756F8253098470135F2E7D4040000D4040000D404000060
:201AE000D804000010B5054C227832B9044B13B10448AFF300800123237010BD0800002042
:201B0000000000000000000008B5034B1BB103490348AFF3008008BD000000000C00002044
:201B200000000000080000201C0000000000000024000020080000000000000000000020F5
:201B400008000000000000002C0000200100000000000000000000000000000022222222A8
:201B60002222222280B582B000AF7860FFF748F9FFF7A6FCFFF722FBFFF72CF8FFF760FDA0
:201B800001212120FFF7BAFE00BF0837BD4680BD084B9A6822F001029A60DB6813F0010F3C
:201BA00006D1044B20225A609A6842F001029A60704700BF00600041456E642061646472E9
:201BC0003A200000204352433A2000000D0A000010B5431E0A44914200D110BD11F8014B08
:201BE00003F8014FF7E702440346934200D1704703F8011BF9E7FEE7FEE7FEE7FEE7FEE760
:201C0000FEE7FEE7FEE7FEE7FEE7FEE7FEE7FEE7FEE7FEE7FEE7FEE7FEE7FEE7FEE7FEE774
:201C2000FEE7FEE7FEE7FEE7FEE7FEE7FEE7FEE7FEE7FFFFFFFFFFFFFFFFFFFFFFFFFFFFA5
:201C4000FFFFFFFFFFFFFFFFFFFFFFFFFFFFFFFFFFFFFFFFFFFFFFFFFFFFFFFFFFFFFFFFA4
:201C6000FFFFFFFFFFFFFFFFFFFFFFFFFFFFFFFFFFFFFFFFFFFFFFFFFFFFFFFFFFFFFFFF84
:201C8000FFFFFFFFFFFFFFFFFFFFFFFFFFFFFFFFFFFFFFFFFFFFFFFFFFFFFFFFFFFFFFFF64
:201CA000FFFFFFFFFFFFFFFFFFFFFFFFFFFFFFFFFFFFFFFFFFFFFFFFFFFFFFFFFFFFFFFF44
:201CC000FFFFFFFFFFFFFFFFFFFFFFFFFFFFFFFFFFFFFFFFFFFFFFFFFFFFFFFFFFFFFFFF24
:201CE000FFFFFFFFFFFFFFFFFFFFFFFFFFFFFFFFFFFFFFFFFFFFFFFFFFFFFFFFFFFFFFFF04
:201D0000FFFFFFFFFFFFFFFFFFFFFFFFFFFFFFFFFFFFFFFFFFFFFFFFFFFFFFFFFFFFFFFFE3
:201D2000FFFFFFFFFFFFFFFFFFFFFFFFFFFFFFFFFFFFFFFFFFFFFFFFFFFFFFFFFFFFFFFFC3
:201D4000FFFFFFFFFFFFFFFFFFFFFFFFFFFFFFFFFFFFFFFFFFFFFFFFFFFFFFFFFFFFFFFFA3
:201D6000FFFFFFFFFFFFFFFFFFFFFFFFFFFFFFFFFFFFFFFFFFFFFFFFFFFFFFFFFFFFFFFF83
:201D8000FFFFFFFFFFFFFFFFFFFFFFFFFFFFFFFFFFFFFFFFFFFFFFFFFFFFFFFFFFFFFFFF63
:201DA000FFFFFFFFFFFFFFFFFFFFFFFFFFFFFFFFFFFFFFFFFFFFFFFFFFFFFFFFFFFFFFFF43
:201DC000FFFFFFFFFFFFFFFFFFFFFFFFFFFFFFFFFFFFFFFFFFFFFFFFFFFFFFFFFFFFFFFF23
:201DE000FFFFFFFFFFFFFFFFFFFFFFFFFFFFFFFFFFFFFFFFFFFFFFFFFFFFFFFFFFFFFFFF03
:201E0000FFFFFFFFFFFFFFFFFFFFFFFFFFFFFFFFFFFFFFFFFFFFFFFFFFFFFFFFFFFFFFFFE2
:201E2000FFFFFFFFFFFFFFFFFFFFFFFFFFFFFFFFFFFFFFFFFFFFFFFFFFFFFFFFFFFFFFFFC2
:201E4000FFFFFFFFFFFFFFFFFFFFFFFFFFFFFFFFFFFFFFFFFFFFFFFFFFFFFFFFFFFFFFFFA2
:201E6000FFFFFFFFFFFFFFFFFFFFFFFFFFFFFFFFFFFFFFFFFFFFFFFFFFFFFFFFFFFFFFFF82
:201E8000FFFFFFFFFFFFFFFFFFFFFFFFFFFFFFFFFFFFFFFFFFFFFFFFFFFFFFFFFFFFFFFF62
:201EA000FFFFFFFFFFFFFFFFFFFFFFFFFFFFFFFFFFFFFFFFFFFFFFFFFFFFFFFFFFFFFFFF42
:201EC000FFFFFFFFFFFFFFFFFFFFFFFFFFFFFFFFFFFFFFFFFFFFFFFFFFFFFFFFFFFFFFFF22
:201EE000FFFFFFFFFFFFFFFFFFFFFFFFFFFFFFFFFFFFFFFFFFFFFFFFFFFFFFFFFFFFFFFF02
:201F0000FFFFFFFFFFFFFFFFFFFFFFFFFFFFFFFFFFFFFFFFFFFFFFFFFFFFFFFFFFFFFFFFE1
:201F2000FFFFFFFFFFFFFFFFFFFFFFFFFFFFFFFFFFFFFFFFFFFFFFFFFFFFFFFFFFFFFFFFC1
:201F4000FFFFFFFFFFFFFFFFFFFFFFFFFFFFFFFFFFFFFFFFFFFFFFFFFFFFFFFFFFFFFFFFA1
:201F6000FFFFFFFFFFFFFFFFFFFFFFFFFFFFFFFFFFFFFFFFFFFFFFFFFFFFFFFFFFFFFFFF81
:201F8000FFFFFFFFFFFFFFFFFFFFFFFFFFFFFFFFFFFFFFFFFFFFFFFFFFFFFFFFFFFFFFFF61
:201FA000FFFFFFFFFFFFFFFFFFFFFFFFFFFFFFFFFFFFFFFFFFFFFFFFFFFFFFFFFFFFFFFF41
:201FC000FFFFFFFFFFFFFFFFFFFFFFFFFFFFFFFFFFFFFFFFFFFFFFFFFFFFFFFFFFFFFFFF21
:201FE000FFFFFFFFFFFFFFFFFFFFFFFFFFFFFFFFFFFFFFFFFFFFFFFFFFFFFFFFFFFFFFFF01
:20200000F0FF032011E4000067240100732801005F2C0100872E01006732010000000000B5
:202020000000000000000000000000000F2201004F2A0100000000000F2201000F22010090
:202040000F2201000F2201000F2201000F2201000F2201000F2201000F2201000F220100F0
:202060000F2201000F220100952801000F2201000F2201000F2201000F2201000F22010044
:202080000F2201000F2201000F2201000F2201000F2201000F2201000F2201000F220100B0
:2020A0000F2201000F2201000F2201000F2201000F220100A91D01000F2201000F220100FB
:2020C0000F2201000F2201000F2201000F2201000F2201000F2201000F2201000F22010070
:2020E0000F2201003D1C01000000000000000000000000000F220100F9A20000F9A20000EC
:20210000F9A20000F9A20000B5A40000B5A40000B5A40000B5A400003DA100003DA1000069
:202120003DA100003DA100000F2201000F2201000F2201000F22010089A9000089A90000B7
:2021400089A9000089A90000EDA70000EDA70000EDA70000EDA7000051A6000051A60000DD
:2021600051A6000051A600001DAB00001DAB00001DAB00001DAB0000000000000000000051
:202180000F2201000F2201000F2201000F220100000000000F2201000F2201000F220100E1
:2021A0000F2201000F2201000F2201000F2201000F2201000F2201000F2201000F2201008F
:2021C0000F2201000F2201000F2201000F2201000F2201000F2201000F2201000F2201006F
:2021E0000F2201000F2201000F2201004D0001002D2001000F2201000F2201000F22010017
:202200000F2201000F2201000F2201000F2201000F2201000F2201000F2201000F2201002E
:202220000F2201000F2201000F2201000F2201000F2201000F2201000F2201000F2201000E
:202240000F2201000F2201000F2201000F2201000F2201000F2201000F2201000F220100EE
:202260000F220100F8B500BFF8BC08BC9E46704709160100F8B500BFF8BC08BC9E4670470E
:20228000E5150100AC65000001000000006A70472DE9F04F57EC106B97B0CDE90067466AE9
:2022A000079104460A920F93209D3EB9102010F097FF6062466086600660C660636A19685C
:2022C00051B15A684A60012393408B6020460FF012FE636A00221A60019B002BBFBF012367
:2022E0002B60019B23F00043B2BF019300232B60DDF80480A84B33EA08031BD10F9A42F271
:202300000F731360009B23B9C8F31300002800F07885219B53B9A14B21E0A14B02930833FD
:20232000219A1360029817B0BDE8F08F9B4B02930333F5E7DDE900670022002330463946F6
:2023400009F06EFF814660B10F9A01231360219B002B00F05385934B219A1360013B029373
:20236000E0E714AA15A947EC106B20460CF000F8C8F30A558246002D7ED0C7F3130343F0B2
:202380007F51304641F44011A5F2FF35CDF848900022854B05F08EFA79A3D3E9002304F0AB
:2023A0009BFC79A3D3E9002305F086FA064628460F4605F0CDFB76A3D3E9002304F08CFCD6
:2023C00002460B463046394605F076FA06460F460EF014FC0022834600233046394609F05F
:2023E00029FF58B1584605F0B3FB02460B463046394609F015FF08B90BF1FF3BBBF1160F08
:2024000059D86A4901EBCB01DDE90023D1E9000109F02EFF002850D00BF1FF3B00230E9314
:20242000149B5D1B6B1E069345BFC5F101030593002300234CBF06930593BBF1000F3EDBA7
:20244000069BCDF82CB05B44069300230893079B092B00F2AF80052BC4BF043B0793079B1F
:20246000A3F10203CCBF00260126032B00F2AE80DFE803F082842F77159B149D1D4405F27E
:202480003243202B11DD009A05F21240C3F1400322FA00F008FA03F3184305F049FB0123F8
:2024A000A1F1F871013D129372E7C3F12000009B03FA00F0F1E70123B1E70E90B0E7059B20
:2024C000A3EB0B030593CBF10003089300230B93BDE7012309930A9B002B7ADD04930393F5
:2024E000656A00226A60042101F114029A4275D9696820460DF0B4FB636A28601B6802937A
:20250000039B0E2B00F2E580002E00F0E2809DED007BBBF1000F8DED0C7B74DD234A0BF093
:202520000F034FEA2B1602EBC303F006D3E9008959D51F4B51EC170BD3E9082304F0F6FC5D
:20254000CDE9000106F00F060325194F002E4CD142464B46DDE9000104F0E8FCCDE900016F
:202560006AE0012309930A9B5B4404930133012B0393B8BF0123B3E70023ABE70023F1E79B
:2025800061436F63A787D23FB3C8608B288AC63FFB799F501344D33F0000F07F19320100E2
:2025A000103201001E3201000000F83F58D60000C823010001260023079309964FF0FF3342
:2025C00004930393002212230A9289E701230993F4E70123049303931A46F5E76A6801323E
:2025E0006A60490080E70225AFE7F10708D540464946D7E9002304F06FFB013580468946AE
:2026000076100837A2E700F09D80CBF100069F4B9F4F06F00F0203EBC203D3E90023DDE966
:202620000C0104F059FBCDE90001361100230225002E7CD1002B91D10E9B002B00F084802D
:20264000DDE900890022934B4046494609F0F2FD002879D0039B002B76D0049B002B34DDD3
:2026600000228D4B4046494604F036FBCDE90001049E0BF1FF370135284605F069FADDE9D9
:20268000002304F029FB0022844B05F015F98046A1F15079002E5AD10022814BDDE90001DC
:2026A00005F008F942464B46CDE9000109F0E0FD002840F09B82424609F10043DDE900017D
:2026C00009F0B8FD002840F08F82DDE90C23CDE90023159B002BC0F25081BBF10E0F00F3FB
:2026E0004C816A4B03EBCB03D3E900890A9B002B80F2DA80039B002B00F3D68040F0738284
:202700000022674B4046494604F0E6FADDE9002309F0A4FD039E3746002840F04A82029B9A
:20272000029A5D1C312313700BF1010B45E2F20705D5D7E9002304F0CFFA0135012376102B
:20274000083775E7022577E75F46039E94E7029A4E4B32441392099A711E002A48D003EBE6
:20276000C103D3E9002300204E4904F0DFFB42464B4605F09FF8029D80468946DDE9000191
:202780000EF03CFA064605F0E3F902460B46DDE9000105F08FF8303605F8016B42464B4624
:2027A000CDE9000109F046FD002865D1DDE900230020384905F07EF842464B4609F03AFD8A
:2027C000002840F0BA80139B9D423FF47EAF0022314B4046494604F07FFA002280468946A3
:2027E0002D4BDDE9000104F077FACDE90001C5E703EBC10142464B46D1E9000104F06CFAF4
:20280000CDE91001029DDDE900010EF0F7F9064605F09EF9303602460B46DDE9000105F00A
:2028200049F805F8016B139BAB42804689464FF0000225D11B4BDDE9100105F03DF80246D8
:202840000B464046494609F013FD002875D1DDE910230020134905F02DF802460B464046ED
:20286000494609F0E7FC00283FF42FAF15F8013C302B05F1FF3201D0BB464DE01546F5E7B2
:20288000054B04F029FACDE90001BCE758D60000C82301000000F03F0000244000001C406E
:2028A000000014400000E03FDDE90067029D42464B463046394604F039FB0EF09FF900907D
:2028C00005F046F942464B4604F006FA02460B463046394604F0EEFF009E039F303605F8A5
:2028E000016B029EAE1BB74202460B4638D104F0E3FF06460F4602460B464046494609F04A
:2029000099FCC8B932463B464046494609F088FC10B1009BDB070FD4514620460FF0EBFA14
:2029200000230F9A2B700BF101031360219B002B3FF4F8AC1D60F5E45F4615F8012C392A67
:2029400005F1FF3306D1029A9A4207D130231370013713461A7801321A708DE71D46ECE7C8
:202960000022A44B04F0B8F90022002306460F4609F056FC00289AD0CEE7099A002A00F06C
:20298000CD80079A012A00F3AF80129A002A00F0A78003F23343089E059D059A1A440592C8
:2029A000069A01211A442046069210F046FB0746002D0CDD069B002B09DDAB42059AA8BFB0
:2029C0002B46D21A0592069AED1AD31A0693089BF3B1099B002B00F0A580002E10DD394611
:2029E000324620460BF0B0FD524601460746204609F01EFA5146804620460FF07CFAC2466E
:202A0000089B9A1B04D0514620460BF09DFD82460121204610F011FB0B9B002B064640F34C
:202A200083801A46014620460BF08EFD079B012B06467CDD4FF00008336906EB83031869B2
:202A40000EF010FFC0F12000069B184410F01F0000F09680C0F12003042B40F38780059B99
:202A6000C0F11C0003440593069B054403440693059B002B05DD51461A4620460BF0E2FAFF
:202A80008246069B002B05DD31461A4620460BF0D9FA06460E9B002B74D0314650460FF045
:202AA00035F900286EDA002351460A2220460CF0B9FC099B0BF1FF3B8246002B00F0A88195
:202AC000002339460A2220460CF0ACFC049B002B074600F3C880079B022B40F3C48059E04D
:202AE000149BC3F1360356E7039B5E1E089BB342BFBF089B0896F21A0B9BB6BF9B189E1BF9
:202B00000B93039BB8BF0026002BB9BF059B039A059D039BBCBF9D1A00233EE7089E059DFA
:202B2000099F45E7089A6EE7079B012B19DC009BBBB9019BC3F313039BB9019B23F000434A
:202B40001B0D1B0583B1059B01330593069B013306934FF001080B9B002B7FF46DAF012056
:202B600072E74FF00008F6E79846F4E780D0059A1C331A440592069A1A441D44134676E7D7
:202B80000346F4E7039B002B36DC079B022B33DD039B0493049B63B93146052220460CF067
:202BA00041FC0146064650460FF0B0F800283FF7B6AD0A9B029D6FEA030B0023039331466C
:202BC00020460FF098F9002F3FF4A6AE039B2BB1BB4203D0194620460FF08DF939462046D0
:202BE0000FF089F998E600263746E2E7BB46374695E500BF00002440099B93BB039B049328
:202C0000029D3146504609F0A0F900F1300905F8019B029B049AEB1A9A4200F3DC80029BAB
:202C2000012AACBF9B1801339846002303935146012220460BF006FA314682460FF066F8C9
:202C4000002800F38D8003D119F0010F40F08880454615F8013C302B05F1FF32AFD11546F5
:202C6000F7E7039B0493002D05DD39462A4620460BF0E8F90746B8F1000F4CD07968204699
:202C80000CF0EEFF3A6902320546920007F10C010C3010F0EDF80122294620460BF0D2F9B3
:202CA000009BDDF80880039703F00103074605933146504609F049F90399054600F130094D
:202CC00050460FF023F83A460090314620460AF043FEC368024603BB0146069050460FF079
:202CE00015F8069A03461146204606930FF003F9069BA3B9079A92B9059A82B9B9F1390FD8
:202D000029D0009B002B01DD05F1310908F1010588F8009053E73846C2E70123E3E7009AEE
:202D2000002A04DB25D1079A1ABB059A0ABB002BECDD5146012220460BF084F931468246EF
:202D40000EF0E4FF002803DCE0D119F0010FDDD0B9F1390FD8D1392388F8003008F101086B
:202D6000454615F8013C392B05F1FF323BD0013340E0002B08F1010505DDB9F1390FEAD0DC
:202D800009F10109C4E7029B049A05F8019CEB1A9342A8463FF44BAF514600230A2220466E
:202DA0000CF040FB039B0399BB4282464FF000034FF00A02204604D10CF034FB039007460A
:202DC00076E70CF02FFB002303900A22394620460CF028FBF3E7514600230A2220460CF068
:202DE00021FB82460DE7029B934205D1029A0BF1010B31231370E2E61546B2E7094BFFF732
:202E0000AEBA219B002B7FF488AA074BFFF7A7BA049B002B3FF7F4AE079B022B7FF7F0AE90
:202E2000B8E600BF1D320100103201002DE9F84304460F2800F23F85DFE810F010008400BF
:202E4000BC03D303E90308043D053D05200447045A0471048704A604EC040D050FF04AFDA2
:202E6000002840F04585BB4B1B78FBB9BA4B1B6813BB0123B749B8485A5CC2B950F82320AD
:202E8000DAB90133042BF7D1B44B1B78D3B9B44B1B7843BBB34BB44DB4480022B44F47F26D
:202EA000305E05F1FF384FF0010C3AE00023B14A13700820BDE8F8830023AE4A1370012049
:202EC000BDE8F8830022AB4B1A70D4B2AA4901EB8401AA4B53F8240009F06AFDA84B185522
:202EE0000A20BDE8F8830022A24B1A70D4B2A54901EB8401A44B53F8240009F059FDA34B6F
:202F000018550D20BDE8F8830132042A17D010F8011B0029D7D115F8011B03F58473002979
:202F2000E2D119780029EFD0B9685E68891B7145EAD9D1B208F801C0B9685960E4E7204612
:202F4000BDE8F8838B4B1D78834B13F8253013F0010F40F0B580804B13F8253013F0020F01
:202F600040F0C6807C4B13F8253013F0040F40F0D880794B03EB85039B7813F0400F40F047
:202F80000D81754B13F8253013F0080F40F01E81714B13F8253013F0100F40F030816E4BC2
:202FA00013F8253013F0200F40F042816A4B13F8253013F0400F40F05481674B13F825300E
:202FC000DB0940F06781644B03EB85035B7813F0010F40F07881604B03EB85035B7813F0CA
:202FE000020F40F088815C4B03EB85035B7813F0040F40F09881584B03EB85035B7813F049
:20300000080F40F0A881544B03EB85035B7813F0100F40F0B881504B03EB85035B7813F0E6
:20302000200F40F0C8814C4B03EB85035B7813F0400F40F0D881484B03EB85035B78DB096D
:2030400040F0E981444B03EB85039B7813F0010F40F0F981404B03EB85039B7813F0020FD9
:2030600040F009823C4B03EB85039B7813F0040F40F01982384B03EB85039B7813F0080F7E
:2030800040F03082344B03EB85039B7813F0100F40F04082304B03EB85039B7813F0200FFC
:2030A00040F050823A4B53F82530002B40F06C82384B5B5D002B40F05D820020BDE8F883EB
:2030C0002B0203F1E00234480244022118440EF07FFC2F4A12F8253043F0010302F82530D5
:2030E0001D4B13F825206FF3000203F8252032E72B0203F1E10228480233024411211844DE
:203100000EF066FC224A12F8253043F0020302F82530114B13F825206FF3410203F825206C
:2031200020E72B0203F1E2021B48133302440F2118440EF04DFC164A12F8253043F00403C8
:2031400002F82530044B13F825206FF3820203F825200EE720330020500F002034330020ED
:2031600030330020300700203133002035330020200100208F330020AC320020BC3200203A
:20318000403300206C320020200700202C3300209C32002028330020100300202B0203F15B
:2031A000F602CD48B33302440F2118440EF010FCA900CA4B0B449A7842F040029A70C84B90
:2031C0000B449A786FF386129A70DAE62B0203F1E302C14822330244112118440EF0F8FBA1
:2031E000BE4A12F8253043F0080302F82530BC4B13F825206FF3C30203F82520C8E62B0242
:2032000003F1E402B448333302440F2118440EF0DFFBB24A12F8253043F0100302F82530D8
:20322000AF4B13F825206FF3041203F82520B6E62B0203F1E502A8484233024406211844BA
:203240000EF0C6FBA54A12F8253043F0200302F82530A34B13F825206FF3451203F8252085
:20326000A4E62B0203F1E6029B4848330244052118440EF0ADFB994A12F8253043F0400337
:2032800002F82530964B13F825206FF3861203F8252092E62B0203F1E7028F484D33024455
:2032A000202118440EF094FB8C4A12F8253043F0800302F825308A4B13F825206FF3C7124A
:2032C00003F825207FE62B0203F1E80282486D330244202118440EF07BFBA9007F4B0B44BB
:2032E0005A7842F001025A707D4B0B445A786FF300025A706FE62B0203F1E90276488D3307
:203300000244022118440EF063FBA900734B0B445A7842F002025A70714B0B445A786FF3C5
:2033200041025A705FE62B0203F1EA026A488F330244022118440EF04BFBA900674B0B4407
:203340005A7842F004025A70654B0B445A786FF382025A704FE62B0203F1EB025E4891336B
:203360000244062118440EF033FBA9005B4B0B445A7842F008025A70594B0B445A786FF3BB
:20338000C3025A703FE62B0203F1EC02524897330244082118440EF01BFBA9004F4B0B4495
:2033A0005A7842F010025A704D4B0B445A786FF304125A702FE62B0203F1ED0246489F33AD
:2033C0000244042118440EF003FBA900434B0B445A7842F020025A70414B0B445A786FF3A5
:2033E00045125A701FE62B0203F1EE023A48A3330244022118440EF0EBFAA900374B0B441C
:203400005A7842F040025A70354B0B445A786FF386125A700FE62B0203F1EF022E48A533E2
:203420000244022118440EF0D3FAA9002B4B0B445A7842F080025A70294B0B445A786FF347
:20344000C7125A70FEE52B0203F1F0022248A7330244042118440EF0BBFAA9001F4B0B44B3
:203460009A7842F001029A701D4B0B449A786FF300029A70EEE52B0203F1F1021648AB33A1
:203480000244022118440EF0A3FAA900134B0B449A7842F002029A70114B0B449A786FF305
:2034A00041029A70DEE52B0203F1F2020A48AD330244022118440EF08BFAA900074B0B4423
:2034C0009A7842F004029A70054B0B449A786FF382029A70CEE500BF100300209C32002064
:2034E000500F00202B0203F1F302B648AF330244022118440EF06CFAA900B34B0B449A7826
:2035000042F008029A70B14B0B449A786FF3C3029A70B7E52B0203F1F402AA48B133024408
:20352000012118440EF054FAA900A74B0B449A7842F010029A70A54B0B449A786FF30412AE
:203540009A70A7E52B0203F1F5029E48B2330244012118440EF03CFAA9009B4B0B449A780A
:2035600042F020029A70994B0B449A786FF345129A7097E50024964B5C55214628460EF0E0
:2035800031F92046BDE8F883924B5B5D13B10220BDE8F883904901EB8501904B53F825004A
:2035A00009F006FA8E4B585501228A4B5A550220BDE8F8830EF044FF002840F09C81894B19
:2035C0001978874B5B5C13B90420BDE8F88301224FF400200FF098FF0DF0C6F80320BDE822
:2035E000F8830EF02DFF10B12046BDE8F8837D4C002221784FF400200FF086FF0DF0B4F8CB
:2036000023780021764AD1540420BDE8F8830EF017FF002840F07281724B1B786A4A52F818
:203620002320714951F823108A4205D06E4941F823200120BDE8F8830022634941F82320B2
:20364000694941F823200520BDE8F8830EF0F8FE10B12046BDE8F883624B1C784FF4807246
:20366000584901EB04215C4B53F824000DF034FF0022584B1A550120BDE8F8830EF0E0FE01
:2036800010B12046BDE8F883564B18780022574B1A5404F0C3FA044648B9524B1878012234
:2036A0004B4B1A540FF00CFF0920BDE8F88300200CF0A2FA4E480FF073FD2146494B18786B
:2036C0000EF090F80020BDE8F8830EF0B9FE10B12046BDE8F883434B187800EBC0014822F4
:2036E000444B03EBC1010FF0E5FE0020BDE8F8830EF0A6FE002840F004813A4B19783E4B4B
:203700005B5C13B90C20BDE8F88301224FF408200FF0FAFE0DF028F80B20BDE8F8830EF0EF
:203720008FFE10B12046BDE8F8832E4C002221784FF408200FF0E8FE0DF016F82378002169
:203740002D4AD1540C20BDE8F8830EF079FE002840F0DA80234B1B78284AD25C12B9204688
:20376000BDE8F8834FF48072254901EB0321254850F823000DF0B0FE1A4B1B7800241F4A6E
:20378000D4542046BDE8F8830EF05AFE002840F0BE80144B19781C4B5B5C13B90F20BDE8E1
:2037A000F8831A4B53F82120194B53F821309A42C0F0B08003F580539A42C0F0B4800E2028
:2037C000BDE8F883100300209C320020500F002028330020383300207C3200208C32002077
:2037E0003C3300208F3300205C3200202033002098940000282B002040330020343300207E
:20380000500B0020AC3200202C3300206C320020200700200EF014FE00287ED1474B197801
:20382000474B53F82120474B53F821309A4203D303F580539A4206D300224FF410200FF076
:2038400063FE0CF091FF3D4B1B7800213E4AD1540F20BDE8F8830EF0F3FD002860D1374B7A
:203860001D783A4B5B5D13B92046BDE8F88305EB4514E4000834364E34444FF48072214623
:203880002F4B53F825000DF027FE4FF48072FF2120460FF07DFC6B015A1906EBC202002431
:2038A00054802B44DB00F454244B1B78274AD4542046BDE8F883274B1B7893B9264D1F4E50
:2038C00005F51071307809F02BFF00200CF094F92246317805F514700EF0C6FA0020BDE8E7
:2038E000F88301200CF088F91C480FF059FCE5E72046BDE8F8832046BDE8F8832046BDE814
:20390000F8832046BDE8F8832046BDE8F8832046BDE8F8830E20BDE8F8832046BDE8F883C6
:203920002046BDE8F88301224FF410200FF0ECFD0CF01AFF0E20BDE8F88300BF8F3300207F
:203940006C320020200700202C33002030330020300700206C10002084920000B49400000F
:20396000EC320020040000000100000000000000C03100201C0000000000000000000020B7
:203980000400000000000000BE3100200200000000000000040000200800000000000000E6
:2039A0000C0000200800000000000000503100202800000000000000783100202800000019
:2039C000000000006F3300200100000000000000140000202C0000000000000090330020E1
:2039E0000200000000000000482D0020800000000000000040000020380000000000000018
:203A00008C3300200200000000000000141C002000040000000000007800002038000000A1
:203A200000000000883300200200000000000000C82D00208000000000000000B000002044
:203A40003800000000000000843300200200000000000000482E002080000000000000003F
:203A6000E80000203800000000000000200100200C000000000000002C0100200800000064
:203A800000000000F032002004000000000000003401002008000000000000003C01002026
:203AA0000800000000000000F43200200400000000000000002A0020280100000000000041
:203AC000C82F002078000000010000000300C9130100040059FA00000500B1C8000006009B
:203AE000590501001000F9DE00001100A1DF00001200B10501000A00190901009000A95769
:203B0000000040007DED00004100E9E0000042006DEA000031004DDE0000320089E1000060
:203B2000330095CD00003400C1FA000007007DEC00000E008D8200000F0035970000FF009A
:203B400000000000440100201B0000000000000060010020180000000000000078010020B3
:203B60006000000000000000733300200100000000000000EA3200200200000000000000E0
:203B80007733002001000000000000007B33002001000000000000007F33002001000000B8
:203BA00000000000DC3100201000000000000000833300200100000000000000482C00205D
:203BC0000001000000000000F83200200400000000000000103100204000000000000000F5
:203BE000863300200100000000000000FC3200200400000000000000D8010020540000004C
:203C000000000000803300200300000000000000142400208001000000000000E4320020BF
:203C200006000000000000007C330020030000000000000014200020000200000000000056
:203C400000330020040000000000000014220020000200000000000004330020040000005A
:203C600000000000C82E00208000000000000000482F0020800000000000000078330020CC
:203C80000300000000000000942500208001000000000000743300200300000000000000FD
:203CA0002C020020E3000000000000008733002001000000000000008A330020010000001A
:203CC00000000000EC31002010000000000000000833002004000000000000008B3300205A
:203CE00001000000000000000C33002004000000000000008E33002001000000000000007E
:203D0000103300200400000000000000FC3100201000000000000000CC32002008000000B9
:203D2000000000000C32002010000000000000001C32002010000000000000001433002030
:203D400004000000000000002C320020100000000000000018330020040000000000000062
:203D60001C33002004000000000000003C3200201000000000000000D43200200800000004
:203D800000000000DC32002008000000000000004C320020100000000000000020330020CC
:203DA0000400000000000000282B00202001000000000000243300200400000000000000F0
:203DC0008F33002001000000000000002833002004000000000000005C32002010000000C3
:203DE000000000006C32002010000000000000002C330020040000000000000030330020EF
:203E0000040000000000000034330020040000000000000038330020040000000000000084
:203E20007C32002010000000000000008C32002010000000000000003C3300200400000023
:203E4000000000009C3200201000000000000000AC320020100000000000000040330020C3
:203E60000400000000000000BC320020100000000000000010030020500C00000000000091
:203E800092330020010000000000000070330020030000000000000093330020010000008F
:203EA000000000006C3300200300000000000000A03100201E0000000000000014270020D6
:203EC0008001000000000000600F00200D0100000000000070100020A00B00000000000079
:203EE0004433002004000000000000004833002004000000000000009433002001000000A0
:203F0000000000004C330020040000000000000050330020040000000000000040300020C7
:203F20007000000001000000000000000000000000000000F9BB000000000000000000005C
:203F400001000000F9BB0000000000000000000002000000F9BB0000630000000000000093
:203F60000300000049B700000A00000000000000030000002D2E0000610000000000000075
:203F800003000000D54900000A000000000000000300000061850000543300200400000062
:203FA00001000000B0300020B0300020600000000100000000000000542901007429010083
:203FC000342901000000000000000000000000000000000000000000000000000000000083
:203FE0000000000000000000000000000000000000000000000000000000000000000000C1
:204000000000000000000000000000000000000000000000583300200400000000000000F1
:204020005C3300200400000000000000603300200400000000000000942800206C010000CD
:2040400001000000430000000000000000000000000000000000000000000000000000001C
:204060000000000043000000000000000000000000000000000000000000000000000000FD
:204080000000000043000000000000000000000000000000000000000000000000000000DD
:2040A0000000000043000000000000000000000000000000000000000000000000000000BD
:2040C00000000000430000000000000000000000000000000000000000000000000000009D
:2040E00000000000430000000000000000000000000000000000000000000000000000007D
:2041000000000000430000000000000000000000000000000000000000000000000000005C
:2041200000000000452C01005D27010000000000ACC700004D3501004C3501004C3501008E
:204140004C3501004C3501004C3501004C3501004C3501004C3501004C350100FFFFFFFFD5
:20416000FFFFFFFFFFFFFFFFFFFF00000100415343494900000000000000000000000000DF
:204180000000000000000000000000000000415343494900000000000000000000000000B6
:2041A00000000000000000000000000000000000101C0020040000000000000064330020F8
:2041C00004000000000000006833002004000000010000000000000000000000000000001B
:2041E000416C61726D5F496E64205B3078252E32785D0D0A00000000416C61726D5F496EC1
:2042000064205B3078252E32785D00004552523A54582074696D6564206F75740D00000036
:204220004552523A54582074696D6564206F75740000000054582055617274205B25645D3B
:204240000D0A0000507265706172654572726F72205B3078252E32785D0D0A005072657043
:204260006172654572726F72205B3078252E32785D0000005265736574205B3078252E32D4
:20428000785D0D0A000000004765745F416C61726D73205B3078252E32785D0D0A000000BF
:2042A0004765745F416C61726D73205B3078252E32785D0020202020202046575F56312E31
:2042C000302E33004765745F496E666F205B3078252E32785D0D0A004765745F496E666FA3
:2042E000205B3078252E32785D000000436C6561725F416C61726D73205B3078252E32787B
:204300005D0D0A00436C6561725F416C61726D73205B3078252E32785D000000526561648A
:204320005F557365725F44617461205B3078252E32785D0D0A000000526561645F5573650A
:20434000725F44617461205B3078252E32785D0057726974655F557365725F446174612093
:204360005B3078252E32785D0D0A000057726974655F557365725F44617461205B3078259F
:204380002E32785D000000005375627363726962655F416C61726D73205B3078252E327867
:2043A0005D0D0A005375627363726962655F416C61726D73205B3078252E32785D000000AB
:2043C00053656C665F54657374205B3078252E32785D0D0A0000000053656C665F546573AB
:2043E00074205B3078252E32785D0000434F4E464947000056534320436865636B73756DD7
:204400002564203078255820213D20307825580D0A00000057726F6E672056656E646F7259
:2044200020436F6E666967206C656E67746820256420213D2025640D0A00000057726F6ED7
:20444000672056656E646F7220436F6E66696720636865636B73756D203078255820213DBB
:2044600020307825580D0A0056535F436F6E6669675F72656164205B3078252E32785D0DFD
:204480000A00000056535F436F6E6669675F72656164205B3078252E32785D0056656E64AF
:2044A0006F7220537065636966696320436F6E666967204572726F722025630D0A00000076
:2044C00056535F436F6E6669672563205B3078252E32785D0D0A000056535F436F6E66696B
:2044E000672563205B3078252E32785D000000004C4F47474552000056656E646F725F5370
:204500007065636966696320686561646572206572726F720D0000004143465200000000CC
:2045200057726F6E6720565320436F6E6669672046696C65206C656E677468202564202103
:204540003D2025640D0A0000565320436F6E6669672046696C653A20426164436865636B60
:2045600073756D2025580D0A00000000565320436F6E6669672046696C653A2042616420F2
:2045800048656164657220496E6465782025640D0A0000005653436F6E66696746696C657B
:2045A0002564205B3078252E32785D0D0A0000005653436F6E66696746696C652564205B5B
:2045C0003078252E32785D002A2A2A0057726F6E67204F6C64204861636B2056656E646F5C
:2045E0007220436F6E666967206C656E67746820256420213D2025640D0A000043430000C4
:204600002D5231002D4231002D4E410056534F6C64436F6E666967205B3078252E32785DF3
:204620000D0A000056534F6C64436F6E666967205B3078252E32785D000000002A434C45CA
:2046400041520000436C656172696E6720657874466C61736820636F6E74656E7420616E39
:204660006420726573657474696E670D0000000021212157445400004C6F6F7020756E7471
:20468000696C205761746368646F672066697265730D0000496E76616C69642056656E643A
:2046A0006F7220537065636966696320436F6D6D616E6420252E2A730D0A0000446F776E35
:2046C0006C6F61645F5374617274205B3078252E32785D0D0A000000446F776E6C6F616401
:2046E0005F5374617274205B3078252E32785D00446F776E6C6F61645F4170706C205B3001
:2047000078252E32785D0D0A00000000446F776E6C6F61645F4170706C205B3078252E32E4
:20472000785D0000446F776E6C6F61645F456E64205B3078252E32785D0D0A00446F776ECA
:204740006C6F61645F456E64205B3078252E32785D0000004D54525F43616C2025640D0AA4
:20476000000000004D54525F43616C20256400004D54525F43616C205B3078252E32785D4F
:204780000D0A00004D54525F43616C205B3078252E32785D00000000536E645F4366675F30
:2047A00064617461205B3078252E32785D0D0A00536E645F4366675F64617461205B30781B
:2047C000252E32785D000000536E645F4366675F446174615F646F6E65205B3078252E3265
:2047E000785D0D0A00000000536E645F4366675F446174615F646F6E65205B3078252E32B3
:20480000785D00005365745F54696C74202564205B3078252E32785D0D0A00005365745FD3
:2048200054696C74202564205B3078252E32785D000000005365745F54696C745F53616D0D
:2048400065205B3078252E32785D0D0A000000005365745F54696C745F53616D65205B30A7
:2048600078252E32785D00005365745F54696C745F446F6E65205B3078252E32785D0D0AC5
:20488000000000005365745F54696C745F446F6E65205B3078252E32785D00004765745F0F
:2048A00054696C74205B3078252E32785D0D0A004765745F54696C74205B3078252E32788B
:2048C0005D000000416E744D6F644E756D000000416E745365724E756D000000416E744622
:2048E00072657142616E6400416E744265616D5774680000416E4761696E0000416E744D92
:20490000617854696C740000416E744D696E54696C740000416E74467265714245380000CD
:20492000416E74467265714245390000416E74496E73744461746500416E74496E737449BD
:20494000640000004F70724261736549640000004F70725365637449640000004F707241BB
:204960006E744265617200004F70724D636854696C740000556E6B6E6F776E005365745F7A
:204980004444202573205B3078252E32785D0D0A000000005365745F4444202573205B30CD
:2049A00078252E32785D00004765745F4444202573205B3078252E32785D0D0A00000000D2
:2049C0004765745F4444202573205B3078252E32785D000070B52DED028B82B0044620B97A
:2049E000204602B0BDEC028B70BDAA4B18780CF0DDF8B0B1A84B1B78002BF1D1A74B1B788D
:204A000043B9A44B1878A64908F08AFE0122A24B1A70E5E701200BF0EFF8A2480EF0C0FBA0
:204A2000EFE700239C4A1370ADF8063020460BF01EFF631E112B00F26283DFE813F012004B
:204A40001E002A0025015501E101EF01F6010002E7025A03340370028602C102D1022E0389
:204A6000FD02914B1B78914AD05C0AF039FE904B9A68904B1A600224B2E78D4B9B688D4AED
:204A800012689B1AB3F5C87FAAD903248A4B1C70A6E7894B1B780A2B00F2E080DFE813F0A8
:204AA000A500DE00DE000B0013001B0023002B0033003C0045007C4B18780CF06FFA042278
:204AC0007D4B1A708CE7784B18780CF08BFA0522794B1A7084E7744B18780CF0A7FA062249
:204AE000754B1A707CE7704B187809F0C9FD0722714B1A7074E76C4B187809F00DFE0822C0
:204B00006D4B1A706CE70121674B18780BF0A8FD0922694B1A7063E70121634B187806F0F3
:204B2000D9FF0A22644B1A705AE75F4B1C78634A02EB0422B2F9A330B2F9A5108B425AD024
:204B40005E4A02EB0422D2F8A70007EE900AF8EEE78A5B1A07EE903AB8EEE78AB2F9AB3072
:204B600007EE903AF8EEE77A67EEA87A87EE887AB5EEC07AF1EE10FA53DB17EE100A02F03C
:204B8000F9FF00224E4B02F097FE0CF037F84D4B43F82400494B03EB0423B3F9AD3007EE92
:204BA000903AF8EEE77A67EEA87A87EE887AB5EEC07AF1EE10FA3FDB17EE100A02F0DAFF2C
:204BC00000223F4B02F078FE0CF018F83E4B43F82400324B1B78002B39D13C49324B1878F6
:204BE00008F09EFD0022344B1A702A4B1B78DBB2374AD45CF4E60023324A42F82430324A2E
:204C000042F82430254B1B782BB101200AF0F4FF30480EF0C5FA3049234B187808F080FDF8
:204C2000E0E717EE100A02F0A5FF0022244B02F041FE0BF0E3FFAAE717EE100A02F09AFF1E
:204C400000221F4B02F036FE0BF0D8FFBEE701200AF0D2FF21480EF0A3FABEE70F4B1B78A9
:204C60004BB9154C22781E490F4B187808F058FD00232370B9E701200AF0BEFF0E4B19787F
:204C800018480DF0F1F8ECE7024B18780CF0CEF90524A5E68A3300208E3300206C1000204D
:204CA00084810000788100008733002054010020200100200C3300208B33002010030020F6
:204CC0000000E03F0C3200204C320020C4810000103300208C810000A0810000B4810000AE
:204CE000EC810000D4810000A34B1A78A34B53F82230002B41DBA04A1378DBB2A04951F86C
:204D0000231012789D4B53F8223099420BDB9A4A1378DBB200209A4941F823001378DBB21D
:204D2000984AD45C5CE6944A1378DBB2944951F823301178914A52F821209B1A002BB8BF6A
:204D40005B4247F6FF729342A8BF13461BB2ADF80630894C2078BDF8061009B20BF0C2FA21
:204D6000BDF806202378DBB2854951F8230000FA82F241F82320072432E67F4A1378DBB2E8
:204D80007F4951F8231012787C4B53F8223099420BDC794A1378DBB20020794941F8230006
:204DA0001378DBB2774AD45C1AE6734A1378DBB2734951F823301178704A52F821209B1A3A
:204DC000002BB8BF5B4247F6FF729342A8BF13465B421BB2ADF80630674C2078BDF80610F6
:204DE00009B20BF07FFABDF806202378DBB2644951F8230000FA82F241F823200724EFE57F
:204E0000BDF806205C4B1B78DBB25D4951F8230000FA82F241F823200724E1E5564B1878D2
:204E200000210BF01DFC0824DAE5534C2078002106F050FE20780BF0E7FB0924D0E54E4CC5
:204E4000207821782278504B03EB42024F4B03EB41010DF069FA22784D4B03EBC2035B79D7
:204E600013F0600F3AD12278494B03EBC2031B7913F0400F11D12278454B03EBC2035B795B
:204E800013F0020F09D1434B1B7803BB3A4B1878414908F045FC0424A2E53E4B1B787BB96E
:204EA000354C20783D4908F03BFC2378DBB20021334A42F823102378DBB2394AD45C8FE5A2
:204EC00001200AF099FE37480EF06AF9E8E701200AF092FE34480EF063F9D7E7334B9B68B1
:204EE000254A1178324A52F821209B1A314A934201D8072474E5274B1B784BB91E4C207846
:204F00002D4908F00DFC2378DBB2254AD45C67E501200AF071FE29480EF042F9EEE7164C9C
:204F20002278224B9968224B43F8221020780BF0EDF82378DBB21221124AD1542378DBB213
:204F40000E21174AD15404244AE50B4C2278174B9968174B43F82210207809F0B9FC237841
:204F6000DBB20F21074AD1542378DBB212210C4AD154042434E500BF8A3300201C320020DD
:204F8000EC31002010330020DC320020CC320020B80100206C1000202C8200001082000070
:204FA00008330020008200001C82000020010020FC310020C0D401004882000038820000CF
:204FC000594C207809F03CFC2378DBB21021574AD1542378DBB21221554AD1540424FFE41A
:204FE000514C2278534B9968534B43F82210207806F064FA2378DBB211214C4AD154237834
:20500000DBB212214A4AD1540424E9E4464C2278484B9968484B43F82210207804F0A4FC36
:205020002378DBB20B21414AD1542378DBB20C213F4AD1540424D3E43B4B1B783F4903EBFB
:2050400043035B00CA5C42F02002CA543C4B1B78C3B9354D28783B4901F14C0201F53F71F5
:2050600008F05EFB2B78384C04EB830301225A702E78F6B228780DF09BFE04EB8604E07009
:205080000024ADE401200AF0B7FD2E4800F14C0100F53C700CF0E8FEDBE7234B187806F09F
:2050A00039FE00249CE4204B1B78244903EB43035B00CA5C42F02002CA54214B1B786BB960
:2050C000194C20781F4901F14C0201F53F7108F027FB20780BF0CAFE002481E401200AF06C
:2050E0008BFD184800F14C0100F53C700CF0BCFEE6E70D4B18780BF0B9FE002470E42546E9
:205100000F4B1B783BB9084B18782A460F4908F007FB002464E401200AF06EFD21460C485C
:205120000CF0A2FEEFE700BF8A330020103300200833002020010020FC3100206001002094
:205140006C100020647F0000440100207C820000688200002DE9F04F85B005460122014644
:205160004FF400200EF0D0F9C94B43F82500AC00C84E311901F042FB012229464FF408205A
:205180000EF0C2F9C44B43F82500C44F391901F035FB012229464FF410200EF0B5F9C04BA5
:2051A00043F82500BF49214401F028FB2C024FF48072BD49214457F825000AF07FF8002239
:2051C000BA4B43F825204FF0FF32B94B43F82520DFF8E09204EB09031F4601934FF48072E4
:2051E000194656F825000AF069F80A200DF060F804F1E0024A44022138460CF08FF930B198
:20520000AB4B13F825206FF3000203F825200A200DF04EF804F10208A64F08EB070604F14E
:20522000E1023A44112130460CF078F930B1A04B13F825206FF3410203F825200A200DF0D0
:2052400037F804F1130B9B4B0BEB03021046009204F1E2021A440F210CF060F930B1944BC7
:2052600013F825206FF3820203F825200A200DF01FF804F1E3028F4804F122030244112137
:2052800018440CF04BF930B1894B13F825206FF3C30203F825200A200DF00AF804F1E40202
:2052A000844804F1330302440F2118440CF036F930B17F4B13F825206FF3041203F8252047
:2052C0000A200CF0F5FF04F1E5027A4804F142030244062118440CF021F930B1744B13F852
:2052E00025206FF3451203F825200A200CF0E0FF04F1E6026F4804F14803024405211844CF
:205300000CF00CF930B16A4B13F825206FF3861203F825200A200CF0CBFF04F1E7026548F1
:2053200004F14D030244202118440CF0F7F830B15F4B13F825206FF3C71203F825200A20DA
:205340000CF0B6FF04F1E8025A4804F16D030244202118440CF0E2F830B1554B03EB850306
:205360005A786FF300025A700A200CF0A1FF04F1E902504804F18D030244022118440CF0A9
:20538000CDF830B14A4B03EB85035A786FF341025A700A200CF08CFF04F1EA02454804F107
:2053A0008F030244022118440CF0B8F830B1404B03EB85035A786FF382025A700A200CF060
:2053C00077FF04F1EB023B4804F191030244062118440CF0A3F830B1354B03EB85035A7860
:2053E0006FF3C3025A700A200CF062FF04F1EC02304804F197030244082118440CF08EF8FE
:2054000030B12B4B03EB85035A786FF304125A700A200CF04DFF04F1ED02264804F19F0350
:205420000244042118440CF079F830B1204B03EB85035A786FF345125A700A200CF038FFC4
:2054400004F1EE021B4804F1A3030244022118440CF064F830B1164B03EB85035A786FF360
:2054600086125A700A200CF023FF04F1EF02114804F1A5030244022118440CF04FF8D8B115
:205480000B4B03EB85035A786FF3C7125A7013E08C3200207C320020BC320020AC320020BE
:2054A000200700206C320020500B0020500F002010070020100300200A200CF0F9FE04F171
:2054C000F002B14804F1A7030244042118440CF025F830B1AD4B03EB85039A786FF300029D
:2054E0009A700A200CF0E4FE04F1F102A64804F1AB030244022118440CF010F830B1A34B89
:2055000003EB85039A786FF341029A700A200CF0CFFE04F1F2029C4804F1AD030244022186
:2055200018440BF0FBFF30B1984B03EB85039A786FF382029A700A200CF0BAFE04F1F30216
:20554000914804F1AF030244022118440BF0E6FF30B18E4B03EB85039A786FF3C3029A70B3
:205560000A200CF0A5FE04F1F402874804F1B1030244012118440BF0D1FF30B1834B03EBD3
:2055800085039A786FF304129A700A200CF090FE04F1F5027C4804F1B2030244012118441D
:2055A0000BF0BCFF30B1794B03EB85039A786FF345129A700A200CF07BFE04F1B303039365
:2055C000DFF8C4A15344029304F1F60252440F2118460BF0A3FFF0B16C4B03EB85039A78D5
:2055E0006FF386129A70DFF8B4E1BEE80700039B43F80A00029B184659609A60BEF8002027
:205600009EF80230828183735F4B03EB0523002283F8C12006E05D4B03EB85039B7813F071
:20562000400FE0D000980DF0CBFD03460E2808D88344574A934420220BF8012F01330E2B8E
:20564000FAD9524B13F8253013F0010F45D018F80730013BDBB2FD2B44D9324606F110017D
:2056600012F8013F013BDBB2FD2B3BD98A42F7D14FF0303348F807307360B360F36033744E
:20568000444905EB45035B00CA5C42F00202CA54414B1B78002B6CD1404901F114023031F7
:2056A000284608F03DF83E4BA901581800225A5442700D46019A11889A1C51530435EA180E
:2056C00037687468B068F168EF5054609060D160337C137405B0BDE8F08F324B1B8824F87F
:2056E0000930B4E7284B03EB0523D3F8A730E3B9284905EB45035B00CA5C42F00202CA5491
:20570000254B1B783BB9254901F114023031284608F006F8C7E701200AF06EFA1F4800F1CE
:20572000140124300CF0A0FBEDE7174B03EB052393F8B130012BB6D1164905EB45035B000C
:20574000CA5C42F00402CA54134B1B783BB9134901F138023031284607F0E2FFA3E701200E
:205760000AF04AFA0D4800F1380124300CF07CFBEDE701200AF040FA084800F114012430D2
:205780000CF072FB88E700BF10030020100700200F030020600100206C10002084920000A3
:2057A0006C0F0020949200002DE9F04F85B001900C46154601F103080622C44940460DF0AB
:2057C00037F9002840F0E6800746607A342847D8312877D2302840F0C780BD4E4FF0040B6F
:2057E00006F10909332148460BF0EAF8B38F834254D1B37A313BDBB2032B94BFB37286F86B
:205800000AB0737A313B7372332148460BF0D8F8B08701374A36042FE2D10926AC4F4FF0A5
:20582000350940F23118F05DC1304A46B91900030AF086FD4A364645F5D190232B7001234C
:205840006B700023AB70EB70A24B1B78002B40F09880EB78627AA049019807F061FF19E0D0
:20586000A0F16103032B7FD860303522291D00030DF0F2FA90232B7035236B700023AB70D6
:20588000EB70944B1B78002B66D1EA789349019807F046FF002005B0BDE8F08F82460020E5
:2058A0000AF0AAF94A228A4B02FB07325346928F39468B480CF0D8FA2422294601980BF0B1
:2058C00061FDE7E7A378667806EB0326B6B23B2E0DD000200AF090F93B22314681480CF09F
:2058E000C3FA2422294601980BF04CFDD2E704F10906332130460BF063F80746A38F834238
:205900000DD000200AF078F93A46A18F76480CF0ABFA2422294601980BF034FDBAE7637A18
:20592000313BDBB24A216A4A01FB0323324609333036D2F800E057689068D168C3F800E0DE
:205940005F609860D96010321033B242F1D11168196012791A7170E701200AF04DF9E978FB
:2059600062480CF081FA90E700200AF045F9617A5F480CF079FA2422294601980BF002FDFE
:2059800088E701200AF038F9EA78617A59480CF06BFA5EE70622584940460DF049F818BB68
:2059A000637A564A019C52F8240000EB8310A0F50023B3F5C03F0BD900200AF01DF95048D6
:2059C0000DF0EEFB2422294620460BF0DBFC61E74022291D09F0D4FF90232B7041236B70AB
:2059E0000023AB70EB7055E70422464940460DF01FF8002840F09980A378667806EB0326FF
:205A0000B6B2462E3AD104F149014246002632F8023B1E44B6B28A42F9D145F65A239E4253
:205A200039D1E479303CE4B2042C41D80CF0ECF920460DF045FD0CF0E7F9462241462046FD
:205A40000DF038FD0CF0E0F94622414620460DF0EBF9204602F0E2F890232B7001236B708A
:205A60000023AB70EB701B4B1B78002B54D1EB7822462549019807F053FE0BE70AF0BCF88A
:205A80004622314621480CF0EFF92422294601980BF078FCFEE600200AF0AEF831461C489E
:205AA0000CF0E2F92422294601980BF06BFCF1E600200AF0A1F8214616480CF0D5F9242200
:205AC000294601980BF05EFCE4E600BFEC430000002A00206C100020D844000084440000E7
:205AE000F4430000144400003C440000684400009C440000C0440000F0440000200700208C
:205B0000F844000018450000B045000020450000484500006C45000001200AF06DF8EA7872
:205B200021467F480CF0A0F9A1E703227D4940460CF07EFF0746002840F0A980A378667869
:205B400006EB0326B6B22F2E0CD1774EDFF800A2BAF81C3404F10608A6F10B0B029403956B
:205B60001D464EE00AF048F82F2231466F480CF07BF92422294601980BF004FC8AE600238F
:205B80008BF80A30BAF820249AF82234ABF81B208BF81D30DDF808C0634653F814EF586868
:205BA0009968C6F813E0C6F81700C6F81B1099899B7BA6F81F1086F82130634653F823EF9B
:205BC00058689968C6F822E0C6F82600C6F82A1099899B7BF18586F83030A6F102093321E6
:205BE00048460AF0EDFEA4F8310014F8020CC1303522494600030AF0A3FB01374A36042FEE
:205C00002CD0344606F8027C334623F8025BD8F80000D8F80410D8F80820C6F8020059607C
:205C20009A60B8F80C209A81002FA8D0012F09D0042306F8013CBAF828249AF82A343282BF
:205C4000B374A7E701238BF85430BAF824249AF82634ABF865208BF867309BE7039D902367
:205C60002B7001236B700023AB70EB70304B1B782BB9EA782F49019807F052FD0AE6012035
:205C800009F0BAFFE9782C480CF0EEF8F1E706222A4940460CF0CCFED0B10622284940463C
:205CA0000CF0C6FE68BB224B1B78012B05D9022009F0A2FF23480DF073FA78244FF47A7598
:205CC00028460CF0F5FA013CFAD10CF0A5FCE1E50BF060FA164B1B78012B05D9022009F092
:205CE0008BFF19480DF05CFA4FF47A7402E020460CF0DEFA0CF0A4FB0028F8D10CF08CFC09
:205D0000C8E5002009F078FF424606210F480CF0ABF82422294601980BF034FBBAE500BFCB
:205D200094450000C84500000B2A0020CC4500006C100020244600000C4600003C4600003D
:205D400070460000784600004446000094460000E04100002DE9F04FBBB0CA4B0393DFF808
:205D60007883C94FC94D1E460024DFF870A3DFF8489309F5A27B0CE00AF0CAFC024609F5C9
:205D8000A671E0B207F0CCFC013405F58475042C2CD0002306F8013B08F8013B07F8013B73
:205DA00004F80A30BA4AA354BA4AA354BA4AA354BA4A42F82430BA4AA3546B80284600F8DE
:205DC000083BB84AA3544FF48072FF210DF0E0F9B54B1B78002BCFD0012009F00DFF0AF0DF
:205DE00097FC014658460CF03FF8C5E705AD4FF44126002435274FF033093A462946304690
:205E00000DF02AF8494628460AF0DAFD3AAB07FB043333F8A13C834219D12B78A3425FD108
:205E2000013406F580563535042CE6D19F4B00241C705C709C709E4B04221A705A709A702C
:205E4000DA709C4DDFF898B20EAE0194A1E08046954B1B78002B3CD1974D05F5B071E0B21A
:205E600007F05EFC002009F0C7FE35233AAA03FB042434F8A12C414605F5B8700BF0F4FF01
:205E80008A4B01241C705C7000209870884B18705C7004229A70DA70FFF75CF92046FFF740
:205EA00059F90220FFF756F90320FFF753F9834B93E803000590ADF81810814C814F4FF436
:205EC00031260025A7F1A00903F12C0ADDF80C802AE1012009F090FE7B480DF061F9BBE70B
:205EE000714B1B78A3B9744D05F5D471E0B207F017FC002009F080FE35233AAA03FB042363
:205F000013F8D42C214605F5DE700BF0ADFFB7E7012009F071FE6D480DF042F9E3E7644A94
:205F2000A35443E0002009F067FE16F8232C214667480BF099FF04235D4AA35436E0AF1C1D
:205F4000A6F120091122494638460CF071FD002846D105F1130AA6F10F090F224946504680
:205F60000CF066FD002855D105F1B3090F22414648460CF05DFD002868D1019B002B40F0CE
:205F8000B180013405F580750BF1400B3536042C8DD0B04616F8233C042BC0D0032BC1D884
:205FA000434AA3544149CA5C0132CA54E0B2FFF7D1F80295A6F122070222394628460CF0A7
:205FC00037FD0028BBD036F8223C2B80414A12F8243043F0010302F8243001230193AEE7E8
:205FE00056F8200C56F81C1C56F8182C56F8143CC5F802007960BA60FB6016F8103C3B745B
:20600000344A12F8243043F0020302F82430012301939EE756F80F1C56F80B2C56F8073C52
:20602000C5F81310C5F81720C5F81B3036F8032C16F8013CA5F81F2085F82130254A12F8B9
:20604000243043F0040302F824308DE7D8F80010D8F80420D8F80830C5F8B310C5F8B72000
:20606000C5F8BB30B8F80C2098F80E30A5F8BF2085F8C130174B03EB84039A7842F0400287
:206080009A707AE7243300203C33002030070020343300202C330020303300205C32002001
:2060A00038330020203300206C1000205C0100205401002010030020849200001493000064
:2060C000282B0020B0030020D49300001894000060940000500F00202833002040330020E6
:2060E0006E0F0020029B1A885B4623F8022BD7F800E07868B968FA68CBF802E05860996073
:20610000DA603A7C1A743CE79BF80530022B33D0E8B201F083FD013506F58056483407F55C
:206120008077042D00F0D180A3464822214630460CF092FE462308F8013BE0182246002312
:2061400032F8021B0B449BB28242F9D145F65A229342E0D1052205A958460CF069FC002895
:20616000D2D00422514658460CF062FC0028CBD0E8B201F053FDCEE70F22A7F18D0104F129
:2061800008000CF055FC00285AD10F22A7F16D0104F117000CF04CFC002855D109EB052366
:2061A000BBF82620B3F891309A4251D109EB0523BBF82820B3F893309A4249D109EB0523E5
:2061C000BBF82A20B3F895309A4241D109EB0523BBF82C20B3F897309A423DD104F12E01C9
:2061E00001224FEAC51E31F8020B0EEB0203483309EB4303B3F8073083422DD10132042A71
:20620000F1D19BF8342017F8013C9A4228D104F1350304F138013A4613F801EB12F8010BCC
:2062200086451DD18B42F7D109EB0523BBF93820B3F9A3309A4217D0E8B201F0EFFC6AE7DF
:20624000E8B201F0EBFC66E7E8B201F0E7FC62E7E8B201F0E3FC5EE7E8B201F0DFFC5AE772
:20626000E8B201F0DBFC56E709EB0523BBF93A20B3F9A5309A4203D0E8B201F0CFFC4AE79E
:2062800009EB0523D3F8A730DBF83C209A4203D0E8B201F0C3FC3EE709EB0523BBF94020C3
:2062A000B3F9AB309A4203D0E8B201F0B7FC32E709EB0523BBF94220B3F9AD309A423FF487
:2062C0002AAFE8B201F0AAFC25E70F203BB0BDE8F08F00BF2DE9F04F8DB00C46DDF858801A
:2062E00093461F4606460CF04DFC0368049318460CF066FFD8F800300690073323F0070321
:2063000003F1080294F818A02568C8F80020D3E90023C4E9122394ED127B8DED027B039B6A
:20632000DDF8088023F000494FF0FF329C4B404649460BF041FF002840F050824FF0FF3263
:20634000974B4046494605F07FFF002840F0468200220023DDE9020105F06CFF10B12D2334
:2063600084F843308F4B1A1F25F00405BAF1470F8CBF994691462560032300252361A846B9
:2063800000975B460AAA2146304606F0F3FD013040F0FA804FF0FF300DB0BDE8F08F636859
:2063A000591C2AF020081ED10623636045F48063236063680593039B002B1BDA0399029A53
:2063C00001F10043CDE902232D235FFA88F8B8F1460F079310D0B8F1450F02D1059B013368
:2063E0000593022109E0B8F1470FDFD1002BDDD10123DAE70023E8E703210AAB019309AB79
:206400000093059A08AB9DED020B3046FBF740FFB8F1470F814651D1EA074FD40A9D089A14
:20642000B8F1470FA5EB090572D1D31C03DB63689A4240F39880AAF1020A5FFA8AFA531EC8
:20644000002B0893B6BFC2F101032B222D22092B04F1500884F850A004F1520184F851208C
:2064600072DD0DF12F024FF00A0C93FBFCFE0CFB1E33303302F8013C7346092B02F1FF30C0
:206480005BDC303300F8013C023A0DF12F039A42084654D3A0EB080805EB0803012D236128
:2064A00002DC2268D00701D501332361079B002B3FF466AF2D2384F8433061E7059BB8F12A
:2064C000460F09EB030510D199F80030302B0AD100220023DDE9020105F0A2FE18B9059B7F
:2064E000C3F101030893089B1D4400220023DDE9020105F095FE00B10A950A9BAB428DD26E
:206500003022591C0A911A700A9B9D42F9D885E7BAF1650F93D9BAF1660F26D1002A636837
:2065200019DD226113B92168C90702D5013313442361A2654FF00008B8E7024695E712F81C
:20654000010B01F8010BA2E730220846134400F8022B4B709EE713B92168C80701D5023316
:20656000E6E70123E4E74FF0670AAA4205DB23682261D907DDD5531CDAE7002AD4BFC2F1A3
:20658000020301232B44D3E723685A050CD423694A4659463046B84701302ED1FAE600BFE0
:2065A000FFFFEF7FFE120100BAF1650F40F2CF8000220023D4E9120105F032FE002839D053
:2065C00001238C4A59463046B84701303FF4E2AE089BAB4202DB2368D8070ED5069B049AC0
:2065E00059463046B84701303FF4D4AE4FF00008013D04F11A09A84511DB23689D0708D51F
:20660000002504F11908E3680A9A9B1A9D42C0F2DB80E0680A9B9842B8BF1846BCE601234D
:206620004A4659463046B84701303FF4B3AE08F10108E0E7089B002B2ADC01236D4A5946DA
:206640003046B84701303FF4A5AE089B1BB915B92368D907D1D5069B049A59463046B84765
:2066600001303FF497AE4FF0000804F11A0A089B5B42984501DB2B468AE7012352465946DB
:206680003046B84701303FF485AE08F10108EEE7A36DAB42A8BF2B46002B984634DC04F134
:2066A0001A034FF0000A28EAE8780593A36D0293A3EB08039A452EDB089BAB4236DB236818
:2066C000DA0733D4029BA5EB0308089BEB1A9845A8BF9846B8F1000F30DC4FF0000928EAB2
:2066E000E87804F11A0A089BEB1AA3EB0803994583DA0123524659463046B84701303FF471
:2067000049AE09F10109EEE74A4659463046B8470130C4D13EE60123059A59463046B84744
:2067200001303FF437AE0AF1010ABFE7069B049A59463046B8470130C4D12BE6029A434615
:206740004A4459463046B8470130C6D122E6012D01DCDB0735D501234A4659463046B84708
:2067600001303FF417AE069B049A59463046B84701303FF40FAE00220023D4E9120105F072
:206780004FFD013D48B14FF0000904F11A0AA9450CDB434604F15002FBE62B4609F1010221
:2067A00059463046B8470130F3D1F3E50123524659463046B84701303FF4ECAD09F1010927
:2067C000E5E701234A46EBE70123424659463046B84701303FF4DEAD013514E7DDE902239C
:2067E000104619460BF0E8FC00283FF4D8AD024BB9E500BF0A130100061301002DE9F04FEE
:20680000C5B006460F4603A909F04CF810B945B0BDE8F08F0399C1EB411189000431B84C3B
:2068200038222144304609F0ABF80399C1EB411304EB83046368B3F1FF3F00F0C281C1EBE9
:206840004113B04A02EB83030124A14653F8042FB2F1FF3F09D001340E2CF6D1AA4B1B7875
:20686000032B07D84FF00E090BE0A74B1B78032B04D901E04FF00E09012937DD002C40F366
:20688000A78104F1FF3A4FF0000806F5805301930399C1EB411189004031994D38222944B8
:2068A000184609F06DF80399C1EB411305EB83052B6CB3F1FF3F00F09D81C1EB4113934AA4
:2068C00002EB83030125009553F8042FB2F1FF3F24D001350E2DF6D18B4B1B78032B22D86E
:2068E0000E23009326E04FF000094C46402130460CF0BAFE64200BF0DBFCBFE74FF4807238
:2069000004A906F5007009F03BF84FF4807104A80BF068FC80464FF0000AB6E77A4B1B78F0
:20692000032B04D901E00E230093012938DD002D40F3678105F1FF3B002C77D0002D00F060
:206940008880B8F1000F40F0B5804046039BC3EB431353446A4A02EB830206F50053526825
:206960009A4280F08780002800F06981BAF10E0F00F27281039B624AC3EB431303EB0A01CE
:2069800002EB81014968396002EB8301012002F823004FEA8903CB632BE0002300931D4678
:2069A000402101980CF060FE64200BF081FCBEE74FF4807204A906F5905008F0E1FF4FF40A
:2069C000807104A80BF00EFCB8F1000F00F02B81002800F06A8106F580733B600398484B07
:2069E0004201111A89005C1801255D540021E163A16738680AF00EF8002840F0AB8009F0CC
:206A0000FBF843480CF0CCFB30460BF04BF906F580763E6003983A4B4201111A89005C1866
:206A200001255D540021E163A167F0E6B8F1000F40F0028106F580733B600398304B4201EF
:206A4000111A89005C1801255D540021E163A167CFE706F588533B60039C294B6201111B01
:206A600089005D1800205854E863A867C1E74FF0000B66E7002009F0BFF8214C039BC3EB2A
:206A80004313534404EB8303019A596821480BF0EBF930460BF006F906F580733B6003995B
:206AA0004B015A1A9200A0180125A5540022C26382679EE7002056E7002009F09DF8104D90
:206AC000039BC3EB43135B441033224655F8231011480BF0C9F930460BF0E4F806F58073F9
:206AE0003B6003994B015A1A9200A8180124AC540022C26382677CE74FF0000B36E700BF6F
:206B000070100020741000206C100020B0100020848C0000E48B0000208C00006A4B1B7842
:206B2000012B05D9022009F067F868480CF038FB30460BF0B7F806F580733B600398644BFF
:206B40004201111A89005C1801255D540021E163A1674EE74FF4807204A9386808F010FFC8
:206B60004FF4807104A80BF03DFB00287FF44FAEFE2104A809F024FF05469DF80F319DF8CE
:206B80000E4104EB0324A4B2A0423FF440AE002009F032F82A4621464E480BF065F93046B8
:206BA0000BF080F806F580763E600398484B4201111A89005C1801255D540021E163A167F6
:206BC00025E6414B1B78032B61D84FF000094C464FF4807204A9B01808F0D2FE4FF48071A4
:206BE00004A80BF0FFFA804600287FF487AE4FF0000A4AE6344B1B78032B4FD800230093C9
:206C00001D464FF4807204A906F5885008F0B8FE4FF4807104A80BF0E5FA00287FF4C8AEE3
:206C20004FF0000B88E6002C3FF404AF002D41D04FF0000B8AE6A346002D3FF40AAF06F595
:206C40000054039BC3EB43135B441033204A52F82330A342BFF430AFB8F1000F3FF45EAFE6
:206C6000BBF10E0F3FF65AAF039B194AC3EB431303EB0B01103152F82110396002EB830148
:206C8000002002F82300009B9B008B67B1E601297FF729AE4FF000094C4699E701297FF787
:206CA0007CAE002300931D46ABE7002CC3D0002D7FF4DDAE00283FF4CCAEB8F1000F7FF415
:206CC0001BAF4FF0000B41E66C1000205C8C000070100020A88C000070B54FF0FF0C4CF472
:206CE000E06C1CEA11541DBF1CEA135594EA0C0F95EA0C0F00F0DEF82C4481EA030621EAAB
:206D00004C5123EA4C5350EA013518BF52EA033541F4801143F4801338D0A0FB02CE4FF02D
:206D20000005E1FB02E506F00042E0FB03E54FF00006E1FB03569CF0000F18BF4EF0010E57
:206D4000A4F1FF04B6F5007F64F5407404D25FEA4E0E6D4146EB060642EAC62141EA55511A
:206D60004FEAC52040EA5E504FEACE2EB4F1FD0C88BFBCF5E06F1ED8BEF1004F08BF5FEAEF
:206D8000500E50F1000041EB045170BD06F0004646EA010140EA020081EA0301B4EB5C049E
:206DA000C2BFD4EB0C0541EA045170BD41F480114FF0000E013C00F3AB8014F1360FDEBF80
:206DC000002001F0004170BDC4F10004203C35DA0C341BDC04F11404C4F1200500FA05F300
:206DE00020FA04F001FA05F240EA020001F0004221F0004110EBD37021FA04F642EB06015B
:206E00005EEA430E08BF20EAD37070BDC4F10C04C4F1200500FA04F320FA05F001FA04F208
:206E200040EA020001F0004110EBD37041F100015EEA430E08BF20EAD37070BDC4F12005CF
:206E400000FA05F24EEA020E20FA04F301FA05F243EA020321FA04F001F0004121FA04F272
:206E600020EA020000EBD3705EEA430E08BF20EAD37070BD94F0000F0FD101F00046400014
:206E800041EB010111F4801F08BF013CF7D041EA060195F0000F18BF704703F00046520076
:206EA00043EB030313F4801F08BF013DF7D043EA0603704794EA0C0F0CEA135518BF95EAF2
:206EC0000C0F0CD050EA410618BF52EA4306D1D181EA030101F000414FF0000070BD50EAF5
:206EE000410606BF1046194652EA430619D094EA0C0F02D150EA013613D195EA0C0F05D132
:206F000052EA03361CBF104619460AD181EA030101F0004141F0FE4141F470014FF000009B
:206F200070BD41F0FE4141F4780170BD70B54FF0FF0C4CF4E06C1CEA11541DBF1CEA135529
:206F400094EA0C0F95EA0C0F00F0A7F8A4EB050481EA030E52EA03354FEA013100F0888084
:206F60004FEA03334FF0805545EA131343EA12634FEA022245EA111545EA10654FEA0026E2
:206F80000EF000419D4208BF964244F1FD0404F5407402D25B084FEA3202B61A65EB030585
:206FA0005B084FEA32024FF480104FF4002CB6EB020E75EB030E22BFB61A754640EA0C00FB
:206FC0005B084FEA3202B6EB020E75EB030E22BFB61A754640EA5C005B084FEA3202B6EB5C
:206FE000020E75EB030E22BFB61A754640EA9C005B084FEA3202B6EB020E75EB030E22BF0B
:20700000B61A754640EADC0055EA060E18D04FEA051545EA16754FEA06164FEAC30343EA16
:2070200052734FEAC2025FEA1C1CC0D111F4801F0BD141EA00014FF000004FF0004CB6E769
:2070400011F4801F04BF01430020B4F1FD0C88BFBCF5E06F3FF6AFAEB5EB030C04BFB6EBCB
:20706000020C5FEA500C50F1000041EB045170BD0EF0004E4EEA113114EB5C04C2BFD4EB09
:207080000C0541EA045170BD41F480114FF0000E013C90E645EA060E8DE60CEA135594EADA
:2070A0000C0F08BF95EA0C0F3FF43BAF94EA0C0F0AD150EA01347FF434AF95EA0C0F7FF4F1
:2070C00025AF104619462CE795EA0C0F06D152EA03353FF4FDAE1046194622E750EA410612
:2070E00018BF52EA43067FF4C5AE50EA41047FF40DAF52EA43057FF4EBAE12E72DE9F04FC2
:207100009FB00C4617460393064618B183690BB909F02CF89C4B9C4258D17468A3891907E3
:207120005ED52369002B5BD000230B9320238DF831304FF0010930238DF83230CA46B846BF
:20714000454615F8013B002B55D1B8EB070B0BD05B463A462146304609F0FAFE013000F06A
:20716000BE810B9B5B440B9398F80030002B00F0B68100234FF0FF320693099307920893DF
:207180008DF85B301C9305222978804807F0A0F805F10108069B002831D1DA0644BF202222
:2071A0008DF85B201F0744BF2B228DF85B202A782A2A2CD0099A00210A20A846013598F8C5
:2071C0000030303B092B70D971B326E0704B9C4201D1B468A2E76F4B9C4208BFF4689DE71E
:2071E0002146304606F096F800289DD04FF0FF301FB0BDE8F08F252BA7D0A846A0E7634A4F
:20720000801A09FA00F0184306904546BBE7039A111D12680391002A01DB099204E05242D1
:2072200043F002030992069398F800302E2B10D198F801302A2B08F101013AD1039B1A1DF7
:207240001B680392002BB8BF4FF0FF3308F102080793514D98F800100322284607F038F86E
:2072600040B14023401B03FA00F0069B0343069308F1010898F8001048488DF830100622D3
:2072800007F026F808F10107014628B303AB00932246434B06A93046FFF71CF8421C00F002
:2072A0001E810B9B18440B9049E700FB0232012183E70023079318460A258846013198F8CD
:2072C0000020303A092A03D9002BC2D00790C0E705FB00200123F0E79DF83020692A0ED0A9
:2072E00016D8582A00F0B48005D8002A00F0D7808DF85A2028E0632A20D0642AF8D1069A31
:20730000039B12F0800F24D01A1D03921B6828E0732A00F0C88008D86F2A2BD0702AE7D158
:20732000069B43F02003069303E0752A22D0782ADED178238DF85D301A498CE0039B1A1DA7
:207340001B6803928DF85A30CDF828A00DF15A05B6E012F0400F03F104020392D6D0B3F954
:207360000030002B03DA2D225B428DF85B200E490A222AE00699039B11F0800F16D0191D73
:2073800003911B6819E000BF542901002E13010074290100342901003413010038130100CE
:2073A000510F01001D1301000C13010011F0400F03F104010391E4D01B884F496F2A0CBFEB
:2073C00008220A2200208DF85B00079D0895002D0DF15B0EC0F28980069820F0040006907F
:2073E000002B50D1002D40F082807546082A0BD1069BD80708D50A9B079A9A42DEBF3023AA
:2074000005F8013C05F1FF35AEEB05030A933B4B009305AA234606A9304605F0ABFD0130A6
:207420005DD00A9B2A462146304609F091FD013055D0069B990705D50025059A099B9B1A18
:207440009D4241DB059B09989842B8BF184625E729498DF85D20039B069A181D12F0800FBD
:20746000039001D01B6802E05006FBD51B88D50744BF42F0200206921BB9069A22F0200207
:20748000069210229EE77546B3FBF2F002FB1033CB5C05F8013D03460028F5D1A6E70A9250
:2074A0000DF15B05B3E7039B1A1D03921D68079A284606F00DFF08B1401B0790079B0A93EA
:2074C00000238DF85B30A2E701230DF131022146304609F03DFD013001D00135ADE7A38993
:2074E0005B063FF583AE0B9882E6002BCBD11EAD0B7805F81E3D79E70C130100510F01006D
:207500002DE9F04F8BB08B7843B382468846CB7873B30D79492D33D8002D00F091814B1D45
:20752000820102F12700B5490844089014320A4409924FF00009CDF80090CDF81C90CDF8CA
:207540000C90CDF80890CDF80490CDF81890CDF81490CDF8109001EB8A1BD3E0002008F042
:207560004BFBA7480BF01CFE24200BB0BDE8F08F002008F041FBA3480BF012FE2420F4E735
:20758000002008F039FBA0480BF00AFE2420ECE7132C10D854B10133601E56FA80F0099A5C
:2075A00013F8011F02F8011F9842F9D18BF83B40012304939FE0002008F01EFB93480BF0A3
:2075C000EFFD2420D1E7132C11D86CB10133601E56FA80F0089A13F8011F02F8011F834260
:2075E000F9D10123059386E00123059383E0002008F002FB86480BF0D3FD2420B5E7012CC5
:2076000002D19B78012B76D0002008F0F5FA81480BF0C6FD2420A8E7022C05D19A78432A2E
:2076200002D1DB78432B66D0002008F0E5FA7A480BF0B6FD242098E7012C05D19B78022B13
:2076400002D80123069356E0002008F0D5FA73480BF0A6FD242088E7012C05D19B78032B26
:2076600002D80123019346E0002008F0C5FA6C480BF096FD242078E7012C02D101230293DD
:2076800039E0002008F0B8FA66480BF089FD24206BE7022C02D1012303932CE0002008F063
:2076A000ABFA61480BF07CFD24205EE7012C07D193F80290B9F1FF0F02D0012307931AE01B
:2076C000002008F099FA59480BF06AFD24204CE714B9012300930EE0002008F08DFA5448D8
:2076E0000BF05EFD242040E7002008F085FA394650480AF0B9FB3319C4F1FE04254415F0FC
:20770000FF0533D01E4616F8027B5C787A1E142AEAD801A151F822F091750000AD760000E1
:20772000C7750000FF7500007976000019760000D1760000E976000039760000E976000067
:20774000E9760000E9760000E9760000E9760000E9760000E9760000E9760000E976000031
:20776000E97600005976000093760000009B83B198F80030FF2B07D0504609F0F3FF01229E
:207780002D4B1A700020F0E601222B4B1A700020EBE6019B23BB029B13BB039B03BB069BFB
:2077A000F3B9049B002B4BD0059B002B46D04FEA8A13124AD35C002B6FD102EB8A1393F876
:2077C0003B30ABB14FEA8A1000F128020B4915300A440144504605F043FC48B90020C4E633
:2077E000039B029A0199504607F082F90020BCE6504607F07DFB0020B7E600BF6C0F0020CF
:20780000C48D0000D88D0000EC8D0000008E0000148E0000288E00003C8E0000508E0000AB
:20782000648E0000788E00008C8E0000A08E0000B48E0000C88E00002C020020079B3BB98C
:20784000002008F0D9F916480BF0AAFC24208CE64FEA8A1404F12805124E3544371997F8D8
:207860003B20FF2128460BF093FC04F1150197F83B302A463144504607F06CFF08B90020D2
:2078800073E606F8049001237B70074A82F83930504607F097FF002067E6002065E600BF00
:2078A000DC8E00006C0F00204030002081F0004102E000BF83F0004330B54FEA41044FEA8E
:2078C000430594EA050F08BF90EA020F1FBF54EA000C55EA020C7FEA645C7FEA655C00F0C4
:2078E000E2804FEA5454D4EB5555B8BF6D420CDD2C4480EA020281EA030382EA000083EAA5
:20790000010180EA020281EA0303362D88BF30BD11F0004F4FEA01314FF4801C4CEA1131DD
:2079200002D0404261EB410113F0004F4FEA03334CEA133302D0524263EB430394EA050F9C
:2079400000F0A780A4F10104D5F1200E0DDB02FA0EFC22FA05F2801841F1000103FA0EF2B9
:20796000801843FA05F359410EE0A5F120050EF1200E012A03FA0EFC28BF4CF0020C43FA2A
:2079800005F3C01851EBE37101F0004507D54FF0000EDCF1000C7EEB00006EEB0101B1F5E5
:2079A000801F1BD3B1F5001F0CD349085FEA30004FEA3C0C04F101044FEA445212F5800FEC
:2079C00080F09A80BCF1004F08BF5FEA500C50F1000041EB045141EA050130BD5FEA4C0C34
:2079E000404141EB010111F4801FA4F10104E9D191F0000F04BF01460020B1FA81F308BF40
:207A00002033A3F10B03B3F120020CDA0C3208DD02F1140CC2F10C0201FA0CF021FA02F1C9
:207A20000CE002F11402D8BFC2F1200C01FA02F120FA0CFCDCBF41EA0C019040E41AA2BFC9
:207A400001EB0451294330BD6FEA04041F3C1CDA0C340EDC04F11404C4F1200220FA04F0BE
:207A600001FA02F340EA030021FA04F345EA030130BDC4F10C04C4F1200220FA02F001FA14
:207A800004F340EA0300294630BD21FA04F0294630BD94F0000F83F4801306BF81F4801193
:207AA0000134013D4EE77FEA645C18BF7FEA655C29D094EA050F08BF90EA020F05D054EA04
:207AC000000C04BF1946104630BD91EA030F1EBF0021002030BD5FEA545C05D14000494104
:207AE00028BF41F0004130BD14F580043CBF01F5801130BD01F0004545F0FE4141F47001F4
:207B00004FF0000030BD7FEA645C1ABF194610467FEA655C1CBF0B46024650EA013406BFB0
:207B200052EA033591EA030F41F4002130BD00BF90F0000F04BF0021704730B54FF480640C
:207B400004F132044FF000054FF0000150E700BF90F0000F04BF0021704730B54FF480644A
:207B600004F1320410F0004548BF40424FF000013EE700BF42004FEAE2014FEA31014FEAE6
:207B800002701FBF12F07F4393F07F4F81F06051704792F0000F14BF93F07F4F704730B556
:207BA0004FF4607401F0004521F0004120E700BF50EA010208BF704730B54FF000050AE092
:207BC00050EA010208BF704730B511F0004502D5404261EB41014FF4806404F132045FEA3D
:207BE000915C3FF4DCAE4FF003025FEADC0C18BF03325FEADC0C18BF033202EBDC02C2F19F
:207C0000200300FA03FC20FA02F001FA03FE40EA0E0021FA02F11444C1E600BF2DE9F047EF
:207C200082B00546BC4B93E803000090ADF80410BA4B585D05EBC503B94C04EBC30470B1AB
:207C40002E462146002331F8022B13449BB20A1B92B29042F7D845F65A22934211D0B14BB9
:207C60001B783BB9B049284605F05AFD062002B0BDE8F087012007F0BFFFAC480BF090FA87
:207C8000F0E70522694620460AF0D2FEA8B10422A74920460AF0CCFE78B1A24B1B782BB9E1
:207CA000A449284605F03CFD2220E0E7012007F0A3FFA1480BF074FAF2E76379022B0FD065
:207CC000984B1B782BB99D49284605F029FD2220CDE7012007F090FF99480BF061FAF2E72E
:207CE0002F020F229749394404F108000AF0A0FE78B18C4B1B782BB99349284605F010FD6D
:207D00002220B4E7012007F077FF90480BF048FAF2E707F13302DFF8408202EB08002346E6
:207D200053F817CFD3F804E0996842F808C0C0F804E081609A899B7B8281837308EB052396
:207D4000E16BC3F8A710B4F842E0A3F8ADE0B4F840E0A3F8ABE0618FA3F8A510218FA3F8F2
:207D6000A310E28CA3F89120228DA3F89320628DA3F8952004F12C0E343407F19F0908EB30
:207D800009010023C446F601F2180CEB42023EF802ABA2F897A014F8012B01F8012B01332B
:207DA000042BF1D16A4A12F8253043F0100302F8253068490BF0FEF800285CD1664B03EB94
:207DC0000523002283F8A72083F8A82083F8A92083F8AA205E4B03EB85039A7842F00102E5
:207DE0009A705E4905EB45035B00CA5C42F00202CA544C4B1B78A3BB594901F11402303132
:207E0000284605F08DFC07F19101534A881800238B5083809737B918BB504B6049F80830E0
:207E200002EB052282F8A33082F8A43082F8A53082F8A63082F8A73082F8A83082F8A930FE
:207E400082F8AA3082F8AB3082F8AC3082F8AD3082F8AE3000221146284607F0FDFF00207A
:207E600005E7012007F0C8FE3D4800F11401243009F0FAFFC0E7384B03EB0523012283F889
:207E8000B120334B03EB85039A7842F007029A705A7842F0F8025A709A7842F010029A709E
:207EA0002E4905EB45035B00CA5C6FF34102CA541C4B1B78D3B92A4901F1140201F59E71C9
:207EC000284605F02DFC254905EB45035B00CA5C42F00402CA54134B1B7893B9204901F101
:207EE00038023031284605F01BFCB3E7012007F083FE1B4800F1140100F5987009F0B4FF28
:207F0000D9E7012007F078FE154800F13801243009F0AAFFE2E700BF1493000024330020F0
:207F2000282B00206C100020309300001C9300004093000058930000489300007493000020
:207F400064930000230300209493000084930000500F0020A493000010030020600100203C
:207F6000849200004D54523A4174206C6173742074696C740D0000004D54523A4174206CDD
:207F80006173742074696C74000000004E6F745F43616C696272617465640000436C723AE6
:207FA00025730D0A00000000436C723A257300004163747561746F725F4A616D5F54656DE0
:207FC000700000004163747561746F725F4A616D5F5065726D0000004D54523A4D6F7665C0
:207FE00020746F20656E640D000000004D54523A4D6F766520746F20656E64004D54523ACF
:208000005265616368656420656E640D000000004D54523A5265616368656420656E640020
:208020004D54523A4D6F766520746F20756E77696E640D004D54523A4D6F766520746F20D0
:20804000756E77696E6400004D54523A5265616368656420756E77696E640D004D54523AC3
:208060005265616368656420756E77696E6400004D54523A4D6F766520746F206D61782052
:2080800074696C740D0000004D54523A4D6F766520746F206D61782074696C74000000000C
:2080A0004D54523A4174206D61782074696C740D000000004D54523A4174206D61782074B2
:2080C000696C74004D54523A546F206C6173742074696C740D0000004D54523A546F206C2D
:2080E0006173742074696C74000000004D54523A546F206E65772074696C740D0000000017
:208100004D54523A546F206E65772074696C74004E6F7420436F6E6669677572696E67203C
:2081200025642C204D6F746F7220697320427573790D0A005365742054696C743A204D6F84
:20814000746F72205374617465206E6F742049646C650D0043616C6962726174653A204D5F
:208160006F746F72205374617465206E6F742049646C650D00000000493243427573790D90
:208180000000000049324342757379004552523A4D5452206E6F7420636F6E6669670D0054
:2081A0004552523A4D5452206E6F7420636F6E66696700004D54523A436F6E666967757238
:2081C00065640D004D54523A436F6E6669677572656400004552523A4D7472436667537469
:2081E0006174653A25640D0A000000004552523A4D747243666753746174653A2564000041
:208200004D54523A5374616C6C65640D000000004D54523A5374616C6C6564004D54523A38
:2082200053746F707065640D000000004D54523A53746F70706564004D54523A54696D658A
:208240006F75740D000000004D54523A54696D656F7574005365743A25730D0A0000000090
:208260005365743A257300004552523A4D545253746174652025640D0A0000004552523A06
:208280004D54525374617465202564002DE9F84306460D4614464B78013B9AB2CB78013B2D
:2082A000252B00F24F81DFE813F02600680039013901390139013901390139014D014D0122
:2082C0004D014D014D014D014D014D014D014D014D014D014D014D014D014D014D014D01BE
:2082E0004D014D014D014D014D018B00A200B900E8001701290100023330934FC1192B4656
:2083000053F8048FD3F804C0D3F808E040F80780C1F804C0C1F808E098899B7B88818B7322
:208320000F2A0BD024220E232370012363700023A3702146304609F025F80DE0834A12F83B
:20834000263043F0100302F826300E232370012363700023A370E3707D4B1B78002B40F037
:20836000E580E87805F06AFCE37802467949304605F0D6F90020BDE8F88300022230724FE9
:20838000C1192B4653F8049FD3F80480D3F808C0D3F80CE040F80790C1F80480C1F808C07E
:2083A000C1F80CE01B7C0B74112A01D02422BAE7664A12F8263043F0080302F82630C4E7C6
:2083C0000302423360481F18294651F804EF43F800E08B88BB80062A01D02422A3E75B4ABA
:2083E00012F8263043F0200302F82630ADE70302483355481F18294651F804EF43F800E0C9
:208400000B793B71052A01D024228CE74F4A12F8263043F0400302F8263096E700024D30B8
:20842000DFF8249100EB09012B4653F8048FD3F804C0D3F808E0DF6840F80980C1F804C0A5
:20844000C1F808E0CF60D3F81080D3F814C0D3F818E0DF69C1F81080C1F814C0C1F818E0C0
:20846000CF61202A01D024225DE7384A12F8263043F0800302F8263067E700026D30DFF87B
:20848000C89000EB09012B4653F8048FD3F804C0D3F808E0DF6840F80980C1F804C0C1F8C0
:2084A00008E0CF60D3F81080D3F814C0D3F818E0DF69C1F81080C1F814C0C1F818E0CF61E9
:2084C000202A01D024222EE7204B03EB86035A7842F001025A7038E7A9881B4B03EB0023AC
:2084E000A3F88D10022A01D024221CE7174B03EB80035A7842F002025A7026E7A8883302E7
:2085000015495852022A01D024220CE70F4B03EB86035A7842F004025A7016E70E232370B7
:20852000012363700023A3701D2202E7012007F063FBE87805F082FBE2780146074809F0B5
:2085400093FC0EE71F22EEE610030020500F00206C100020944900009F0300207C490000D0
:20856000F8B5044608B92046F8BD09F069FF0028F9D1631E072BF6D8DFE813F00800A700DB
:208580001B0098008E00F000DF00DA0008F022FC894B1B7833B98949894B187805F0C0F8A5
:2085A0000324E0E7012007F027FB86480AF0F8FDF1E7834B1B78844AD25C844B03EB0213CF
:2085C0005B7A012BCFD0824A538812889B1ADBB2804A13703F2BC6D940227F497C4806F03E
:2085E00049FC7E4B1B78002B00F0D0807A4F7C4D07F1400E3E460FCE28606960AA60EB6090
:20860000374610357645F5D10522764974480AF00FFAD0B1684B1B7883B9694C7249207867
:2086200005F07EF80122714B1A702178704B03EB81035A702222DA70002494E7012007F091
:20864000DBFA6C480AF0ACFDE7E7654B5B79012B00F09180584B1B7883B9594C6649207811
:2086600005F05EF80122614B1A702178604B03EB81035A702222DA70002474E7012007F0B1
:20868000BBFA5E480AF08CFDE7E753495C4B186808F014FA052466E7594C4F49206809F031
:2086A000EDF923684033236004245CE7494B1B783F2B5ED9424B1A784D4B03EB82030122D3
:2086C0005A700022DA7003244DE73B4B1B78A3B94C493B4B187805F023F8414BDA6B4A4B73
:2086E0001B689A4210D0344B1B78D3B94749344B187805F015F8062435E7012007F07CFA28
:2087000043480AF04DFDE3E7424C10222146424807F036F9A368B3F1FF3F0CBF07240824DA
:2087200021E7012007F068FA3C480AF039FDDDE73B4808F019F8072415E73649284BDA6B55
:20874000CA609B6B8B6000240C604C601022324806F078FD0122334B1A7004E7002007F07E
:208760004BFA31480AF01CFD2D4807F0FDFF0024F9E60324F7E61A4BD3F806202B4B1B686A
:208780009A420BD90022154B1A70ECE6144BD3F80620264B1B689A423FF677AF0122134B3F
:2087A0001A70074B1978124B03EB81035A700022DA700624D7E600BF6C100020C0C600007F
:2087C0007F330020A4C600005401002040300020E001002083330020103100208633002047
:2087E000EC010020D8C60000F4C60000D801002044010020E0C6000018C7000004C7000066
:20880000F832002040C70000DC01002068C7000028C70000DC310020F0FF030058C70000AE
:20882000FFFF0300EA01002074C70000FC3200202DE9F04F099F15469C4604468846002B26
:2088400040F0CD808A424CD9B2FA82FEBEF1000F0BD0CEF1200802FA0EF520FA08F801FAEA
:208860000EF248EA020800FA0EF44FEA1549ABB2B8FBF9FA260C09FB1A820AFB03FB46EA21
:20888000024293451ED952190AF1FF3004D2934502D9AAF102002A44A2EB0B02A4B2B2FBFF
:2088A000F9F609FB162206FB03F144EA024399420AD95B1906F1FF3207D2994205D9B21E69
:2088C0002B4402E05046E7E732465B1A42EA004027B123FA0EF33B6000237B606146BDE8AF
:2088E000F08F12B90125B5FBF2F5B5FA85FEBEF1000F2ED14A1B4FF0010C2E0CABB2B2FB8D
:20890000F6F8210C06FB182208FB03F941EA0242914560D9521908F1FF3004D2914502D96A
:20892000A8F102002A44A2EB0902A4B2B2FBF6F806FB182208FB03F144EA024399424CD900
:208940005B1908F1FF32C0D29942BED9A8F10202B6E7CEF1200421FA04FC01FA0EF220FA28
:2089600004F405FA0EF544EA02064FEA154800FA0EF4BCFBF8F1AAB208FB11CC300C01FB21
:2089800002F940EA0C43994521D95B1901F1FF3003D2994501D9881E2B44A3EB0903B6B252
:2089A000B3FBF8F908FB193309FB02F146EA034291420ED9521909F1FF3C04D2914202D97F
:2089C000A9F1020C2A44521A4CEA004C95E70846E3E7CC46F7E74046A5E7424675E78B424C
:2089E00006D90FB187E803004FF0000C604675E7B3FA83F68EB98B4201D382420BD8841AC6
:208A000061EB030201209046002F6BD087E810014FF0000C62E73046F6E7C6F1200EB34065
:208A200022FA0EF51D4321FA0EFB02FA06F401FA06F220FA0EF10A434FEA15491FFA85F817
:208A4000BBFBF9FA4FEA124C09FB1ABB0AFB08F14CEA0B4C614500FA06F33FD91CEB050CA9
:208A60000AF1FF3004D2614502D9AAF10200AC44ACEB010C92B2BCFBF9FA09FB1ACC0AFB67
:208A800008F842EA0C4188452AD949190AF1FF3204D2884502D9AAF10202294442EA004009
:208AA000A1EB0801A0FB04894945C246CC4602D306D1434504D2B8EB040A69EB050C0138F8
:208AC00087B1B3EB0A0261EB0C0303FA0EFEF2404EEA0202F34087E80C0099E75046C7E770
:208AE0005246DBE7BC46F9E6626173654164647265737320746F6F206C6F7720256C5820CD
:208B00003C20256C580D0A00626173654164647265737320746F6F206869676820256C585D
:208B2000203E20256C580D0A00000000686561646572496E646578206572726F7220256463
:208B4000203E2025640D0A005374617274204164647265737320616C6C204646730D00007E
:208B6000537461727420416464726573732062656C6F772062617365206164647265737307
:208B80000D000000537461727420416464726573732061626F7665206D6178206164647286
:208BA0006573730D000000004D656D5374617274206F7574206F662072616E676520256CE5
:208BC000580D0A00426164206572617365207061676573204164647265737320256C580DC3
:208BE0000A0000005245542048656164657220616464726573732031206F7574206F662033
:208C000072616E676520256C58203E20256C582C20657261736520626F74680D0A00000097
:208C20005245542048656164657220616464726573732032206F7574206F662072616E6753
:208C40006520256C58203E20256C582C20657261736520626F74680D0A00000052455420F4
:208C60004865616465722073746174757320756E6B6E6F776E2C20657261736520626F74F6
:208C8000680D00004D656D3A2042616420537461727420416464726573732C2065726173D4
:208CA0006520626F74680D0073746F7261676520636865636B73756D206572726F7220257E
:208CC0005820213D2025582C20657261736520626F74680D0A0000004261642053746F7212
:208CE000616765204164647265737320256C580D0A00000042616420526561642053746F48
:208D000072616765204164647265737320256C580D0A0000726561642073746F72616765FD
:208D200020636865636B73756D20255820213D2025580D0A0000000056656E646F72204122
:208D400064647265737320746F6F206C61726765203078256C580D0A0000000056656E649C
:208D60006F72204164647265737320746F6F20736D616C6C203078256C580D0A000000BFFA
:208D80004552523A524554496E6465782025640D0A0000004552523A524554496E64657807
:208DA00020256400494E56414C49445F534652414D450D00494E56414C49445F5546524145
:208DC0004D450D00464920464F524D4154204552524F520D00000000474920464F524D41A0
:208DE00054204552524F520D00000000474C20464F524D4154204552524F520D0000000035
:208E000055494420464F524D4154204552524F520D000000424D20464F524D4154204552A1
:208E2000524F520D0000000044494420464F524D4154204552524F520D00000056494420BE
:208E4000464F524D4154204552524F520D000000564552494420464F524D41542045525226
:208E60004F520D0050494420464F524D4154204552524F520D0000003347505020464F52A6
:208E80004D4154204552524F520D0000535620464F524D4154204552524F520D00000000F0
:208EA00041494420464F524D4154204552524F520D00000052494420464F524D4154204517
:208EC00052524F520D000000496E76616C6964205049203D2025580D0A00000046454C4C8C
:208EE000205448524F55474820464F524D4154204552524F520D0000474C20464F524D4169
:208F0000545F4552524F520D00000000504C545820464F524D41545F4552524F520D0000E0
:208F2000504C525820464F524D41545F4552524F520D000057535420464F524D41545F4581
:208F400052524F520D00000057535220464F524D41545F4552524F520D000000496E766156
:208F60006C69642046490D00496E76616C69642047490D0048444C4320534E524D206C650C
:208F80006E67746820256420213D20320D0A00004552523A48444C433A4672616D65547960
:208FA00070652025640D0A004552523A48444C433A4672616D65547970652025640000006E
:208FC0004552523A48444C433A466F726D61740D000000004552523A48444C433A466F7204
:208FE0006D617400525820252E32643A20000000545820252E32643A200000002530325834
:20900000200000000D0000BF69735472616E736D6974446F6E6520696E646578203E204DAD
:2090200041585F414953475F504154480D00000072657365745472616E736D6974446F6EE5
:209040006520696E646578203E204D41585F414953475F504154480D000000007365745453
:2090600072616E736D6974446F6E6520696E646578203E204D41585F414953475F50415409
:20908000480D00007374617274356D7354696D657220696E646578203E204D41585F4149B2
:2090A00053475F504154480D00000000686173456C6170736564356D7320696E6465782016
:2090C0002564203E204D41585F414953475F504154480D0A00000000494E56414C49442056
:2090E000545820494E4445583A2025640D0A000075617274206572726F7220696E646578F4
:20910000206572726F720D00777269746520627974657320696E646578206572726F720DF7
:20912000000000004C454420696E646578206572726F720D0000000049324320427573794A
:2091400020696E646578203D2025640D0A0000004932432057616974206E65766572206582
:209160006E64732025642025640D0A0049324320577269746520636173650D0049324320B1
:2091800052572053746174650D0000005475726E4D6F746F72506F7765724F6E20696E6419
:2091A0006578206572726F722025642C207475726E696E67206F66660D0A00002530386C21
:2091C000582530386C582530386C582530386C580000000041495347205441534B20646FDA
:2091E0006573206E6F7420686176652069646F6C2073746174650D0069735461736B496430
:209200006F6C20496E76616C696420696E6465783A2025640D0A00005253545F5057525FAA
:209220004F4E00005253545F42524F574E5F4F55540000005253545F5057525F44574E5F62
:2092400045585452000000005253545F5741544348444F47000000005253545F494E53548C
:209260005F525354000000005253545F4558545F50494E5F525354005253545F554E4B4E1B
:209280004F574E00554E4B4E4F574E5F48575F5645525300434300004E6F745F436F6E6671
:2092A00069677572656400005365743A25730D0A000000005365743A257300004E6F745F8B
:2092C00043616C69627261746564000050617273205461736B20627573790D0050617273D4
:2092E000205461736B2062757379000050524D533A434F4E46494720446F6E650D000000F3
:2093000050524D533A434F4E46494720446F6E650000000043434143460000004346473A1B
:20932000426164436865636B73756D0D000000004346473A426164436865636B73756D00A2
:2093400041434652000000004346473A426164547970650D000000004346473A42616454CC
:20936000797065004346473A42616456657273696F6E0D004346473A426164566572736981
:209380006F6E00004346473A42616450726F64230D0000004346473A42616450726F642351
:2093A000000000004E6F7420436F6E666967757265640000436C723A25730D0A000000004C
:2093C000436C723A2573000025730D0A00000000257300004552523A53746F726564524528
:2093E000540D00004552523A53746F72656452455400000053746F7265642056524554209B
:20940000436865636B73756D203078255820213D20307825580D0A004552523A53746F722F
:209420006564524554496E6465780D004552523A53746F726564524554496E6465780000FC
:2094400053746F726564205652455420696E64657820256420213D2025640D0A000000001B
:20946000567265742025643A204149534720696E646578206F7574206F662072616E676552
:2094800020307825582C20617373756D696E67206F66660D0A000000446F6E2774205361D2
:2094A00076652042616420436F6E6669672046696C650D004552523A506172616D4361735C
:2094C000650D00004552523A506172616D43617365000000504152414D2043415345202598
:2094E00064204E6F742056616C69643A2025640D0A0000BF2DE9F04317460A7E85B06E2AF3
:20950000984606460C460C9B01F1430E00F0BC801AD8632A2ED00AD8002A00F0C880582A76
:2095200000F08A8004F1420584F842202AE0642A01D0692AF6D121681A6811F0800F23D0C6
:20954000111D1960136827E0732A00F0B48008D86F2A2AD0702AE5D10A6842F020020A602E
:2095600003E0752A21D0782ADCD1782284F845206E4964E01A6801F14205111D19601368D6
:2095800084F842300123A3E011F0400F02F104011960D7D0B2F90030002B03DA2D225B42FF
:2095A00084F8432062490A2217E02068196810F0800F03D0081D18600B6806E010F0400F4E
:2095C00001F104001860F7D00B8859496F2A14BF0A220822002084F843006568A560002D81
:2095E000C0F29C80206820F004002060002B3FD1002D40F095807546082A0BD12368DA079F
:2096000008D5236962689A42DEBF302305F8013C05F1FF35AEEB05032361CDF800803B46FC
:2096200003AA2146304603F0A5FC013055D14FF0FF3005B0BDE8F08381F845203C4922688D
:20964000186812F0800F00F104051D6001D0036802E05506FBD50388D00744BF42F0200280
:2096600022601BB9226822F0200222601022B1E77546B3FBF2F002FB1033CB5C05F8013D9D
:2096800003460028F5D1B7E708681A68496910F0800F04D0101D18601368196007E010F06E
:2096A000400F02F1040018601368F6D01980002323617546B1E71A68111D196015686268A8
:2096C0000021284604F004FE08B1401B606063682361002384F843309FE723692A463946CF
:2096E0003046C0470130A2D023689B0707D5002504F11909E368039A9B1A9D4205DBE06861
:20970000039B9842B8BF184693E701234A4639463046C04701308AD00135EBE7002BA7D19C
:209720000B7884F8423004F1420565E73F2801002E280100F8B5064614460F231370012345
:209740005370002393704B78012B1AD10D46CB78013B252B00F2D680DFE803F0183A4B6322
:209760006C737A535BD4D4D4D4D4D4D4D4D4D4D4D4D4D4D4D4D4D4D4D4D4D4D4818A93AC8C
:20978000C5CD2422214607F0FDFD1FE0674B03EB00231F68586899686760A060E160998965
:2097A0009B7B2182A3740F23013363700023E3705F4B1B78002B40F0AC80E87804F03EFADA
:2097C000E37802465B49304603F0AAFF0020F8BD594B03EB0023D3F800E05F689868D968F3
:2097E000C4F804E0A760E06021611B7C23751123DAE7524B03EB0023B3F89130A38002237A
:20980000D2E74E4B03EB0023B3F89330A3800223CAE74A4B03EB0023B3F89530A380022320
:20982000C2E7474B03EB00231A685B686260A3600823B9E7434B03EB00231B6863600423FB
:20984000B2E7414B03EB00231B88A3800223ABE73E4B03EB00231B88A3800223A4E73C4BBE
:2098600003EB00231A6862609B88238106239BE7384B03EB00231A6862601B7923720523F8
:2098800092E7354B03EB0023D3F800E05F689868D968C4F804E0A760E0602161D3F810E0E7
:2098A0005F699869D969C4F814E0A761E0612162202379E7294B03EB0023D3F800E05F6887
:2098C0009868D968C4F804E0A760E0602161D3F810E05F699869D969C4F814E0A761E0611F
:2098E0002162202360E7154B03EB0023B3F88D30A380022358E71A4B03EB00231B88A380BF
:20990000022351E7022363701F22214607F03AFD4EE7012006F070F9E87804F08FF9E27831
:209920000146104808F0A0FA47E700BF430300206C100020C0490000320300201003002076
:20994000A7030020AF030020B3030020B503002052030020580300205D0300207D030020AD
:209960009F030020A849000038B504467A4B1B5C002B00F0AA80794A02EB0022B2F9A5005A
:20998000B2F9AF301B1A07EE903AB8EEE77AD2F8A73007EE903AF8EEE77A67EE277AB2F9FA
:2099A000A3301B1A07EE103AB8EEC77AC7EE876AF5EEC06AF1EE10FA7CDB16EE900AFEF7F3
:2099C000D9F80022664BFDF777FF07F017F9654B43F824000022604B1A55634B33F91450E9
:2099E0005E4B03EB0423B3F9A520A91A07EE101AF8EEC77AD3F8A710A03307EE101AB8EE15
:209A0000C77A27EE877AB3F903309B1A07EE903AF8EEE77AC7EE276AF5EEC06AF1EE10FA19
:209A20005ADB16EE900AFEF7A5F800224C4BFDF743FF07F0E3F84D4B43F82400474B03EB89
:209A40000423B3F9AF30AB4254DA444B03EB042393F8B230002B4AD1454B1B5D4BB9454B46
:209A600053F824301844414B43F824000122424B1A553A4B03EB0423012283F8B2203F4B4D
:209A800003EB84039A7842F020029A70374B53F82430344A52F824209B1A394A42F82430EE
:209AA000384B1B78002B50D13749204603F038FE002038BD16EE900AFEF75CF80022284BA4
:209AC000FDF7F8FE07F09AF881E7284B53F82020244B43F8202080E716EE900AFEF74AF887
:209AE00000221F4BFDF7E6FE07F088F8A3E7012BCCD0BEE7194B03EB042393F8B230012B82
:209B000011D0A3B91A4A125D002ABFD0194A52F82420801A154A42F824000121144A11554E
:209B2000002BB3D003E0144A125D002AEED00B4B03EB0423002283F8B220104B03EB840335
:209B40009A7842F020029A70A0E7012006F054F80E4809F025FBA7E7143300201003002014
:209B60000000E03F3C320020D43200202C320020183300200C3200201C330020500F0020DD
:209B80001C3200206C10002000810000EC8000002DE9F04F9DB00D4692460393074618B155
:209BA00083690BB906F0E2FA6F4B9D4256D17D68AB891C075CD52B69002B59D0002309934F
:209BC00020238DF82930DFF8A48130238DF82A304FF001095446264616F8013B002B52D14F
:209BE000B4EB0A0B0BD05B4652462946384607F0AFF9013000F0B380099B5B440993237843
:209C0000002B00F0AC8000234FF0FF3204930793059206938DF853301A93052231785348E9
:209C200004F056FB741C049B002830D1D80644BF20228DF85320190744BF2B228DF8532004
:209C400032782A2A2BD0079A00210A20344601362378303B092B68D971B326E0444B9D425B
:209C600001D1BD68A4E7434B9D4208BFFD689FE72946384603F04EFB00289FD04FF0FF3015
:209C80001DB0BDE8F08F252BAAD03446A3E7A0EB080009FA00F0184304902646BDE7039AE3
:209CA000111D12680391002A01DB079204E0524243F002030792049323782E2B0ED163783B
:209CC0002A2B04F1010134D1039B1A1D1B680392002BB8BF4FF0FF3302340593264E217858
:209CE0000322304604F0F4FA38B14023801B03FA00F0049B03430493013421781F488DF8DD
:209D00002810062204F0E4FA03AB009304F1010A1B4B2A4604A9F0B13846FCF7DBFA421C08
:209D20001DD0099B0344099354E700FB023201218CE70023059318460A260C460131227849
:209D4000303A092A03D9002BC8D00590C6E706FB00200123F1E73846FFF7CCFBDFE7AB8933
:209D60005B068BD409988BE7542901006F30010074290100342901007530010079300100A6
:209D8000510F01004552523A4932433A486172642073746F700D00004552523A4932433ABA
:209DA000486172642073746F700000004552523A4932433A52737444666C740D0000000053
:209DC0004552523A4932433A52737444666C74004552523A4932433A525354506F73746E7D
:209DE0000D0000004552523A4932433A525354506F73746E000000004552523A4932433A13
:209E00005365744D7472506172616D0D000000004552523A4932433A5365744D74725061BA
:209E200072616D004552523A4932433A5365745374616C6C506172616D0D00004552523A7A
:209E40004932433A5365745374616C6C506172616D0000004552523A4932433A5365745056
:209E600073746E0D000000004552523A4932433A5365745073746E004552523A4932433A79
:209E80004765745073746E0D000000004552523A4932433A4765745073746E004552523AED
:209EA0004932433A47657448575374617475730D000000004552523A4932433A47657448D7
:209EC00057537461747573004163747561746F725F4A616D5F5065726D616E656E740D00D7
:209EE0004163747561746F725F4A616D5F5065726D0000005365743A25730D0A00000000A0
:209F00005365743A257300004163747561746F725F4A616D5F54656D706F726172790D005A
:209F20004163747561746F725F4A616D5F54656D700000004552523A4932433A4765744FE8
:209F400054500D004552523A4932433A4765744F545000004552523A4932433A5365744F8C
:209F600054500D004552523A4932433A5365744F545000002DE9F04F9DB0074603938B895D
:209F80001C060E4692460ED50B6963B9402103F085FC3060306120B90C233B604FF0FF30F9
:209FA000C1E0402373610023099320238DF82930DFF8788130238DF82A304FF00109544604
:209FC000254615F8013B002B3CD1B4EB0A0B0BD05B4652463146384603F0D4FD013000F0F3
:209FE0009D80099B5B4409932378002B00F0968000234FF0FF3204930793059206938DF820
:20A0000053301A9305222978484804F061F96C1C049BD8B9D80644BF20228DF85320190777
:20A0200044BF2B228DF853202A782A2A16D0079A00210A202C4601352378303B092B53D902
:20A04000C9B111E0252BC0D02C46B9E7A0EB080009FA00F0184304902546D3E7039A111D3E
:20A0600012680391002A01DB079204E0524243F002030792049323782E2B0ED163782A2B50
:20A0800004F1010134D1039B1A1D1B680392002BB8BF4FF0FF3302340593254D21780322C6
:20A0A000284604F015F938B14023401B03FA00F0049B03430493013421781E488DF828102F
:20A0C000062204F005F903AB009304F1010A1A4B324604A9F0B13846FCF7FCF8421C1DD04A
:20A0E000099B034409936AE700FB02320121A1E70023059318460A250C4601312278303ADF
:20A10000092A03D9002BC8D00590C6E705FB00200123F1E73846FFF7EDF9DFE7B3895B0652
:20A120003FF53CAF09981DB0BDE8F08F5E300100643001006830010085DB000008B56C4BDD
:20A140009B7DB3B16A4B5B8B13F0020F12D0694BFF221A7702225A77664B1B7F5BB2B3F19B
:20A16000FF3F00F09880634B1B7F5BB2052B00F0A98008BD5E4B5B8B13F0010F05D05D4B17
:20A18000FF221A7702225A77E6E7594B5B8B13F0040F05D0574BFF221A7701225A77DBE7CC
:20A1A000544B1B7F5BB2013B032BD5D8DFE803F0110257204F4BDB682BB100214D4B1888EC
:20A1C00005F0A6F9C8E701214A4B188805F0A0F9C2E7484B1B881B0A5B0043F0F103444A43
:20A1E0005362D369002BFCD10322424B1A77B3E7404A5369D268934208D03E4A5168581CB7
:20A200005061CA5C3A4B83F82820A5E7394B1B695BB9374A536843F440335360D369002B77
:20A22000FCD10522334B1A7796E7324B1B887F2B0CD901212F4A11778B4043F400432C4A11
:20A2400053622B4AD369002BFCD185E70321294A11775B0043F00103254A5362F1E7254A18
:20A260001369013B92699A4209D0224B99689A69501C98611E4B93F828308B546CE71C4ABC
:20A28000536843F4E0235360D369002BFCD10522184B1A77E9E70022164B1A77144A5368CA
:20A2A00043F440335360D369002BFCD18322104B1A76104B1B6A002B3FF45BAF0D4A506A24
:20A2C000984708BD0B4B00221A775A778322084B1A761A46538B03F03003102BFAD1054BBE
:20A2E0001B6A002B3FF445AF024A506A984740E7002001415031002008B56C4B9B7DB3B188
:20A300006A4B5B8B13F0020F12D0694BFF221A7702225A77664B1B7F5BB2B3F1FF3F00F027
:20A320009880634B1B7F5BB2052B00F0A98008BD5E4B5B8B13F0010F05D05D4BFF221A77D1
:20A3400002225A77E6E7594B5B8B13F0040F05D0574BFF221A7701225A77DBE7544B1B7F83
:20A360005BB2013B032BD5D8DFE803F0110257204F4BDB682BB100214D4B188805F002F973
:20A38000C8E701214A4B188805F0FCF8C2E7484B1B881B0A5B0043F0F103444A5362D369C9
:20A3A000002BFCD10322424B1A77B3E7404A5369D268934208D03E4A5168581C5061CA5C0F
:20A3C0003A4B83F82820A5E7394B1B695BB9374A536843F440335360D369002BFCD1052299
:20A3E000334B1A7796E7324B1B887F2B0CD901212F4A11778B4043F400432C4A53622B4A1A
:20A40000D369002BFCD185E70321294A11775B0043F00103254A5362F1E7254A1369013BC8
:20A4200092699A4209D0224B99689A69501C98611E4B93F828308B546CE71C4A536843F4C0
:20A44000E0235360D369002BFCD10522184B1A77E9E70022164B1A77144A536843F4403350
:20A460005360D369002BFCD18322104B1A76104B1B6A002B3FF45BAF0D4A506A984708BD68
:20A480000B4B00221A775A778322084B1A761A46538B03F03003102BFAD1054B1B6A002BF0
:20A4A0003FF445AF024A506A984740E7003000407831002038B5624B9B7D13B3604B9B7DF5
:20A4C00013F0010F04D05E4B1B7E13F0010F19D15B4B9B7D13F0040F04D0594B1B7E13F06E
:20A4E000040F42D1564B9B7D13F0020F04D0544B1B7E13F0020F7DD1514B9B7D13F0800FB5
:20A500007FD138BD4F4B9A68DB689A4200F092804C4BDA68511CD9604B498A5CDB687F2B53
:20A5200002D90021474BD960454B9A62454B1B7C002BCDD008F0FEFE424B1B68002BC7D013
:20A54000404A127E42B13F4A52699042C0D33D4A516803209847BBE73A4A52699042B7D1C8
:20A56000384A516803209847B2E7354B9C6AE4B2344B5B6A0133022B28BF0023314A926AC3
:20A580009A421FD02F4A926A9A42ABD02D4A516A2E484454536292F82C30002BA2D008F0B4
:20A5A00091FC284BDB69002B9CD0264A92F83420B2B1244A126B904294D3224A116A0020E4
:20A5C00098478FE71F4AD269002ADBD01D4D296A012090476B6A0133022B28BF0023D1E7C0
:20A5E000184A126B90427FF47DAF164A116A0020984777E7022007F0FDFF0222104B1A75B0
:20A600007AE70F4B1B7E13F0800F3FF47AAF0C4B5B8B13F0070F3FF474AF8022084B1A75C8
:20A62000084BDB691BB1074A116A0220984707F03FFF38BD024B01221A7502229A7575E732
:20A640000034004040000020482D00209033002038B5624B9B7D13B3604B9B7D13F0010F60
:20A6600004D05E4B1B7E13F0010F19D15B4B9B7D13F0040F04D0594B1B7E13F0040F42D1B9
:20A68000564B9B7D13F0020F04D0544B1B7E13F0020F7DD1514B9B7D13F0800F7FD138BDF4
:20A6A0004F4B9A68DB689A4200F092804C4BDA68511CD9604B498A5CDB687F2B02D90021FB
:20A6C000474BD960454B9A62454B1B7C002BCDD008F072FE424B1B68002BC7D0404A127EE0
:20A6E00042B13F4A52699042C0D33D4A516803209847BBE73A4A52699042B7D1384A516806
:20A7000003209847B2E7354B9C6AE4B2344B5B6A0133022B28BF0023314A926A9A421FD091
:20A720002F4A926A9A42ABD02D4A516A2E484454536292F82C30002BA2D008F0E1FB284B8E
:20A74000DB69002B9CD0264A92F83420B2B1244A126B904294D3224A116A002098478FE7ED
:20A760001F4AD269002ADBD01D4D296A012090476B6A0133022B28BF0023D1E7184A126B94
:20A7800090427FF47DAF164A116A0020984777E7012007F02FFF0222104B1A757AE70F4B01
:20A7A0001B7E13F0800F3FF47AAF0C4B5B8B13F0070F3FF474AF8022084B1A75084BDB694B
:20A7C0001BB1074A116A0220984707F095FE38BD024B01221A7502229A7575E70008004388
:20A7E000B0000020C82D00208833002038B5624B9B7D13B3604B9B7D13F0010F04D05E4BCE
:20A800001B7E13F0010F19D15B4B9B7D13F0040F04D0594B1B7E13F0040F42D1564B9B7DDB
:20A8200013F0020F04D0544B1B7E13F0020F7DD1514B9B7D13F0800F7FD138BD4F4B9A686F
:20A84000DB689A4200F092804C4BDA68511CD9604B498A5CDB687F2B02D90021474BD9602A
:20A86000454B9A62454B1B7C002BCDD008F0C8FD424B1B68002BC7D0404A127E42B13F4A38
:20A8800052699042C0D33D4A516803209847BBE73A4A52699042B7D1384A516803209847DE
:20A8A000B2E7354B9C6AE4B2344B5B6A0133022B28BF0023314A926A9A421FD02F4A926A7D
:20A8C0009A42ABD02D4A516A2E484454536292F82C30002BA2D008F027FB284BDB69002BAD
:20A8E0009CD0264A92F83420B2B1244A126B904294D3224A116A002098478FE71F4AD26917
:20A90000002ADBD01D4D296A012090476B6A0133022B28BF0023D1E7184A126B90427FF451
:20A920007DAF164A116A0020984777E7002007F061FE0222104B1A757AE70F4B1B7E13F0D8
:20A94000800F3FF47AAF0C4B5B8B13F0070F3FF474AF8022084B1A75084BDB691BB1074A28
:20A96000116A0220984707F0D9FD38BD024B01221A7502229A7575E700040043E8000020BC
:20A98000482E0020843300204FF086439B7D002B00F0BF8010B54FF08642536803F007034C
:20A9A000127E12F0040F37D04FF08642906A594A5169D26891422FD27BB9564B5A684C1C80
:20A9C0005C6150544FF086431B7E13F0010F46D001224FF086431A752AE04E4B5A684C1CC5
:20A9E0005C6122F811004FF086431B7E13F0010F35D001224FF086431A75464A9369926876
:20AA0000934242D2434A1168581C906131F813204FF086439A6218E04FF08642127E12F0F1
:20AA2000010F1CD001214FF086421175002BE4D1384A9369926893421BD2364A1168581CE4
:20AA40009061CA5C4FF086439A62324B9A699B689A4227D02F4B5A69DB689A424CD04FF0CE
:20AA600086431B7E13F0020F3DD02B4B1B7833BB10BD284B1B69002B45D0FF214FF0864231
:20AA80009162013B234A1361DFE7224B1B69002B39D04FF6FF714FF086429162013B1D4A69
:20AAA0001361D2E71B4B1B69002BD3D101221A4B1A704FF086431B7E13F0020F17D0154BA2
:20AAC0005A69DB689A4212D1124B00221A7707204FF08641087510490A701B6A002BC7D0DD
:20AAE0000C4A506A98470C4B1B78002BC0D002224FF086439A7510BD4FF0864301229A7580
:20AB000004221A75ABE7034B9A699B689A42A1D1CCE77047140000206F33002038B5584B5C
:20AB20009B7DC3B1564B9B7D13F0010F04D0544B1B7E13F0010F0FD1514B9B7D13F0040FF4
:20AB400004D04F4B1B7E13F0040F39D14C4B9B7D13F0800F78D138BD4A4B9A68DB689A4299
:20AB600000F08A80474BDA68511CD96046498A5CDB68B3F5806F02D30021424BD960404BCB
:20AB80009A62404B1B7C002BD6D008F050FB3D4B1B68002BD0D03B4A127E42B1394A526967
:20ABA0009042C9D3374A516803209847C4E7354A52699042C0D1334A516803209847BBE7C9
:20ABC0002F4B9C6AE4B22F4B5B6A0133022B28BF00232C4A926A9A421FD02A4A926A9A422C
:20ABE000B4D0284A516A29484454536292F82C30002BABD008F070F9224BDB69002BA5D0A8
:20AC0000204A92F83420B2B11E4A126B90429DD31C4A116A0020984798E71A4AD269002A3A
:20AC2000DBD0184D296A012090476B6A0133022B28BF0023D1E7134A126B904286D1114A23
:20AC4000116A0020984781E70D4B1B7E13F0800F81D00B4B5B8B13F0070F3FF47CAF8022E9
:20AC6000074B1A75074BDB691BB1064A116A0220984707F02FFC38BD0122014B1A7580E749
:20AC8000000C004378000020141C00208C33002008B507F0E1F901224F4B1A701A465368AE
:20ACA00013F0010FFBD008F05FF84C4A4C4B9A611A46136913F0020FFBD00022494B1A7440
:20ACC00008F052F80122484B5A711A46D37813F0010FFBD0454A404B1A621A46536813F074
:20ACE000040FFBD108F040F8414A3B4B5A621A46536813F0080FFBD108F036F84122364B6D
:20AD0000C3F89C201A46D2F89C3013F0400FFAD008F02AF84122304BC3F8A0201A46D2F80D
:20AD2000A03013F0400FFAD008F01EF841222A4BC3F8A4201A46D2F8A43013F0400FFAD0A8
:20AD400008F012F84122244BC3F8DC201A46D2F8DC3013F0400FFAD008F006F841221E4B54
:20AD6000C3F808211A46D2F8083113F0400FFAD007F0FAFF4122184BC3F80C211A46D2F8A8
:20AD80000C3113F0400FFAD007F0EEFF4122124BC3F810211A46D2F8103113F0400FFAD043
:20ADA00007F0E2FF41220C4BC3F814211A46D2F8143113F0400FFAD007F0D6FF0A4B6FF006
:20ADC0007F421A614FF2FF725A610A4A9A610F221A6208F0DBF808BD001C0040062E80002E
:20ADE00000100040001400400008004001010100010104005682010070B45749CB6823F477
:20AE0000E0631B041B0C43F0BF6343F40133CB60BFF35F8F62B6514BE02283F8032308259A
:20AE20001D6083F80A234FF48060186083F81D234FF000541C6083F829234FF400745C604E
:20AE400083F82E234FF480465E6083F82F234FF400465E6083F830234FF480365E6083F84B
:20AE600031234FF400365E6083F832234FF480265E6083F833234FF400265E6083F8342306
:20AE80004FF480165E6083F835234FF400165E6083F836234FF480065E6083F837234FF4BE
:20AEA00000065E6083F838234FF080765E6083F839234FF000765E6083F83E234FF08046DA
:20AEC0005E6083F83F234FF000465E6083F8402301269E6083F8412302269E6083F84223AC
:20AEE00004269E6083F843239D6083F8442310259D6083F8452320259D6083F846234025CA
:20AF00009D6083F8472380259D6083F848234FF480759D6083F849239C6083F84A239860CF
:20AF200083F84B234FF400649C6083F84C234FF48050986083F84D234FF400559D6083F895
:20AF40006B23DC6083F86C23D8604B6A43F400334B6270BC704700BF00ED00E000E100E0E9
:20AF60002DE9F04F83B0504B1B680021986808F01FF9002006F0B6FB02F04CFD4B4B1B78CF
:20AF8000012B23D9022004F037FE494800F15C020F216C3006F068FF444B1B78012B15D9F9
:20AFA000022004F029FE424800F18401903006F05BFF3E4B1B78012B08D9022004F01CFEEB
:20AFC0003B4800F19C01A83006F04EFF07F05AF806F018FE05F0D8FE06F03AFAFAF7BAFE52
:20AFE00004F044FB4FF0000B324FDFF8D0A0304BBC3301931AE01034444512D0E268002AF1
:20B00000F9D0BB6861685B1A21688B42F3D3237A8AF80030607A90476072BB68636081446D
:20B02000E9E7B9F1000F08D1D7F808B0224E06F1700834464FF00009E0E7BB68A3EB0B0300
:20B0400042F210729342F1D9184B1B78012B0DD9022004F0D1FD154B1B78012B06D9144B52
:20B0600003F1B40006F000FF08F0A8FA0F4D02E01036B44209D02B78012BF9D9717A019821
:20B0800006F0F2FE08F09AFAF2E7084B1B78012B06D9074B03F1C40008F082F808F08EFA78
:20B0A000D7F808B0C2E700BF543300206C10002090D50000200100204030002058010020AF
:20B0C0002DE9F7431D46514B1E6804460F46904626B1B36913B9304605F048F84C4B9C4247
:20B0E00052D17468B8F1020F06D0B8F1010F00F28980002DC0F286802146304605F0B4FCA6
:20B10000616B41B104F14403994202D0304603F0CDF9002363630023A3616360A3891B0639
:20B1200003D52169304603F0C1F9A38923F44A6323F00303B8F1020FA3815DD001AB6A461A
:20B140002146304606F092F8A3891843A0812DBB009D284608F044F8074600284ED1DDF85A
:20B160000090A9453CD14FF0FF30A38943F00203A3810023A36004F14703236023610123BE
:20B18000636103B0BDE8F083224B9C4201D1B468A8E7214B9C4208BFF468A3E7002FD8D08A
:20B1A000B36913B9304604F0E1FFB8F1010F08BFA389276004BF43F00103A381A389276158
:20B1C00013F0080065611BD013F0010018BF6D424FF000031DBFA360A5611846A560D0E7E8
:20B1E000484607F0FDFF07460028BCD0A38943F08003A3814D46D3E70020B6E7A946F5E7F2
:20B20000A060BEE74FF0FF30BBE700BF5433002054290100742901003429010030B40D4662
:20B22000002956D0002854D05049097F002940F099804FF08644646804F00704012C4ED0C1
:20B240004A4908604A6000244C618C610C6100284FD08D60002A50D0444AD3600121434A30
:20B2600011774FF08642127E12F0040F06D04FF08642916A117E11F0040FFAD14FF086414E
:20B280004A8B92B242F004024A830A7E42F080020A76364AD1689268914202D98C1A334D4D
:20B2A0002C614FF08644646814F0070F35D12F4989698A4225D900784FF086429062013135
:20B2C0002A4A9161002B45D101214FF08643997549E0002B44D0002AA6D1002143E015B17C
:20B2E00015F0010F3FD1002BAAD013F0010FA7D039E000241D498C60ACE700211B4AD16021
:20B30000ACE71A4A1269002ADCD0FF204FF086418862013A15490A61D4E75208134CA2605C
:20B3200025696D0825614908E160A1698A4206D900884FF0864290620131A161C2E7002DB2
:20B34000C0D04FF6FF714FF086429162013D074A1561B7E704224FF086439A75012102E0CA
:20B36000002100E00021084630BC70471400002038B54B4B03EB80135B78022B01D032205F
:20B3800038BD0446464B03EB80134A7893F83D30B3EB521F0CD0434B1A5C434B1A54C001F6
:20B3A00042490144424B184407F062FD002038BD404D4A2101FB005503F01EFDD8B93E4BF8
:20B3C00003EB84035B7883BB3B4B13F824306BB1394B03EB84039B78DBB2322B20D0364B7F
:20B3E00003EB84039B78DBB2412B19D0204606F061FB002038BD304B03EB8403DA78EA707A
:20B40000072006F08FF90346002846D02A460021204698472946204603F0E4FA002038BD6F
:20B42000204606F063FB002038BD234B13F824306BB9214B03EB84039B78DBB2322B22D07C
:20B440001D4B03EB84039B78DBB2412B1BD01A4B002203F8242003EB84035A70D9784A2256
:20B46000144802FB0402D170987806F05BF9034670B12A460021204698472946204603F0CA
:20B48000B1FA002038BD204606F014FB002038BD204606F00FFB262038BD262038BD00BFD1
:20B4A0006C0F002004330020003300201422002014200020300200204401002038B50446AF
:20B4C000434B53F82020434B43F82020424B1B78002B63D14149204602F022F9404A02EB57
:20B4E0000422B2F9A510B2F9AF308B42B8BF0B463C4820F8143001253B48055592F8B22068
:20B5000062B1374A02EB0422002082F8B200374A02EB8402907840F0200090705B1A07EE82
:20B52000903AB8EEE77A2E4B03EB0423D3F8A720A03307EE902AF8EEE77A67EE277AB3F9AF
:20B5400003305B1A07EE103AB8EEC77AC7EE876AF5EEC06AF1EE10FA27DB16EE900AFCF7EE
:20B5600009FB0022224BFCF7A7F905F047FB214B53F82430C01A164B43F82400154B53F81E
:20B580002430C01A1C4B43F82400134B1B78BBB91A49204602F0C4F8002038BD012004F0B1
:20B5A0002BFB174807F0FCFD94E716EE900AFCF7E1FA00220E4BFCF77DF905F01FFBD6E77F
:20B5C000012004F019FB0F4807F0EAFDE0E700BF2C3200203C3200206C100020B4800000AB
:20B5E00010030020D432002018330020500F00200000E03F0C3200201C320020D8800000C5
:20B60000A0800000C48000002DE9F0418B7863B1CB789BB10A79492A1CD8C2B10531002620
:20B62000B446B6463746012527E0002004F0E4FA3F4807F0B5FD2420BDE8F081002004F0DA
:20B64000DBFA3B4807F0ACFD2420BDE8F0812420BDE8F081002004F0CFFA364807F0A0FD4F
:20B660002420BDE8F081042B1AD12F46E118C3F1FE03134413F0FF0242D08C1C4B780978DA
:20B6800005390329F2D80FF2080858F821F000BF67B60000B3B60000CDB60000E7B600009F
:20B6A000002004F0A9FA244807F07AFD2420BDE8F081042B01D1AE46D8E7002004F09CFA41
:20B6C0001E4807F06DFD2420BDE8F081012B01D1AC46CBE7002004F08FFA194807F060FD55
:20B6E0002420BDE8F081012B01D12E46BEE7002004F082FA134807F053FD2420BDE8F0814D
:20B7000017B92420BDE8F081BEF1000F02D12420BDE8F081BCF1000F02D12420BDE8F0812B
:20B7200016B92420BDE8F08104F084F8BDE8F081C48D0000F88E00000C8F0000208F000039
:20B74000348F0000488F000010B5044601281CD010B1022867D010BD07F030FF3A4B9A688F
:20B760003A4B1A603A4B1B781BB93A4B1B78002B66D0354B9A68384B1A60002004F03CFA9C
:20B78000364807F00DFD022010BD07F017FF2E4B9B682E4A12689B1A314A1360314A117819
:20B7A00042F2107202FB01F2934211D92E4B1B78012B09D9022004F01FFA2C4B19684A1C7D
:20B7C0001A602B4806F050FB264A137801331370234B1A68274B9A421DD8274B1B7843B15D
:20B7E00000231F4A1360184A9168184A1160224A1370174B1B7813B9164B1B7813B3124B55
:20B800009A68154B1A60002004F0F6F91B4807F0C7FC022010BD002004F0EEF9184807F0EB
:20B82000BFFC0224D9E7084B9B680B4A12689B1AB3F5967F00D810BD06F0EEFE204610BD16
:20B84000204610BD204610BD2001002048330020EA0100202C0200204433002090D5000051
:20B860004C330020943300206C10002050330020A8D5000020BF02000E030020DCD50000C3
:20B88000C4D500000069704700287DD0D0B52DED028B0468404B002908BF1946B1EB440F19
:20B8A00074D307EE901AB8EE678A07EE904AF8EE677A88EE277A17EE100AFCF75BF90646AC
:20B8C0000F4618EE100AFCF755F931A3D3E90023FBF702FA0022314BFBF7EEFF02460B46FB
:20B8E00030463946FBF7E6FF05F09CFF2C4B9C4207D8B0F5FF7F15D801283AD94008002400
:20B9000012E0B0F5BF7F37D2032839D94300254AA2FB03135B08A2FB0020400840EA0320F2
:20B92000012401E00024FF201F490B6823F002030B600A46D369002BFCD180B21A4BD8600D
:20B940001A6822F0407242EA04621A601A6842F002021A601A46D369002BFCD11022124B40
:20B960005A831A46D369002BFCD10120BDEC028BD0BD00240120D7E701244FF67F70D3E75C
:20B98000012440F20120CFE7002070470020EDE748AFBC9AF2D77A3E404B4C0000002440A5
:20B9A000801A0600ABAAAAAA002001418161704700287DD0D0B52DED028B0468404B002982
:20B9C00008BF1946B1EB440F74D307EE901AB8EE678A07EE904AF8EE677A88EE277A17EE23
:20B9E000100AFCF7C7F806460F4618EE100AFCF7C1F831A3D3E90023FBF76EF90022314B64
:20BA0000FBF75AFF02460B4630463946FBF752FF05F008FF2C4B9C4207D8B0F5FF7F15D8CA
:20BA200001283AD94008002412E0B0F5BF7F37D2032839D94300254AA2FB03135B08A2FBDE
:20BA40000020400840EA0320012401E00024FF201F490B6823F002030B600A46D369002BD3
:20BA6000FCD180B21A4BD8601A6822F0407242EA04621A601A6842F002021A601A46D3690A
:20BA8000002BFCD11022124B5A831A46D369002BFCD10120BDEC028BD0BD00240120D7E7C7
:20BAA00001244FF67F70D3E7012440F20120CFE7002070470020EDE748AFBC9AF2D77A3EAC
:20BAC000404B4C0000002440801A0600ABAAAAAA00300040002940F0818010B50446404B7E
:20BAE00003EBC0031B7913F0200F06D13C4B03EBC0035B7913F0080F1BD0002004F07CF85F
:20BB0000384807F04DFB384904EB44035B00CA5C42F01002CA54354B1B78002B3FD1344901
:20BB200001F5AE7201F5BE71204601F0F9FD022010BD2B4B03EBC0035B7913F0040FDCD1D0
:20BB4000274B03EBC0035B7913F0010FD5D1244B03EBC0031B79DB0906D1214B03EBC003A9
:20BB60001B7913F0100F25D0002004F045F8214807F016FB1C4904EB44035B00CA5C42F00A
:20BB80002002CA54194B1B78EBB9194901F5CE7201F5BE71204601F0C3FD032010BD0120E5
:20BBA00004F02AF8124800F5AE7100F5B87006F05BF9B4E70A4B03EBC0031B7913F0080F4B
:20BBC000D2D1002010BD012004F016F8084800F5CE7100F5B87006F047F9D6E70020704747
:20BBE000B8010020C89E0000600100206C100020849D0000089F000030B583B004463C4B38
:20BC00001B78DBB23B4AD35C23B101281FD020B102282FD0204603B030BD354D28780DF144
:20BC2000070107F00DF90028F4D028789DF8071001F028F90028F1D02D4B187804F066FF6B
:20BC40000028E7D02C4B1C7884F00104E2E7284B187805F027FE0028DCD0254C207805F0C9
:20BC60002DFA207802F042F8244B9A68244B1A600224CFE71E4B187806F06AFB68B1214BCA
:20BC80001B7813B101221C4B1A70194C207805F039FA207806F09CFC0024184B9B68184A02
:20BCA00012689B1A872BB5D9174B1B78CBB9104C2078164D05F1400101F032FD002003F0DB
:20BCC0009BFF207805F0D4FF014605F1540006F0CBF8207805F016FA207806F079FC00245C
:20BCE00098E7012003F088FF094807F059FADEE7580100205C010020EA0100202001002088
:20BD0000F43200202C0200206C100020E04100000C42000010B504463D4B1B78002B51D10D
:20BD20003C49204601F0FCFC3B4B03EB0423002183F8B110394B03EB84039A7842F01002E8
:20BD40009A70374B1955374804EB44035B00C25C61F38202C2542E4B1B78002B39D1324911
:20BD600001F128024431204601F0DAFC2D4904EB44035B00CA5C6FF34512CA54244B1B78FF
:20BD80008BBB294901F14C024431204601F0C8FC244904EB44035B00CA5C6FF30412CA5461
:20BDA0001B4B1B784BBB204901F160024431204601F0B6FC1D4B03EB840401236370002054
:20BDC000E07010BD012003F017FF174807F0E8F9A6E7012003F010FF134800F12801383058
:20BDE00006F042F8BBE7012003F006FF0E4800F14C01383006F038F8C3E7012003F0FCFE7E
:20BE0000094800F16001383006F02EF8CBE700BF6C100020787F000010030020500F002045
:20BE20001C33002060010020647F0000440100202DE9F74F14460A6923699A42B8BF0B4671
:20BE40008946BCBFA1461C46D9F81070D4F810A0D9F80830D9F8041007EB0A069E42C8BF2B
:20BE6000013103F0FDFE00F1140505EB86082B460022434516D304F1140209F1140102EB0F
:20BE80008A0301EB87070193019C944213460CD8002E03DD58F8043D002B54D0066103B04F
:20BEA000BDE8F08F43F8042BE3E7B3F800A00432BAF1000F20D0AE4689464FF0000C59F8A0
:20BEC000044BBEF800B0A3B20AFB03B34FEA144BDEF8004063444FEA144C0AFB0BC404EBEC
:20BEE00013449BB243EA04434F454FEA144C4EF8043BE4D8CEF800C032F8029CB9F1000FB5
:20BF00001FD02B68AE468C464FF0000ABCF80040BEF802B009FB04B4A2449BB243EA0A43CB
:20BF20004EF8043B5CF8043BBEF800401B0C09FB034303EB1A4367454FEA134AE6D8CEF871
:20BF400000300435A0E7013EA2E72DE9F74F03690C699C42804600F38280013C01F1140709
:20BF60004FEA840E00F1140657F8245056F8240006EB0E03013507EB0E090193B0FBF5F54C
:20BF800095B34FF0000A3846B446D34650F8042B93B205FB03A34FEA134A9BB2ABEB03039E
:20BFA000120CBCF800B005FB02A213FA8BF34FEA124A1FFA82FBDCF80020CBEB124202EBBA
:20BFC00023429BB243EA024381454FEA224B4CF8043BDBD256F80E3033B9019B043B9E426E
:20BFE0001A4630D3C8F81040404605F08FFE002825DB013530464FF0000E57F8042BD0F85F
:20C0000000C093B2AEEB0303120C13FA8CF3C2EB1C4202EB23429BB243EA0243B9454FEA7F
:20C02000224E40F8043BE8D256F8242006EB84032AB9043B9E421A460BD3C8F81040284697
:20C0400003B0BDE8F08F1268043B002ACAD1013CC5E71268043B002AEFD1013CEAE70020D1
:20C06000EEE770478A892DE9F041054610070C465AD44B68002B05DC0B6C002B02DC002099
:20C08000BDE8F081E66A002EF9D0002312F480522F682B6033D0606DA3895A0705D5636824
:20C0A000C01A636B0BB1236CC01A00230246E66A216A2846B047431CA38906D129681D29CF
:20C0C0004BD82B4ACA40D60747D500226260D9042269226004D5421C01D12B6803B96065DA
:20C0E000616B2F600029CAD004F14403994202D0284602F0DBF900206063BDE8F081216A81
:20C1000001232846B047411CC6D12B68002BC3D01D2B01D0162B01D12F60B0E7A38943F0A0
:20C120004003A381BDE8F0810F69002FA7D093070E6808BF4B690F6018BF0023A6EB0708D0
:20C140008B60B8F1000F9ADD43463A46216AA66A2846B047002807DCA38943F04003A381EB
:20C160004FF0FF30BDE8F0810744A8EB0008E8E7010040204FF0FF3C06E000BF4FF0010CBA
:20C1800002E000BF4FF0010C4DF804CD4FEA410C7FEA6C5C4FEA430C18BF7FEA6C5C1BD06A
:20C1A00001B050EA410C0CBF52EA430C91EA030F02BF90EA020F0020704710F1000F91EAB6
:20C1C000030F58BF994208BF90422CBFD8176FEAE37040F0010070474FEA410C7FEA6C5C9D
:20C1E00002D150EA013C07D14FEA430C7FEA6C5CD6D152EA033CD3D05DF8040B704700BFC5
:20C200008446104662468C461946634600E000BF01B5FFF7B7FF002848BF10F1000F01BD7E
:20C220004DF808EDFFF7F4FF0CBF012000205DF808FB00BF4DF808EDFFF7EAFF34BF01208B
:20C2400000205DF808FB00BF4DF808EDFFF7E0FF94BF012000205DF808FB00BF4DF808EDB3
:20C26000FFF7CEFF94BF012000205DF808FB00BF4DF808EDFFF7C4FF34BF012000205DF8D4
:20C2800008FB00BF2DE9F8430A460168002818BF002914BF012600263AD00546394B002A87
:20C2A00008BF1A46B2EB011F35D300273B460805090B05F0C1FDC0F58030002860D03249DE
:20C2C0000A6822F002020A60CA69002AFCD180B22D4B98816B68022B44D02B490A6842F053
:20C2E000807242EA47320A604A68AB68686803431343EA6813434B60234AD369002BFCD118
:20C30000214A136843F002031360D369002BFCD13046BDE8F883B2EBC10F08D30023C8048B
:20C32000490B05F089FDC0F580300227C5E701EB41039A4222D30846002110EB000841EB55
:20C34000010910EB080041EB09010B0443EA1043040420461946002305F06EFDC0F5803056
:20C360000427AAE7084A136843EA473717605168AB68E86803430B435360BDE70026C7E737
:20C380000026C5E7404B4C00003400402DE9F8430A460168002818BF002914BF012600262E
:20C3A0003AD00546394B002A08BF1A46B2EB011F35D300273B460805090B05F03DFDC0F5E1
:20C3C0008030002860D032490A6822F002020A60CA69002AFCD180B22D4B98816B68022BFB
:20C3E00044D02B490A6842F0807242EA47320A604A68AB68686803431343EA6813434B608C
:20C40000234AD369002BFCD1214A136843F002031360D369002BFCD13046BDE8F883B2EB83
:20C42000C10F08D30023C804490B05F005FDC0F580300227C5E701EB41039A4222D308468E
:20C44000002110EB000841EB010910EB080041EB09010B0443EA10430404204619460023CA
:20C4600005F0EAFCC0F580300427AAE7084A136843EA473717605168AB68E86803430B4321
:20C480005360BDE70026C7E70026C5E7404B4C00000C00432DE9F8430A460168002818BF70
:20C4A000002914BF012600263AD00546394B002A08BF1A46B2EB011F35D300273B4608058F
:20C4C000090B05F0B9FCC0F58030002860D032490A6822F002020A60CA69002AFCD180B218
:20C4E0002D4B98816B68022B44D02B490A6842F0807242EA47320A604A68AB6868680343A3
:20C500001343EA6813434B60234AD369002BFCD1214A136843F002031360D369002BFCD10C
:20C520003046BDE8F883B2EBC10F08D30023C804490B05F081FCC0F580300227C5E701EB42
:20C5400041039A4222D30846002110EB000841EB010910EB080041EB09010B0443EA104356
:20C56000040420461946002305F066FCC0F580300427AAE7084A136843EA473717605168AB
:20C58000AB68E86803430B435360BDE70026C7E70026C5E7404B4C00000800432DE9F84334
:20C5A0000A460168002818BF002914BF012600263AD00546394B002A08BF1A46B2EB011F93
:20C5C00035D300273B460805090B05F035FCC0F58030002860D032490A6822F002020A603A
:20C5E000CA69002AFCD180B22D4B98816B68022B44D02B490A6842F0807242EA47320A6021
:20C600004A68AB68686803431343EA6813434B60234AD369002BFCD1214A136843F00203D7
:20C620001360D369002BFCD13046BDE8F883B2EBC10F08D30023C804490B05F0FDFBC0F590
:20C6400080300227C5E701EB41039A4222D30846002110EB000841EB010910EB080041EB7D
:20C6600009010B0443EA1043040420461946002305F0E2FBC0F580300427AAE7084A136871
:20C6800043EA473717605168AB68E86803430B435360BDE70026C7E70026C5E7404B4C00F4
:20C6A000000400435461736B5F446F776E6C6F6164202020285354415254290D00000000BD
:20C6C0005461736B5F446F776E6C6F616420202028535441525429005232303030000000DD
:20C6E0004552523A44574E3A50434B545950450D000000004552523A44574E3A50434B544F
:20C70000595045004552523A44574E3A56657273696F6E0D000000004552523A44574E3AAC
:20C7200056657273696F6E005461736B5F446F776E6C6F61642020202853544F50290D00E5
:20C740005461736B5F446F776E6C6F61642020202853544F502900004552523A44574E3A72
:20C760004261640D000000004552523A44574E3A426164005461736B5F446F776E6C6F6192
:20C78000642020202845726173696E67206C61737420736563746F7220636F727275707431
:20C7A000656420666C617368290D00000020202020202020202028282828282020202020C4
:20C7C000202020202020202020202020208810101010101010101010101010101004040435
:20C7E00004040404040404101010101010104141414141410101010101010101010101011B
:20C8000001010101010101011010101010104242424242420202020202020202020202020C
:20C82000020202020202020210101010200000000000000000000000000000000000000088
:20C840000000000000000000000000000000000000000000000000000000000000000000D8
:20C860000000000000000000000000000000000000000000000000000000000000000000B8
:20C88000000000000000000000000000000000000000000000000000000000000000000098
:20C8A00000000000000000000000000000FFFEE72DE9F041054614460523137043235370D4
:20C8C000002393704B78002B5AD10F2010712B0203F11302314E3244D2F800C0D2F804E006
:20C8E0009768C4F805C0C4F809E0C4F80D709789927BA4F81170E274112222759A1C324444
:20C90000D2F80080D2F804C0D2F808E0D768C4F81580C4F819C0C4F81DE0C4F82170127CD4
:20C9200084F8252084F82600B33333441F685E689968C4F82770C4F82B60C4F82F10998932
:20C940009B7BA4F8331084F8353084F8360004F13706134B07CBC4F837007160B2601A8875
:20C960009B78B281B3730023E3700E4B1B7863B9E2780D49284600F0D3FE0020BDE8F081B8
:20C980002422214604F0FEFCF7E7012003F034F9E178064805F068FAEAE700BF100300201C
:20C9A000B44200006C100020D8420000C4420000F0B583B005460E460C6804F5807301935A
:20C9C000694602F06FFF074650B305F500539C4229D205F58050844202D2019A904238D9F0
:20C9E000844202D9019A934241D9019B3360009BC3EB43112C4A12F82120002A46D02A4ACB
:20CA00005C0102EB8101C96B6818E31A02EB83020431D16304220DEB020102F013FC002775
:20CA2000384603B0F0BD002003F0E6F821461F4805F01AFA05F58075356000981A4B42018C
:20CA4000111A89005C1801255D540021E163A167E6E705F588553560009C134B6201111BA8
:20CA600089005D1800205854E863A867D8E705F58075356000980C4B4201111A89005C18F5
:20CA800001255D540021E163A167C9E7064A5C01E11A02EB8101896F0844E31A02EB8302D8
:20CAA00004319167B6E700BF70100020A88B0000F8B50D46164604F0B3F904460022324B35
:20CAC0001A542B78FF2B4AD0820130498A5C9A4240D0F8BD832810D0AF2823D1F2B2294615
:20CAE000204604F0C7FA2428F3D1294B1B7853BB2849204600F014FEF8BDF2B229462046EF
:20CB000004F050FEEFE7214B03EB841300225A70204605F0F9FAF8BDF2B22946204600F0B4
:20CB2000BFF8E0E71A4B1B782BB93A461A49204600F0F6FDF8BD012003F05EF83946174872
:20CB400005F092F9F1E7012003F056F8144806F027FBCDE7002BBCD00122124B1A702046CC
:20CB600005F0E8FA687802F0DFFF07464328CAD0B0D80028D0D00128D4D1F2B22946204645
:20CB8000FEF7F6FBAFE700BF003300206C0F00206C100020D48F0000A88F0000908F000017
:20CBA000C08F00000E03002045787420466C6173682057616974205768696C65204275739E
:20CBC00079204572726F720D0000000043616E277420577269746520537461747573203DCC
:20CBE000203078253032580D0A0000004261642045787420466C6173682052656164205302
:20CC0000697A65203D2025640D0A000045585420466C61736820526561642C20627574205D
:20CC2000427573790D0000004261642045787420466C6173682077726974652053697A65D8
:20CC4000203D2025640D0A0045585420466C6173682057726974652C2062757420427573AC
:20CC6000790D000045585420466C61736820436C6561722C2062757420427573790D0000C1
:20CC800045585420466C61736820457261736520416C6C2C2062757420427573790D0000E5
:20CCA000354B03EB80135B78022B01D03220704770B50D4604464B785809C3F342032E4941
:20CCC00001EB841191F83C10994204D0013303F00703994213D0284B03EB841393F83D3070
:20CCE000834211D0254B1A5D254B1A55E00125490144254B184406F0BBF8002070BD20460C
:20CD000004F0F4FE002070BD01311B4B03EB841301F0070183F83C102B790BB1242070BD32
:20CD2000053AEB78D2B2934201D0242070BDA87804F0F8FC0346E0B1144A4A2606FB0426DB
:20CD40003246A91C20469847332805D03146204601F048FE002070BDA9780D4B03EB8402D3
:20CD60009170012203F82420204604F0BFFE002070BD262070BD00BF6C0F002004330020C8
:20CD80000033002014220020142000203002002044010020F8B5064614463323137001238F
:20CDA000537000239370002943D00F464B78022B06D02422214604F0E5FA00252846F8BD6B
:20CDC000B1F9031001F030FA0546274B1B7863B92B46B7F903202549304600F0A1FCADB1FC
:20CDE000332D0CD10023E370E8E7012002F004FF2A46B7F903101E4805F036F8E8E72A46A0
:20CE00002146304604F0BEFA0025D7E7164B1B783BB900221749304600F082FC0023E370E2
:20CE2000CCE7012002F0E8FE0021134805F01CF8EFE7D5780C4B1B786BB92A460F49304652
:20CE400000F06EFC002DB9D02A462146304604F099FA0025B2E7012002F0CEFE2946084892
:20CE600005F002F8E9E700BF6C1000201C4800000448000050480000344800008448000008
:20CE80006848000070B50446354A135C013313547E2924D0334B185C002853D000221A5581
:20CEA00081F02001304D2A5D304B03EBC41399542F4E36F8140005F09DFD26F814002B5DA7
:20CEC0000133DBB213F0800F42D12B55244B1B57002B4FF00000BCBF214B185570BD214B34
:20CEE000185C50B10020185500221F4B1A554FF6FF721F4B23F8142070BD1B4B1B5D012B8F
:20CF0000F2D91B4B33F814204FF2B8039A42EBD1062002F0D3FF154D05EBC415124E325DE9
:20CF2000023AD2B22946012000F00EF900220C4B1A55325D023AD2B229462046FFF7B8FDF3
:20CF40000120D1E77D29ADD10122064B1A5570BD0022054B1A55C043054B23F81400B5E7C5
:20CF600078330020803300207C33002014240020E43200202DE9F04791461F468A680B69C7
:20CF8000DDF820809342B8BF1346C9F8003091F8432006460C4612B10133C9F80030236889
:20CFA000990642BFD9F800300233C9F80030256815F0060507D104F1190AE368D9F80020E1
:20CFC0009B1A9D4229DB94F843302268003318BF012392062ED404F1430239463046C04732
:20CFE000013021D02368E568D9F8002003F00603042B08BFAD1AA36822690CBF25EAE575C3
:20D0000000259342C4BF9B1AED184FF000091A344D451BD10020BDE8F0870123524639464E
:20D020003046C047013003D14FF0FF30BDE8F0870135C2E7E1185A1C302081F84300224424
:20D0400094F8451082F843100233C4E70123224639463046C0470130E6D009F10109D7E711
:20D060002DE9F0479946022B28BF4FF00209B9F1000F55D014780D78314E06EB8016B67803
:20D0800025403440A5424ED10E4696464FEA801808F103082A4F474409F1FF3C51FA8CFCA0
:20D0A00066450DD01EF8014F17F801AB16F8015F254004EA0A04A542F2D00020BDE8F08713
:20D0C000B9F1010F32D99C1E14F0FF0431D09678C4F113058F781A4C04EB8010284484789A
:20D0E00006EA07002640B04226D18C1C0232A84414488044033BDBB2023319448C420CD0FB
:20D1000012F8013F14F8010F18F8015F18402B409842F3D00020BDE8F0870120BDE8F08760
:20D120000120BDE8F0870020BDE8F0870120BDE8F0870120BDE8F0870020BDE8F08700BF01
:20D140006C0F00206B0F00202DE9F0410D46144678B33049284605F06BFC08B9BDE8F08161
:20D16000224629462B4805F083FE2B4B1B78022B05D8002CF2D0284EDFF8B0803AE0032034
:20D1800002F03AFD244B1B78022B3FD92146234804F06AFE06F012FA002CECD11E4B1B780A
:20D1A000022BDBD91E4805F0FBFF06F007FABDE8F0811C49284605F03BFC0028CED02246FF
:20D1C0002946184805F054FE134B1B78022BD0D9032002F011FD104B1B78022B16D92146DE
:20D1E000114804F041FE06F0E9F9D5E7621E12F0FF04D3D03378022BF8D96F1C297840468C
:20D2000004F032FE06F0DAF93D46EFE7002CB2D1BDE8F081C82E00206C100020E48F0000DE
:20D2200004900000482F0020F08F0000FC8F000010B4344B344A1A604FF000621A6102223E
:20D2400083F8402083F8412083F8422083F8432083F8442083F8452083F8462083F84720DA
:20D26000012183F8481083F8491083F84C1083F84D1083F8501083F85110222083F834008E
:20D2800083F8360083F83800204CC3F880404FF44844C3F8904083F8C02083F8C12083F8B7
:20D2A000C22083F8C32083F8C62083F8C72083F8C82083F8C92083F8CC1083F8CD1083F87A
:20D2C000CF1083F8D01083F8D11083F8B600202283F8B72083F8B8000D4AC3F800214FF04E
:20D2E000C052C3F8102183F84C1183F84D1183F8501183F8511183F8360183F838015DF80B
:20D30000044B70470080004100000408004C04006F400418324B70B51D6806460C4625B184
:20D32000AB6913B9284602F021FF2E4B9C420FD16C68B4F90C309AB215072CD4D00611D476
:20D340000922326043F04003A3814FF0FF3070BD254B9C4201D1AC68EBE7244B9C4208BFC1
:20D36000EC68E6E7510712D5616B41B104F14403994202D0304601F099F800236363A38999
:20D3800023F02403A3810023636023692360A38943F00803A38123694BB9A38903F4207366
:20D3A000B3F5007F03D02146304601F0FFFFA28912F001030CD00023A36063695B42A36107
:20D3C000236953B9B4F90C3013F08000BAD170BD920758BF6369A360F2E70020F7E700BF7C
:20D3E00054330020542901007429010034290100F0B4314B4FF48042C3F884214FF4004202
:20D40000C3F884214FF48032C3F884214FF40032C3F884214FF08042C3F884214FF00042A0
:20D42000C3F884210124C3F888410222C3F888210422C3F888210820C3F888011021C3F879
:20D4400088112021C3F888114021C3F888118021C3F888114FF48071C3F888114FF40071B8
:20D46000C3F888114FF48061C3F888114FF40066C3F888614FF48055C3F888514FF400574D
:20D48000C3F88871C3F88C61C3F88C51C3F88041C3F88001C3F880114FF00051C3F88011B8
:20D4A0001368064A13600022116881F3088804498A601847F0BC704700E100E000000020B5
:20D4C00000ED00E070B50E46054618B183690BB902F04CFEAB69AC6813B9284602F046FE6E
:20D4E000284B9C4222D16C68B4F90C309A0406D443F40053A381236E23F400532366A38955
:20D500001B071DD52369DBB1013EA36816F8011F013BA360E9B9002B2EDA22460A21284652
:20D5200000F05EF9013011D00A2070BD164B9C4201D1AC68D8E7154B9C4208BFEC68D3E744
:20D5400021462846FFF7E6FE0028DDD04FF0FF3070BD002B04DAA269934206DB0A2904D0DB
:20D5600023685A1C22601970CFE72246284600F037F90130C9D1E9E723680A205A1C2260AB
:20D58000187070BD5429010074290100342901004C61796572322072657365742066726F83
:20D5A0006D2049646C650D0053434845443A204D61696E2052756E6E696E6720256C640DEA
:20D5C0000A000000496E61637469766974792074696D65722072657365740D004C61796501
:20D5E00072322072657365740D00000020202020202046575F56312E302E3300536F667499
:20D60000776172652056657273696F6E20252E2A730D0A004D6172202035203230323100B4
:20D6200044617465203D2025730D0A0031313A31383A34380000000054696D65203D202564
:20D64000730D0A005441534B530000003A202564000000000D0000BF000000000000F03FDC
:20D66000000000000000244000000000000059400000000000408F40000000000088C34013
:20D6800000000000006AF8400000000080842E4100000000D01263410000000084D79741BC
:20D6A0000000000065CDCD41000000205FA00242000000E876483742000000A2941A6D42A9
:20D6C000000040E59C30A2420000901EC4BCD64200003426F56B0C430080E03779C34143CF
:20D6E00000A0D8855734764300C84E676DC1AB43003D9160E458E143408CB5781DAF1544A4
:20D7000050EFE2D6E41A4B4492D54D06CFF08044F64AE1C7022DB544B49DD9794378EA44AC
:20D7200004280FD80EB42DE9F04F8CB000EB4013284A02EBC3035B88FF2B04D90CB0BDE8D5
:20D74000F04F03B07047044616AB0B932022FF2103A805F01DFD04EB4416F6000836DFF807
:20D760007CA0DAF808301B4D670107EB04094FEAC90905EB0908B8F802003044164A2021E1
:20D78000284402F033F98346C0F1200319460B9B159A019103A805F0D9F9B8F8020058445C
:20D7A0003044019A03A9284405F062FBDAF80830C8F80430012305F80930B8F80230203363
:20D7C0009BB2A8F80230FF2BB8D9204605F06CFEB4E700BF30070020541B01002001002048
:20D7E000F8B50E461446054618B183690BB902F0BDFC274B9C422FD16C68A369A360A38900
:20D80000190733D52369002B30D0B4F90C30F6B29A04374634D523692068C01A63699842E0
:20D8200004DB2146284603F01FF928BBA368013BA36023685A1C22601E7063690130984214
:20D8400004D0A389DB0719D50A2E17D12146284603F00AF990B10FE00E4B9C4201D1AC68C0
:20D86000CBE70D4B9C4208BFEC68C6E721462846FFF750FD0028C8D04FF0FF373846F8BD78
:20D8800043F40053A381236E23F400532366C2E754290100742901003429010070B5CD1C25
:20D8A00025F0030508350C2D38BF0C25002D064601DBA94203D90C233360002070BD05F08D
:20D8C000D4FE234A1468214691B9224C23681BB9304605F05FF820602946304605F05AF8A1
:20D8E000431C26D10C233360304605F0BFFEE4E70B685B1B1AD40B2B0FD90B60CD50CC18BC
:20D90000304605F0B3FE04F10B00231D20F00700C31A1BD05A42E25070BD8C420DBF63686C
:20D920004B686360136018BF0C46E9E70C464968CAE7C41C24F00304A04205D0211A3046EE
:20D9400005F028F80130CDD02560D9E770BD00BF583300205C3300202DE9F0470D4607466C
:20D9600011462846144604F0D1F9061E08D13146384602F075F9012303614661BDE8F0872D
:20D98000A4BF23462C4638466168A6BF1D460026012602F065F92B69C660266905F1140941
:20D9A00004F1140202EB860709EB830800F114054FF0000C52F804AB59F8044B1CFA8AF1E4
:20D9C000A3B2C91A230CC3EB1A4303EB214389B24FEA234CC84541EA0343964645F8043BCA
:20D9E000E8D8BE4505D355F8043D8BB10661BDE8F0875EF8041B1CFA81F31A1402EB1142D2
:20DA00009BB243EA02434FEA224C45F8043BE8E7013EE8E7F8B505F08BF804F091FD00217F
:20DA20001F4805F081FC00211E4805F0E3FC00211D4805F0BBFC00211C4805F05DFC00208D
:20DA400003F060FB012003F05DFB022003F05AFB0120174B1870174B18700023164A1370A7
:20DA6000164A13700224164B1C7002F059FA204602F056FA032002F053FA042002F050FA01
:20DA8000104C114D04F12807802632462946204605F0CAFA0A340135BC42F6D1F8BD00BF4F
:20DAA0006525010089250100AD250100653601009333002092330020EA0100200E030020B6
:20DAC0006C100020A0310020142700202C4B1B68834270B5044651D0436AABB1DB686BB1A7
:20DAE0000025636ADB685959002941D10435802DF7D1636A2046D96800F0D8FC636A1968D0
:20DB000011B1204600F0D2FC616911B1204600F0CDFC616A11B1204600F0C8FCA16B11B1FF
:20DB2000204600F0C3FCE16B11B1204600F0BEFC216C11B1204600F0B9FCE16D11B12046E2
:20DB400000F0B4FCA16D11B1204600F0AFFC616B11B1204600F0AAFCA3697BB1A36A20461F
:20DB60009847A16C51B12046BDE8704005F05DB80E68204600F09AFC3146B5E770BD00BF91
:20DB8000543300202DE9F0478E689E4282460C469146984635D88A8912F4906F31D0256839
:20DBA00009696F1A6569022305EB450595FBF3F508F101033B449D4238BF1D46530531D5B2
:20DBC0002946FFF76BFE064650B90C23CAF80030A38943F04003A3814FF0FF30BDE8F087B1
:20DBE0003A46216905F044F9A38923F4906343F08003A381266165613E44ED1B2660A56077
:20DC00004646464528BF464632464946206804F063F8A3689B1BA36023681E442660002045
:20DC2000BDE8F0872A4603F06DF906460028E1D12169504600F03AFCC7E7704701382528A8
:20DC400030D8DFE800F031131517191B1D1F212F2F2F2F2F2F2F2F2F2F2F2F2F2F2F2F2FE5
:20DC60002F2F2F2F2F2F232527292B2D0F4870470F4870470F4870470F4870470F48704754
:20DC80000F4870470F4870470F4870470F4870470F4870470F4870470F4870470F48704714
:20DCA0000F4870470F4870470F487047D0480000DC480000E8480000F4480000FC4800004E
:20DCC0000849000014490000204900002C4900003849000044490000504900005C4900006C
:20DCE0006849000074490000C44800002DE9F041074603F095F8254B1B5C254A02EBC0187B
:20DD0000244AD15D481CD055234A02EBC7127E205054BBB308F1FF34013B58FA83F84FF681
:20DD2000FF7614F8015F2946304604F063FE06462946384603F06AFB4445F2D1F643B6B24A
:20DD4000F1B2384603F062FB310A384603F05EFB062002F0E5F80F4DEB5D5A1CD2B2EA557B
:20DD60000D4C04EBC7117E20C8540C46384602F0F5FEEA5D21460020FFF7E6F90023EB550E
:20DD8000BDE8F0814FF6FF76D8E700BF0033002014200020743300209425002070B582B097
:20DDA0000C4615461E460022254B1A7003283FD8DFE800F0021422300021224805F090FACB
:20DDC000069B009333462A462146602004F018F9044603F0BBF9204602B070BD0021194882
:20DDE00005F07EFA069B009333462A462146612004F006F90446ECE70021124805F064FAD3
:20DE0000069B009333462A462146602004F0B6F80446DEE700210B4805F056FA069B009360
:20DE200033462A462146612004F0A8F80446D0E7002001F0E1FE044805F0B2F90024C8E7CD
:20DE400092330020D93401007C91000070B50546144631231370012353700023937039B328
:20DE60004B7883B900F086FE06461E4B1B7883B932461D492846FFF753FC96B90023E37055
:20DE80003326304670BD2422214603F07BFA0026F7E7012001F0B0FE3146144803F0E4FF04
:20DEA000E6E732462146284603F06CFA0026E8E7D6780C4B1B786BB932460D492846FFF76C
:20DEC0002FFC002EDDD032462146284603F05AFA0026D6E7012001F08FFE3146054803F06F
:20DEE000C3FFE9E76C10002064470000544700008447000070470000F8B5064614461023A6
:20DF0000137001235370002393704B78032B1BD024274A7995B21E4901EB0621201D04F095
:20DF2000A7FF6B1C63701B0AA3703A462146304603F028FA174B1B78EBB925221649304682
:20DF4000FFF7EEFB0020F8BDB1F80330DBB94A79531EDBB2452B18D895B20D4901EB0021D2
:20DF6000201D04F085FF6B1C63701B0AA370002384F84A30DEE7012001F03EFE2521074899
:20DF800003F072FFD9E71327C3E71327C1E700BF500B00206C100020384300001C430000E7
:20DFA00038B505461446B1F8033053BB4B79013BDBB2452B3BD81123137001235370002314
:20DFC00093704A794878D31C984201D0242219E00631184800EB052004F04AFF284605F09B
:20DFE0005DFA11232370012363700023A370E37012E0012001F000FE25210F4803F034FFBE
:20E000000EE0132211232370012363700023A3702146284603F0B6F9084B1B78002BE8D1A8
:20E02000252207492846FFF77BFB002038BD1322E8E700BF500B0020504300006C100020ED
:20E040006C4300002DE9F0470C464FEA621A236949680AEB0309A3680746164609F10105CB
:20E06000AB4231DB384601F0FBFD0022804600F11403114652452ADB20692AEAEA7A04F167
:20E08000140116F01F0203EB8A0301EB800E22D0C2F1200C00200E689640304343F8040B55
:20E0A00051F8040B8E4520FA0CF0F4D8186008B109F10205013D3846C8F81050214603F0EB
:20E0C0001AFF4046BDE8F08701315B00C8E743F822100132CEE7043B51F8042B43F8042FCF
:20E0E0008E45F9D8E6E7704770B506461446412313700123537000239370F1B14D782A4662
:20E1000003311B4801F078FA1A4B1B7843B9E37015F0800F29D11846174B03F8260070BD22
:20E120002223E3700025144B03F82650E2782146304603F027F9284670BDD2784AB90F4BC6
:20E140001B7853B9E2780E493046FFF7E9FA002070BD214603F016F9F1E7012001F04CFD37
:20E16000E178084803F080FEECE7332070BD00BFE0010020D8010020440100206C10002078
:20E180000C470000F046000070B50546144632231370012353700023937009B34A78033195
:20E1A00001F0F6FC06461B4B1B7853B932461A492846FFF7B5FA66B90023E37033263046D9
:20E1C00070BD012001F018FD3146144803F04CFEECE732462146284603F0D4F80026EEE701
:20E1E000D6780C4B1B786BB932460D492846FFF797FA002EE3D032462146284603F0C2F825
:20E200000026DCE7012001F0F7FC3146054803F02BFEE9E76C100020B047000098470000EE
:20E22000E8470000C847000038B5224B93F8593043B1002001F0E0FC1F4804F0B1FF05231E
:20E24000184638BD04460D4604F0B2FD03460028F6D11A4A02EB0422B2F9A320AA4201DA47
:20E260001323EDE7154A02EB0422B2F9A520AA4201DD1323E4E7114A02EB0422B2F9AF20FF
:20E28000AA42DDD00E4B23F814500C4B03EB0423012283F8B1200B4B03EB84039A7842F023
:20E2A00010029A7000220A21204601F0D5FD3323C6E700BF40300020348100001003002092
:20E2C000D4320020500F002000487047404B4C0001F0FF01102A2BDB10F0070F08D010F89C
:20E2E000013B013A8B422DD010F0070F42B3F6D1F0B441EA012141EA014122F007047FF021
:20E3000000070023F0E80256083C85EA010586EA010685FA47F5A3FA87F586FA47F6A5FA43
:20E3200087F68EB9EED1F0BC01F0FF0102F0070232B110F8013B013A83EA010313B1F8D162
:20E340000020704701387047002D06BF35460338073815F0010F07D1013015F4807F02BF28
:20E36000013015F4C03F0130F0BC0138704700BF2DE9F7430E46012159EC108B154601F0E6
:20E380006FFCC9F30A540746C9F3130334BB0193B8F1000F27D002A840F8088D01F016FF2A
:20E3A0000099F0B1019AC0F1200302FA03F30B43C2407B610192019BBB61002B14BF02212A
:20E3C00001213961C4B1A4F2334404443460C0F135002860384603B0BDE8F08343F48013A2
:20E3E000D5E77961E7E701A801F0F0FE019B7B61012139612030E5E707EB8103A0F2324067
:20E400003060186903F02EFAC0EB4110E1E7704710B51E4B03B198471D4B03B19847EFF3B7
:20E42000108172B61B4AD2F8883043F47003C2F88830BFF34F8FBFF36F8F01B962B6164CAC
:20E440002023636000F05AFC124A144B23F07F039360134B984701F021F8A36823F00103C4
:20E46000A3602346DA6812F0010FFBD10A4B5A6842F004025A6001229A600A4B03B1984702
:20E48000094B03B19847FCF76BFDFEE7000000000000000000ED00E00060004100200000C7
:20E4A000DD110100000000000000000038B50546002945D051F8043C0C1F002BB8BFE418A5
:20E4C00005F0D3F81F4A1368104633B9636014602846BDE8384005F0C9B8A3420CD92168CB
:20E4E0006218934204BF1A685B68636004BF521822600460ECE713465A680AB1A242FAD98F
:20E5000019685818A0420BD120680144581882421960DDD1106852685A6001441960D7E7BC
:20E5200002D90C232B60D3E7206821188A4204BF11685268626004BF091821605C60C7E778
:20E5400038BD00BF583300202DE9F843154612F0030206460F4607D0013A214C002354F81A
:20E56000222000F05FFF0746AD1035D0746A3CB9102004F035FE7062446084600460C460F0
:20E58000D6F82480D8F808404CB940F27121304604F053FD0023C8F80800044603604FF097
:20E5A0000008EB070AD5394622463046FDF740FC39468146304603F09EFC4F466D100BD0BF
:20E5C000206838B9224621463046FDF731FC2060C0F800800446E4E73846BDE8F88300BF32
:20E5E0002C350100F8B5056900F1140707EB85052E1F55F8044C204603F034F9C0F12003D2
:20E600000A280B60DFF874E014DCC0F10B0C24FA0CF1B74241EA0E0334BF55F8081C0021A5
:20E62000153004FA00F021FA0CF140EA010243EC102BF8BDB7423ABFA5F1080655F8081C3C
:20E6400000210B3815D08440C0F1200544F07F5444F44014BE4221FA05FE44EA0E038CBF9C
:20E6600056F8044C002401FA00F0EC4040EA0402DDE744EA0E030A46D9E700BF0000F03F90
:20E6800010B584B0044689238DF80430FF238DF805308DF806309F238DF807301A4B03EB6A
:20E6A000002393F83F30412B1ED09F238DF8083061238DF8093092238DF80A3000238DF806
:20E6C0000B30AE238DF80C30092201A9204600F06DF8B8B90D4B1B786BB90D492046FFF7AB
:20E6E0001FF8112004B010BDCF238DF80830D1238DF80930DFE7012001F07EFA054804F05F
:20E700004FFDEAE70020EDE7100300206C100020109E0000F89D000010B582B004469623DC
:20E720008DF80030FF238DF801308DF802301B4B03EB002393F83F30412B1ED09F238DF883
:20E74000033061238DF8043072238DF805300F238DF806306E238DF8073008226946204681
:20E7600000F024F8B8B90E4B1B786BB90D492046FEF7D6FF112002B010BDCF238DF803302C
:20E78000D1238DF80430DFE7012001F035FA064804F006FDEAE70020EDE700BF10030020C9
:20E7A0006C1000203C9E0000249E000038B50C46154600221F4B1A70032832D8DFE800F085
:20E7C00002101B2600211C4804F08AFD2A462146602003F0FFFB044602F0B8FC204638BD57
:20E7E0000021154804F07CFD2A462146612003F0F1FB0446F0E700210F4804F065FD2A4698
:20E800002146602003F0A4FB0446E5E700210A4804F05AFD2A462146612003F099FB044682
:20E82000DAE7002001F0E8F9044804F0B9FC0024D2E700BF93330020CD3401006C910000AF
:20E8400010B50446194B53F82020194B43F82020184B1B78DBB918492046FEF761FF002213
:20E86000134B43F82420154B03EB0423D3F8A7300E4A42F82430124A42F824300D4B1B78E9
:20E8800063B910492046FEF74BFF002010BD012001F0B2F90C4804F083FCDCE7012001F018
:20E8A000ABF90A4804F07CFCEBE700BF2C3200203C3200206C1000205C80000010030020AE
:20E8C0001C32002088800000488000007080000010B50446184B53F82020184B43F820202F
:20E8E000174B1B78CBB917492046FEF719FF0022124B43F82420144B53F824300E4A42F83E
:20E900002430124A42F824300D4B1B7863B910492046FEF705FF002010BD012001F06CF996
:20E920000C4804F03DFCDEE7012001F065F90A4804F036FCEBE700BF2C3200203C3200200C
:20E940006C100020108000004C3200201C32002034800000FC7F000020800000204B00291C
:20E9600008BF19464FF08642136823F002031360D369002BFCD130B303685B00B1FBF3F1F7
:20E980008B1EFE2B21D830B44FF086431C68826845682A4322431A600139C9B219735A6856
:20E9A000C1680A435A601A46D369002BFCD101204FF08642136843F002031360D369002BDE
:20E9C000FCD130BC7047002000E000204FF08642136843F002031360D369002BFCD170478F
:20E9E000404B4C002DE9F04704468846C5011A4E06EB050A194A8301D718D35C7355D146C9
:20EA0000102309F8013F97F83C10484604F01DFC97F83D10484604F011FC98F801200332BB
:20EA200041460AF1020004F023FA97F83D30013303F0070387F83D3098F801200532D2B2BC
:20EA4000074B1A55074B1A5531460748284404F00FFA0020BDE8F087142000206C0F0020DA
:20EA600000330020043300201422002038B5054614464223137001235370002393704B784C
:20EA8000D3B9154BDA6B154B1B689A4219D00622214602F077FC284604F0FAFC0222104BD2
:20EAA00083F869200F4B1B7873B9E2780E492846FEF736FE002038BD2422214602F062FCDF
:20EAC000F8E70023E370E6E7012001F095F8E178064803F0C9F9E8E7EC010020DC01002040
:20EAE000403000206C1000203C47000024470000F0B51D4EC5017419A71C4FEA801EDFF828
:20EB000070C01CF80EE006F805E0BF2565708125A570F025E5708D1805EB450505EB8305AB
:20EB20002571C1B9611D32B105220A7001224A7007228A70033143B115230B7002234B7008
:20EB400001238B700023CB700431C91B0231074B19540020F0BD142161710121A17104F130
:20EB600008010225E571DEE714200020003300206C0F002008B51B4B93F85930D3B900EB5A
:20EB800040035B00184AD35C13F0040F1AD1174B03EB0023012283F8B120154B03EB800392
:20EBA0009A7842F010029A7000220D2101F054F9002008BD002001F01FF80E4804F0F0FA26
:20EBC000052008BD094B03EB0023B3F9A520A3F8AF20074B03EB80039A7842F008029A70F0
:20EBE000D5E700BF403000206001002010030020500F0020548100002DE9F74380460E4698
:20EC0000144603F0DBFF01281CD1731EFE2B19D88DF80460054600270DF10409AF4220D0C5
:20EC2000A36817F80910013B002BA36004DAA26993421ADB0A2918D023685A1C226019705D
:20EC40000137EBE7324604F1580301A9404602F04DF8421C0546DED1A38943F04003A3815D
:20EC60000646304603B0BDE8F08322464046FEF7B7FD431CE4D10646F3E7704770B505460F
:20EC800014460723137004F0ABF80646284604F09BF816B3E67000232371C31A18BF0123E7
:20ECA00020B104EB4302D07001211171C3F10103C3EBC3335B0004339BB263701B0AA37025
:20ECC000284603F027FF0A4B1B7843B9E27809492846FEF725FD002070BD0023E0E7012040
:20ECE00000F08AFFE178044803F0BEF8EEE700BF6C100020F8410000E04100001C4B1D4AF5
:20ED0000934230B438BF002103D203F8011B9342FBD1194800250168C1B9426832B38368B2
:20ED20000C30D3B10139034613F8014B01F8014F1C1A9442F8D312F0030318BF012303EB28
:20ED4000920200EB820001680029E6D0846842680B460C303CB9002ADDD01A4403F8015BC6
:20ED60009A42FBD1D7E7002ADCD1E4E730BC704700000020141C00206039000038B50546A7
:20ED800014464023137001235370002393704B78ABB9062000F0EAF8B8B10023E3702846BA
:20EDA00004F076FB0122104B83F869200F4B1B788BB9E2780E492846FEF7B2FC03E0242250
:20EDC000214602F0DFFA002038BD05222146284602F0D8FAF7E7104600F00EFFE178054855
:20EDE00003F042F8E5E700BF403000206C100020D8460000BC46000070B500EB40021A4B58
:20EE000003EB42035B7903F0FF054BB3164A00EB40035B00D118D35C4A78DBB2934221D0E0
:20EE2000114C00EB40035B000A46E65C4978714056780E409670E35C1940D1700B4B1B7804
:20EE4000012B0DD90446022000F0D6FE064B6000021903EB42029178D278054803F004F8E3
:20EE6000284670BD0025FBE7600100206C100020F82D0100BAB32DE9F04116460788438843
:20EE8000DB1BDBB2934230D3884604468588ED1BAA4215DCD0F806103944404603F0E8FF52
:20EEA00023881E44B6B22680A388B34202D00120BDE8F0810023237063700120BDE8F0814E
:20EEC000D0F806102A463944404603F0D1FF761B3246D4F8061008EB050003F0C9FF2680DA
:20EEE0000120BDE8F081002070470020BDE8F081F0B51B49C2018B1800258D54BF225A70AE
:20EF000081229A70F022DA701C221A7101245C7113229A71134A02EB8012D2F800C0D2F8BD
:20EF200004E09768D668C3F807C0C3F80BE0C3F80F70C3F81360178A967CA3F817705E7677
:20EF4000062199760221D97612889A8304229A77DC7783F820402122034B1A542846F0BDD3
:20EF6000142000206E0F00200033002010B5062829D8DFE800F00404040C131A210000201C
:20EF800000F03AFE154804F00BF9002010BD144B93F83900B0FA80F0400910BD104B93F8CE
:20EFA0004900B0FA80F0400910BD0D4B93F85900B0FA80F0400910BD094B93F86900B0FA7A
:20EFC00080F0400910BD0446002000F015FE2146044802F049FF002010BD00BFD491000040
:20EFE00040300020F89100002DE9F8430C4615461F4609220833064693FBF2F3002101222C
:20F000009A4220DB304600F02BFE089B4361092D4FF00103036119DD04F10909C8462C44EB
:20F0200018F8013B0146303B0A22304600F0FAF9A045F5D1A5F108044C442D1B6319BB42AF
:20F0400007DBBDE8F88352000131D9E70A340925F3E714F8013B0146303B0A22304600F098
:20F06000E1F9EBE771B32DE9F0410422184B1A75184B9A6A5B6A9A4228D0024641180020A0
:20F08000144BDFF854C08046114D0427BE4601309C6A661C9E621CF8044002F8014B9C6A76
:20F0A000012C88BFC3F8288085F816E08A420BD02F759E6A5C6AA642E9D10422044B9A75C7
:20F0C000BDE8F08100207047BDE8F0810020F4E700340040400000209033002071B32DE941
:20F0E000F0410422184B1A75184B9A6A5B6A9A4228D0024641180020144BDFF854C08046F6
:20F10000114D0427BE4601309C6A661C9E621CF8044002F8014B9C6A012C88BFC3F828802E
:20F1200085F816E08A420BD02F759E6A5C6AA642E9D10422044B9A75BDE8F0810020704730
:20F14000BDE8F0810020F4E7000C0043780000208C33002071B32DE9F0410422184B1A7555
:20F16000184B9A6A5B6A9A4228D0024641180020144BDFF854C08046114D0427BE46013000
:20F180009C6A661C9E621CF8044002F8014B9C6A012C88BFC3F8288085F816E08A420BD052
:20F1A0002F759E6A5C6AA642E9D10422044B9A75BDE8F08100207047BDE8F0810020F4E7B9
:20F1C00000080043B00000208833002071B32DE9F0410422184B1A75184B9A6A5B6A9A42AE
:20F1E00028D0024641180020144BDFF854C08046114D0427BE4601309C6A661C9E621CF8EC
:20F20000044002F8014B9C6A012C88BFC3F8288085F816E08A420BD02F759E6A5C6AA64213
:20F22000E9D10422044B9A75BDE8F08100207047BDE8F0810020F4E700040043E800002043
:20F240008433002070B5C2B01446B2F5807F08D9002000F0D1FC2146164802F005FE42B0D6
:20F2600070BD05460E4603F0EBF830B1002000F0C3FC114803F094FFF1E703F0C7FA0223AC
:20F280008DF804302B0C8DF805302B0A8DF806308DF807502246314602A803F0E9FD03F0A3
:20F2A0006FFF211D01A804F08DF903F0D5FF03F05FFFD4E728CC000048CC00002DE9F0415D
:20F2C00005460C46164601F0A5FB074610B332462146284600F054FB0421204602F082FF0A
:20F2E0000546F0B9B11E204601F06AFB8046344414F8013C14F8024C04EB0324A4B2A04260
:20F3000012D0002000F078FC42462146074802F0ABFD06E000F070FC2946054802F0A4FD1E
:20F320003D462846BDE8F0813D46FAE7148D0000F48C0000F8B51C4B1E68B369074613B972
:20F34000304600F013FF4836B4687368013B03D5336833B13668F7E7B4F90C506DB16434F2
:20F36000F4E70421384602F0FBFE30600028F1D10C233B6004462046F8BD4FF6FF73E38160
:20F380000123A38125662560A560656025616561A5610822294604F1580003F0F9FE656361
:20F3A000A563A564E564E6E7383601008B8973B59D0706460C4607D504F147032360236117
:20F3C0000123636102B070BD01AB6A4601F04EFF009905463046FEF761FA38B9B4F90C3048
:20F3E0009A05EFD443F00203A381E5E70C4BB362A389206043F08003A381009B6361019B96
:20F4000020614BB1B4F90E10304603F0E3FA18B1A38943F00103A381A3891D43A581D1E7A4
:20F42000153501002DE9F0410D691F4606460C4601F1140E0023DEF8000081B202FB017112
:20F440000F0C000C02FB007089B2013301EB00419D424FEA10474EF8041BECDCD7B1A3684D
:20F460009D4212DB61683046013100F0F9FB2269023204F10C01804692000C3003F0F8FC2F
:20F480002146304602F037FD444604EB850301355F6125612046BDE8F0817047114B00223B
:20F4A0005A601022DA60104A1A61104ADA60104A1A61104ADA60104A1A61104ADA60104A91
:20F4C0001A61104ADA60104A1A6110494A6A42F480324A6205225A60BFF34F8FBFF36F8F86
:20F4E000704700BF90ED00E02B000213110000202D000B031200004037000113130000E0FD
:20F5000027000013140000043700000300ED00E01A4B00225A619A61194B83221A765A68FA
:20F5200022F480225A601A46D369002BFCD10022124B5A777F2810D959B101221A774000E7
:20F5400040F400400E4B58620D4AD369002BFCD170470422094B1A77F1E741B10322074B96
:20F560001A77400040F00100054B5862ECE70422024B1A774000024B5862E5E750310020F4
:20F58000002001411A4B00225A619A61194B83221A765A6822F480225A601A46D369002B38
:20F5A000FCD10022124B5A777F2810D959B101221A77400040F400400E4B58620D4AD36986
:20F5C000002BFCD170470422094B1A77F1E741B10322074B1A77400040F00100054B586224
:20F5E000ECE70422024B1A774000024B5862E5E77831002000300040A2B3F8B51646B0F8E2
:20F6000002E085880388AEEB030352FA83F3AB422ADC0F460446A5EB0E05AA4212DCD0F838
:20F620000600704403F024FC63881E44B6B26680A388B34201D00120F8BD0023A370E37012
:20F640000120F8BDD0F806002A46704403F010FC761B32467919D4F8060003F009FC668098
:20F660000120F8BD002070470020F8BD2DE9F043DFF860E0134F144E144D154C00231A469F
:20F68000DFF854904FF00108DFF850C04EF8042B07F8012B06F8012B49F8232005F8018BA9
:20F6A0000CEB0320B0F9AF10B0F9A5008142B8BF014624F8021B0133042BE7D10020BDE8E0
:20F6C000F08300BF103300200833002014330020D4320020FC310020EC31002010030020F0
:20F6E00010B501281CD0044658B1022823D003F01FFA002000F080FA2146144802F0B4FBC6
:20F7000009E0134B4FF08052C3F814214FF000625A61C3F81821012002F0CAFD012010BD89
:20F720000B4B4FF00062C3F814215A614FF08052C3F81821EFE7064B4FF00062C3F814216A
:20F740004FF08051C3F814119A61E4E78C910000008000416BB3F0B51E4614781D46132BC1
:20F7600028BF1325C5F113050F78144B03EB80132B4493F802E004EA070304EA0E04A3427C
:20F7800019D10C4605EB80150D480544013E51FA86F18C420BD012F8013F14F8010F15F8ED
:20F7A000016F184033409842F3D00020F0BD0120F0BD012070470020F0BD00BF6C0F0020D7
:20F7C0006E0F0020F0B5184CC1016318174D8201AE5C6654BF21597081219970F021D970ED
:20F7E0001821197101245C711321997102322A44D2F800E057689668D568C3F807E0C3F873
:20F800000B70C3F80F60C3F81350158A927CA3F817505A7604229A76DC761C771D22044BFD
:20F820001A540020F0BD00BF142000206C0F00200033002070B41849C2018B188401174DB8
:20F840002C5D8C54BF225A7081229A708022DA7012221A7105225A7104259D710022DA71A6
:20F860001A7202245C72502199720626DE721D735A739A73DC7319740721597401219974A6
:20F88000D97408241C75597599751721044B1954104670BC704700BF142000206C0F0020A7
:20F8A0000033002038B50446B0F5002F0BD30D46B0F5182F12D8A0F50024640B0C60172C0C
:20F8C00017D8012038BD002000F096F94FF4002221460D4802F0C8FA002038BD002000F08A
:20F8E0008BF94FF418222146084802F0BDFA002038BD002000F080F918222968044802F000
:20F90000B3FA002038BD00BFE88A0000088B00002C8B0000164B1B88B3F57A7F1DD30022F3
:20F92000134B1A80134B1B780133DBB23B2B15D90022104B1A70104B1B780133DBB23B2BAD
:20F940000FD900220C4B1A700C4B1B780133DBB20C2B09D90122094B1A707047054A13706E
:20F960007047054A13707047044A1370704700BFEA3200207B330020773300207333002066
:20F9800070B5C2B01446B2F5807F1BD805460E4602F056FDF8B903238DF800302B0C8DF8B1
:20F9A00001302B0A8DF802308DF80350231D01AA0421684602F054FE224602A9304603F0D4
:20F9C00057FA06E0002000F017F92146054802F04BFA42B070BD002000F00EF9024803F072
:20F9E000DFFBF6E7ECCB00000CCC00000CB430B5184B0C1E9BB01D6808DA8B232B604FF065
:20FA0000FF301BB0BDE8304002B070474FF40273ADF8103014BF04F1FF332346039306933F
:20FA20004FF6FF73ADF8123000230190059019931E9A1FAB01A928460093FAF79BFA431C21
:20FA4000BCBF8B232B60002CDBD0019B00221A70D7E700BF5433002038B5054614460423F6
:20FA6000137001235370002393704B7893B903F09FF9A0B12071022363700023A370E370F9
:20FA80000C4B1B786BB9E2780B492846FDF748FE002038BD2422214601F074FCF8E70123DC
:20FAA000EAE7012000F0A8F8E178044802F0DCF9E9E700BF6C100020A04200008842000081
:20FAC00038B5054614463423137003235370002393704B7883B9111D02F0FCFE024680B911
:20FAE0000023E3700D4B1B7883B9E2780C492846FDF716FE002038BD2422214601F042FC53
:20FB0000F8E72146284601F03DFCEBE7012000F073F8E178034802F0A7F9E6E76C1000201A
:20FB2000B04800009C48000010F0010F25D008B510F0020F0DD100F00F0001281FD00528F4
:20FB400020D0002000F058F80F4803F029FBFF2008BD00F0EF0083280BD0AF2811D043287B
:20FB600009D0002000F048F8084803F019FBFF2008BD832008BD432008BD00207047012099
:20FB800008BDAF2008BD00BFA48D0000B48D000070B50446164600EBC003114D05EBC3054C
:20FBA000284603F065F90F4B1E550023AB550420FFF7DCF978B90C4B1B782BB90B492046EE
:20FBC000FDF7AEFD052070BD012000F015F8084803F0E6FAF2E70122064B1A55002070BDEA
:20FBE000282B0020243300206C100020DC920000CC92000020330020F0B583B0044603F02B
:20FC0000DDFC03F03FFC054603F036FC064603F02DFC074603F024FC00903B4632462946AD
:20FC20000B4802F021F9042C07D8DFE804F003080C0C0C00074802F017F903B0F0BD06486D
:20FC400002F012F9F9E7054802F00EF9F5E700BF241B01003C1B0100441B01004C1B010086
:20FC600070B5456A04460E463DB9102003F0B8FA6062456085600560C560656AEB6883B11B
:20FC8000636ADB6853F82600B8B9012101FA06F56A1D9200204602F0ADFF60B146608560A1
:20FCA0000EE021220421204602F0A4FF636AE860DB68002BE4D1002070BD026843F8262083
:20FCC00000230361C36070BD154B164A1A604FF622029A814FF440325A601A46D369002B59
:20FCE000FCD10F4A136843F002031360D369002BFCD10D4B0022DA615A629A62012183F87A
:20FD00002C1083F8341019631A609A60DA601A741A765A61024B80229A7504229A757047FB
:20FD2000003400408401104040000020154B164A1A604AF2A0129A814FF440325A601A4608
:20FD4000D369002BFCD10F4A136843F002031360D369002BFCD10D4B0022DA615A629A624F
:20FD600083F82C2083F834201A631A609A60DA601A741A765A61034B80229A7504229A75B5
:20FD8000704700BF000C00438401204078000020154B164A1A604FF622029A814FF44032AE
:20FDA0005A601A46D369002BFCD10F4A136843F002031360D369002BFCD10D4B0022DA618D
:20FDC0005A629A62012183F82C1083F8341019631A609A60DA601A741A765A61024B8022E1
:20FDE0009A7504229A7570470008004384011040B0000020154B164A1A604FF622029A815A
:20FE00004FF440325A601A46D369002BFCD10F4A136843F002031360D369002BFCD10D4BD4
:20FE20000022DA615A629A62012183F82C1083F8341019631A609A60DA601A741A765A6112
:20FE4000024B80229A7504229A7570470004004384011040E800002038B5114B93F8593037
:20FE6000A3B900230F4C23700F4C20700F4D28702078C0B20E4D29542178C9B20D48425455
:20FE80000121074A82F85910184638BD04460020FFF7B2FE2146084801F0E6FF052038BD02
:20FEA000403000208B3300208A3300208733002010330020083300201081000008B50138D8
:20FEC000052822D8DFE800F003080D12171C0122114BC3F8182108BD02220F4BC3F818213D
:20FEE00008BD04220C4BC3F8182108BD08220A4BC3F8182108BD2022074BC3F8182108BD82
:20FF00004022054BC3F8182108BD0020FFF774FE024803F045F908BD008000412491000038
:20FF200008B50138052822D8DFE800F003080D12171C0122114BC3F8142108BD02220F4BDE
:20FF4000C3F8142108BD04220C4BC3F8142108BD08220A4BC3F8142108BD2022074BC3F837
:20FF6000142108BD4022054BC3F8142108BD0020FFF742FE024803F013F908BD00800041FB
:20FF80002491000008B50138052822D8DFE800F003080D12171C0122114BC3F81C2108BD3F
:20FFA00002220F4BC3F81C2108BD04220C4BC3F81C2108BD08220A4BC3F81C2108BD20224E
:20FFC000074BC3F81C2108BD4022054BC3F81C2108BD0020FFF710FE024803F0E1F808BDA4
:20FFE000008000412491000008B430B5141E9AB0054608DA8B2303604FF0FF301AB0BDE853
:020000040001F9
:20000000304001B070474FF40273ADF8103014BF04F1FF332346039306934FF6FF73ADF87D
:20002000123000230191059119931D9A1EAB01A90093F9F79FFF431CBCBF8B232B60002CFD
:20004000DCD0019B00221A70D8E7704708B5134B1A6801321A601B68B3F5FA7F16DC02F064
:200060009FFF0F4A9368013393600E4B5B7A63B10C4A937A3321917203F0FF002BB10A4B48
:200080001B6813B1084A5168984708BD0022034B1A600520FFF776FFE1E700BFF032002027
:2000A00020010020003800403401002010B582B0044690238DF80030FF238DF801308DF82C
:2000C0000230FB238DF8033000238DF8043005226946FEF76BFB80B9094B1B7833B90949AD
:2000E0002046FDF71DFB112002B010BD0120FFF783FD054803F054F8F1E70020F4E700BF29
:200100006C100020649F0000549F000010B5044600230E4A42F820300D4A13540D4B0E4ACB
:2001200042F820300D4A42F820300D4B1B782BB90C492046FDF7F4FA002010BD0120FFF7E4
:200140005BFD094803F02CF8F2E700BF3C32002014330020C0BDF0FF2C3200201C320020FA
:200160006C100020EC7F0000D87F0000836910B5044633BB8364C3640365124B124A1B6886
:200180008262984204BF01238361FFF7D3F860602046FFF7CFF8A0602046FFF7CBF80022F1
:2001A000E0600421606801F03DF801220921A06801F038F802221221E06801F033F8012397
:2001C000A36110BD3836010015350100036813F0070201460BD0DA0723D4980749BF5B0819
:2001E0009B0801200B605CBF0B600220704798B2A8B91B0C102013F0FF0F04BF1B0A08303E
:200200001A0704BF1B0904309A0704BF9B080230DA0702D45B0806D001300B6070471046D0
:20022000E9E7002070472020704770470122134B1A601A46D369002BFCD14FF480720F4B4B
:200240005A601A46D369002BFCD10C4B3022DA600B4A1A601A46D369002BFCD11022074B86
:200260005A831A46D369002BFCD1064B00225A771A778322014B9A75704700BF0020014160
:2002800016001000503100200122134B1A601A46D369002BFCD14FF480720F4B5A601A465F
:2002A000D369002BFCD10C4B5A22DA600B4A1A601A46D369002BFCD11022074B5A831A46D9
:2002C000D369002BFCD1064B00225A771A778322014B9A75704700BF003000401600100009
:2002E0007831002010B582B004468B238DF80030FF238DF801308DF802300B128DF803302D
:200300008DF8041005226946FEF750FA80B9094B1B7833B908492046FDF702FA112002B099
:2003200010BD0120FFF768FC044802F039FFF1E70020F4E76C100020689E0000549E000098
:2003400070B50446B0F5452F13D80D461646B0F5402F16D301F058FD204600F005FA01F0F2
:2003600053FD324629462046FEF76CFF01F04CFD70BD0020FFF740FC2146064801F074FDB0
:2003800070BD0020FFF738FC2146034801F06CFD70BD00BF388D00005C8D000030B5141E29
:2003A00005469BB0184605DA8B232B604FF0FF301BB030BD4FF40273ADF8103014BF04F1A6
:2003C000FF332346039306934FF6FF73ADF81230002301910591199302461E9B01A92846A5
:2003E000F9F7C8FD431CBCBF8B232B60002CDFD0019B00221A70DBE7F8B50122114B1A7595
:20040000E9B10E46013800240F4A104F05E091687D5493600134A64209D010F8015F9368DE
:200420000133802B28BF0023D1689942EFD102F03FFD10B10122034B9A752046F8BD002451
:20044000F5E700BF0034004040000020482D0020F8B50122114B1A75F1B10E46013800248A
:200460000F4A104F05E091687D5493600134A6420AD010F8015F93680133B3F5806F28BF16
:200480000023D1689942EED102F01AFC10B10122024B9A752046F8BD0024F5E7000C0043B4
:2004A00078000020141C0020F8B50122114B1A75E9B10E46013800240F4A104F05E09168B8
:2004C0007D5493600134A64209D010F8015F93680133802B28BF0023D1689942EFD102F050
:2004E00005FD10B10122034B9A752046F8BD0024F5E700BF00080043B0000020C82D0020AF
:20050000F8B50122114B1A75E9B10E46013800240F4A104F05E091687D5493600134A6425E
:2005200009D010F8015F93680133802B28BF0023D1689942EFD102F0EDFC10B10122034BB5
:200540009A752046F8BD0024F5E700BF00040043E8000020482E002038B505461446062312
:20056000137001235370002393704B786BB90023D37003F057F80B4B1B785BB9E2780A49B2
:200580002846FDF7CDF8002038BD2422214600F0F9FEF8E70120FFF72FFBE178034801F0D6
:2005A00063FCEBE76C10002004430000EC42000038B50546144612231370012353700023A5
:2005C00093704B786BB90023D37002F0E5FB0B4B1B785BB9E2780A492846FDF7A1F8002034
:2005E00038BD2422214600F0CDFEF8E70120FFF703FBE178034801F037FCEBE76C10002074
:20060000A44300008843000010B584B0044604A9FC2301F8013D082300930D4B03EBC0031B
:200620000122FDF7BBFB80B90A4B1B7833B90A492046FDF775F8112004B010BD0120FFF7FD
:20064000DBFA064802F0ACFDF1E70020F4E700BF980100206C1000208C9E0000789E0000B5
:2006600010B584B0044604A9812301F8013D082300930D4B03EBC0030122FDF78FFB80B90E
:200680000A4B1B7833B90A492046FDF749F8112004B010BD0120FFF7AFFA064802F080FD69
:2006A000F1E70020F4E700BFB80100206C100020B49E00009C9E000010B584B0044604A9B7
:2006C000822301F8013D082300930D4B03EBC0030122FDF763FB80B90A4B1B7833B90A49A2
:2006E0002046FDF71DF8112004B010BD0120FFF783FA064802F054FDF1E70020F4E700BF22
:20070000780100206C100020449F0000349F000008B502F0CDFD04280ED007D920280DD066
:2007200040280DD010280DD0084808BD01280BD00228F9D1064808BD064808BD064808BD19
:20074000064808BD064808BD064808BD789200002492000034920000489200005892000016
:20076000689200001892000010B582B0044601F067FE40B10020FFF73FFA104802F010FDA7
:200780000A2002B010BD02F041F820238DF80430230C8DF80530230A8DF806308DF80740EC
:2007A00002F0EEFC04210DEB010002F00BFF02F053FD02F0DDFC0020E3E700BF64CC00005D
:2007C0002DE9F743884669468146FDF70BFF01A9404655EC104BFDF705FFD9F81030D8F8E2
:2007E00010209A1A9DE80A00CB1A03EB421357EC106B002BD6BFC3EB033305EB035507EBC2
:20080000035732463B4620462946F6F78FFB41EC100B03B0BDE8F083C3B213F0010F01D0CD
:200820001120704713F0020F01D00F20704713F0080F18D113F0100F01D00220704713F033
:20084000200F01D00320704713F0400F01D01420704710F0800F08D103F00403002B14BF50
:200860000E2000207047012070472720704710B5044610F0010F15D00120FFF71FFB14F064
:20088000020F13D00220FFF719FB14F0040F11D00320FFF713FB14F0080F0FD10420FFF704
:2008A0003FFB10BD0120FFF73BFBE8E70220FFF737FBEAE70320FFF733FBECE70420FFF7C6
:2008C000FDFA10BD01B310B40C46FBB1114948608C60CA604A78D2B24A7004220A700A46D6
:2008E000517811F0010F03D1517811F0040FF7D0084A527812F0040F0AD1064AD2681A6096
:2009000001205DF8044B7047002070470020F8E70020F6E70020004138B5054614460A2368
:20092000137001235370002393704B785BB90023D3700B4B1B785BB9E2780A492846FCF7DF
:20094000EFFE002038BD2422214600F01BFDF8E70120FFF751F9E178034801F085FAEBE7BA
:200960006C100020D8430000C043000070B4428885880488141BAC421ED0D0F80640531CAE
:2009800043800E78B2FBF5F305FB13239BB2E654428885880488141BAC420FD0D0F806404F
:2009A000531C43804978B2FBF5F305FB13239BB2E154012070BC70470020FBE70020F9E7F1
:2009C000002905DD10B4024601443420122309E03420122303EB002080B27047184480B23B
:2009E0008A4211D012F8014B23449BB2FE2BF5D9A3F1FF04A4B2204480B2FE2C86BFA3F5BF
:200A0000FF739BB22346EBE703EB002080B25DF8044B704708B5B0F1FF3F07D0B0F5002FFA
:200A20000CD3B0F5182F11D8012008BD0020FFF7E3F80A4802F0B4FB002008BD0020FFF73D
:200A4000DBF8074802F0ACFB002008BD0020FFF7D3F8044802F0A4FB002008BD488B000080
:200A6000608B0000848B000038B50B6905460C46DBB118B183690BB9FFF778FB0C4B9C42DB
:200A800009D16C68B4F90C307BB121462846BDE83840FBF7E7BA074B9C4201D1AC68F1E720
:200AA000054B9C4208BFEC68ECE7002038BD00BF54290100742901003429010010B50446BD
:200AC0000846104B996B091B4029A8BF4021002904DD0D4A13461268FFF7F4FEC4F30B0333
:200AE00053B1601C04F14002C0F30B032BB101309042F9D1002010BD2046FFF735FE012038
:200B000010BD00BFEC010020DC01002038B5054600F086F90446032811D90C4B1B7833B963
:200B200022460B492846FCF7FBFD002038BD0120FFF762F82146074801F096F9F0E7064BBC
:200B4000185C003018BF012038BD00BF6C100020948D0000808D00000033002010B50B4612
:200B60001446012812D058B1022815D111461846FFF742FCC0B2A04214BF0020012010BDD9
:200B800011461846FFF7BCFCC0B2F4E711461846FFF78AFCC0B2EEE70020FFF72DF80248A8
:200BA00002F0FEFA002010BD08910000104B1B780BB90120704710B5044603F0FF000D4BE2
:200BC0001B78A3B1032C09D8DFE804F00202050501F05CFC10BD01F047FC10BD0020FFF728
:200BE0000BF82146044801F03FF9002010BD10BD9333002092330020389100004FEA41024C
:200C000012F5001215D211D56FF47873B3EB625212D94FEAC12343F0004343EA505311F0FF
:200C2000004F23FA02F018BF404270474FF00000704750EA013005D111F0004008BF6FF0A8
:200C4000004070474FF00000704700BF0F4B70B51C6806460D4624B1A36913B92046FFF73D
:200C600085FA0B4B9D4207D165682A4631462046BDE8704001F078BF064B9D4201D1A56842
:200C8000F3E7054B9D4208BFE568EEE754330020542901007429010034290100124B10EEE6
:200CA000902A1A40A2F15073002B04DD0020194641EC100B70475B421B15132B4FF00000F6
:200CC0004FF0000104DC4FF4002242FA03F1EFE7143B1E2B4FF00102DABFC3F11F0302FA44
:200CE00003F313461846E3E70000F07FF0B5054685B01E460F460F4C91B922680E49126A2E
:200D0000002A08BF0A4601A9D2F8E0403A46A047431C01BF002333608A232B6005B0F0BD28
:200D20002468054F246A002C08BF3C46D4F8E040EDE700BF543300209428002070B5104B4E
:200D40001E8800220F4B1A8011F00F0F01D0002070BDB6B20D460446202002F095F8201F97
:200D60002B1F05F10C0150F8042F43F8042F8B42F9D106F0300002F087F8012070BD00BF02
:200D800000400041BE31002010B500231048FF24194600EB83029470517000F82310D17060
:200DA0000133042BF5D1002001F012FC012001F00FFC022001F00CFC002000F0A3F90120E6
:200DC00000F0A0F9022000F09DF9002010BD00BF4401002008B54FF480720A490A4802F048
:200DE00023F94FF40052094B1A604FF0FF32084B1A600023074A1360074A13700122074B07
:200E00001A7008BD482C0020E0010020F8320020DC010020FC320020D80100208633002087
:200E2000104B1B5C012B01D0FF2070470E4B1B78834213D00C4B5B7883420BD00A4B9B7847
:200E4000834209D0084BDB78834208BF032006D0FF207047012002E0022000E00020C0B25C
:200E6000704700BF5C0100205401002010B5044601F09EFF0C4B03EB840301225A70D8706C
:200E800088B90A4B03EB0423094A32F81420A3F8AF20002283F8B120064B03EB8404A3783C
:200EA00043F01803A37010BD4401002010030020D4320020500F00200EB410B59BB04FF4B2
:200EC00002711DABADF81010019005906FF000410B48039106914FF6FF7153F8042BADF8FA
:200EE0001210002401A9006800931994F9F742F8019B1C701BB0BDE8104003B0704700BF1F
:200F000054330020F8B5074614460E4621B91146BDE8F840FCF7C2BC22B9FDF7C7FA254608
:200F20002846F8BD02F092F884420FD921463846FCF7B4FC05460028F2D03146224601F0D7
:200F400097FF31463846FDF7B1FAE9E73546E7E7F8B50E46096E14468A0407460BD4E518C5
:200F6000AC420DD0324614F8011B384600F094FF0130F5D10EE023F00303E518AC4201D14A
:200F80000020F8BD324654F8041B384601F0ECFD0130F3D14FF0FF30F8BD704710B582B07B
:200FA000044602A9852301F8013D0122FDF7FEFB80B9094B1B7833B908492046FCF7B0FBEC
:200FC000112002B010BD0120FEF716FE044802F0E7F8F1E70020F4E76C100020989D000076
:200FE000849D000010B582B0044602A9872301F8013D0122FDF7DAFB80B9094B1B7833B90B
:2010000008492046FCF78CFB112002B010BD0120FEF7F2FD044802F0C3F8F1E70020F4E71E
:201020006C100020C09D0000AC9D000010B582B0044602A9862301F8013D0122FDF7B6FBDA
:2010400080B9094B1B7833B908492046FCF768FB112002B010BD0120FEF7CEFD044802F0A8
:201060009FF8F1E70020F4E76C100020E49D0000D09D000008B58B78812B07D00020FEF724
:20108000BBFD0C4802F08CF8242008BDCB78F02B09D0802B0AD00020FEF7AEFD064802F009
:2010A0007FF8242008BDF6F72BFA08BDFAF7ACFA08BD00BF5C8F0000688F000001280DD0D6
:2010C00030B1022810D14FF480220C4B9A6170474FF48022094BC3F8982070474FF48022EE
:2010E000064BC3F81821704710B504460020FEF783FD2146024800F0B7FE10BD008000416C
:20110000D890000001280DD030B1022810D14FF480220C4B5A6170474FF48022094BC3F8D3
:20112000942070474FF48022064BC3F81421704710B504460020FEF75FFD2146024800F046
:2011400093FE10BD00800041D890000010B54FF6F1730D490D4C01E0013B08D00A78002A4A
:20116000FAD0227802F0FF00002AF5D010BD0020FEF742FD044B1978044B1A78044800F00D
:2011800073FE002010BD00BF93330020923300205091000000B583B0C7238DF8073001F007
:2011A0004FF948B10020FEF727FD0B4801F0F8FF0A2003B05DF804FB01F028FB01F0E0FF65
:2011C00001210DF1070002F0FDF902F045F801F0CFFF0020EDE700BF80CC000070B50D4E93
:2011E0000D4CA41BA4100025A54209D10B4E0C4CF1F738F8A41BA4100025A54205D170BDF2
:2012000056F8253098470135EEE756F8253098470135F2E7702200007022000070220000FA
:2012200074220000002310B5044603604360836081810366C28103614361836119460822DA
:20124000583001F0A5FF054B6362054BA362054BE362054B2462236310BD00BF5128010010
:20126000951B0100A9260100CD35010070B50E46B1F90E10002990B014461D4607DA00237F
:201280002B60B3891A0610D44FF480630EE001AA01F02EFA0028F2DB029A02F47042A2F5DB
:2012A00000535A425A412A60EEE740230020236010B070BD00B587B090238DF807300623CE
:2012C00002AA01210DF1070001F0CAF99F238DF80730042302AA01210DF1070001F0C0F965
:2012E000AB238DF80730052302AA01210DF1070001F0B6F907B05DF804FB494E4600696E0A
:2013000066004E414E006E616E0030003031323334353637383941424344454600303132E8
:201320003334353637383961626364656600232D302B2000686C4C0065666745464700FFF0
:2013400038B5044601F05EFE002C16DB63090C4951F8235004F01F04E54005F00105012215
:2013600002FA04F4203341F82340BFF34F8FBFF36F8F01F050FE284638BD0025F9E700BFE4
:2013800000E100E038B50546144602234B7000238B700B23CB700A71084B1B7833B92246DE
:2013A00007492846FCF7BCF9002038BD0120FEF723FC2146034800F057FDF0E76C10002014
:2013C0005C4200004442000010B514460323137001235370002393704B7873B90023D370BF
:2013E000084B1B78012B06D90220FEF705FCE178054800F039FD002010BD24222146FFF788
:20140000C1FFF8E76C1000207442000010B4A1F17D03DBB2012B0AD90B4B1A5C541C1C54BD
:201420000A4B03EBC01081545DF8044B7047064B1A5C541C1C54054B03EBC0137D249C5420
:2014400081F02001E8E700BF7433002094250020F0B40B4A0B4D0C4C0C480D49D71C002363
:201460004FF6FF7602F8013B05F8013B04F8013B20F8026B01F8013BBA42F3D1F0BC70472E
:2014800078330020743300207C330020E43200208033002000B583B005238DF803300223F5
:2014A00001AA01210DF1030001F0DAF89DF8053013F0020F03D0012003B05DF804FB0020A2
:2014C000FEF79AFB9DF80510024800F0CDFC0020F2E700BFCCCB000070B506460C46154668
:2014E000911E2046FFF76CFA6319020A03F8012C03F8020C3046FFF78DFA28B12A4621461F
:201500003046FDF79FFE70BDFEF776FB3146024800F0AAFC70BD00BFD88C000010B483B093
:2015200000238DF807300B4671B14B1EDBB20133C418002310F8011B8DF807109DF80710C4
:201540000B44DBB2A042F5D1DB431078DBB2984214BF0620002003B05DF8044B70470CB413
:2015600010B59AB01CAB019105916FF00041039106914FF402744FF6FF7153F8042BADF815
:201580001040ADF81210002401A900931994F8F7F1FC019B1C701AB0BDE8104002B07047FA
:2015A00000F1140200694B11984210B511DB0ADD11F01F0107D052F8234024FA01F000FA3F
:2015C00001F18C420BD102EB8303934203D8002010BD0346F7E753F8041D0029F5D00120BD
:2015E00010BD704710B5054C227832B9044B13B10448AFF300800123237010BDC0310020B6
:20160000000000000000000008B5034B1BB103490348AFF3008008BD00000000C431002060
:201620000000000070B50D4B1B889EB200220C4B1A8011F0070F01D0002070BD0C46054655
:20164000102001F021FC2B6823606B68636006F0300001F019FC012070BD00BF00400041E6
:20166000BE31002001220D4B1A601A46136913F0010FFBD1094B10221A6003221A7341F2C6
:2016800088329A8333229A720021054A116001225A721A461369002BFCD17047003C00403B
:2016A0002C01002001220D4B1A601A46136913F0010FFBD1094B50221A6003221A7341F208
:2016C00088329A8333229A720021054A116001225A721A461369002BFCD1704700380040FF
:2016E0003401002008B501F0C7FAFBF7A1FDF9F7CFFAFEF79BFDFEF7E7FAFAF7B2FCFEF7E6
:20170000C3FDFEF713FBFEF743FB01F0C7FBFEF771FB00F097F9FFF7A5FFFFF7C3FFF9F7FD
:201720006BFB08BD30B40E4B1B7883420ED00C4B03F17205012214469979814207D00132ED
:201740000633AB42F7D1002030BC7047002404EB4404034B03EB4404D4F80200F4E700BF91
:20176000C82F002030B402460B48D101431894010A4D2C5D4454BF21597081219970F02134
:20178000D970022119710721597100209871044B995430BC704700BF142000206C0F0020AB
:2017A0000033002010B5022A09D014460020FEF723FA2146094800F057FB322010BD084B14
:2017C00003EB801302225A70002483F83C4083F83D4000F083FC204610BD00BF748F000023
:2017E0006C0F002010B504460A4B03EB800301225A70D970084B1B782BB908492046FBF7D0
:201800008FFF002010BD1046FEF7F6F9044801F0C7FCF2E7440100206C10002000930000A6
:20182000EC9200004A0011D212F5001211D20DD56FF47873B3EB62520ED44FEAC12343F04D
:20184000004343EA505323FA02F070474FF00000704750EA013002D14FF0FF3070474FF017
:2018600000007047020C12040346B2B90304102013F07F4F04BF1B02083013F0704F04BF34
:201880001B01043013F0404F04BF9B000230002B06DB5B0003D5013070470020E8E7202080
:2018A0007047704702280AD80A4B9B680A4A52F82000181A052894BF00200120704710B529
:2018C00004460020FEF798F92146044800F0CCFA002010BD20010020600F0020AC900000B6
:2018E00000B583B0084B1B68084A12680849096801910849096800910749FFF7DDFA012079
:2019000003B05DF804FB00BF10608000FC6180001860800014608000BC9100002DE9F843AA
:201920008046894600F14804002614B93046BDE8F883A5686768013F01D52468F5E7AB89BE
:20194000012B07D9B5F90E30013303D029464046C84706436435EEE71728D0B5044607DCDC
:20196000094B03EBC004D4E9000141EC100BD0BD0649074F0020002632463B46F5F7ACF959
:20198000013CF9D1F1E700BF58D600000000F03F0000244070B50D46A9B114460AB10228D7
:2019A00001D9204670BD094B2BB108461146AFF30080204670BD164615F8010B01F0E0F9F1
:2019C000013EF9D1EDE70C46204670BD0000000010B483B000238DF807300B4671B14B1E93
:2019E000DBB20133C418002310F8011B8DF807109DF807100B44DBB2A042F5D1DB43137096
:201A0000002003B05DF8044B7047704700220B4B1A8004380B1F01F5FE7150F8042F43F84E
:201A2000042F8B42F9D1064B1B8803F030031BB94AF20352024B9A8001207047BE3100200F
:201A4000004000410B4B00221A621A774FF400324FF086435A601A46D369002BFCD14FF076
:201A6000864301221A73044A1A601A46D369002BFCD17047140000200E00300010B50B7820
:201A8000FF2B0CD10A46012312F8014FFF2C04D10133DBB2402BF7D104E0402B02D04022FA
:201AA000FDF7D0FB024A136840331360002010BDFC32002038B504460948E3010949A2011E
:201AC0008D188A5CC2541844112300F8013F95F83C1001F0BAFB0222034B1A55002038BD28
:201AE000142000206C0F00200033002038B504460948E3010949A2018D188A5CC254184446
:201B0000152300F8013F95F83C1001F09EFB0222034B1A55002038BD142000206C0F00200D
:201B2000003300205B252E32643A252E32643A252E32642E252E33645D2000004552523A10
:201B4000200000004C4F473A200000004442473A20000000256C643A000000BF2DE9F041CD
:201B6000884600F14804002614B93046BDE8F081A5686768013F01D52468F5E7AB89012B21
:201B800006D9B5F90E30013302D02846C04706436435EFE72DE9F0411F468B89DB0505465C
:201BA0000C46164605D502230022B1F90E1000F0B1FDA389B4F90E1023F48053A381324673
:201BC0003B462846BDE8F04100F080BD10B5144672B10949104601F0EDF948B107492046A3
:201BE00001F0E8F920B10649204601F0E3F908B9024810BD002010BD463501004435010005
:201C00004C35010000B583B000F0B6FBFFF752FB00F0EBFD01238DF8043000238DF80530E4
:201C200001F0AEFA022101A801F0CCFC01F014FB01F09EFA03B05DF804FB704708B50B4B2C
:201C40001B6813B1094A506898474FF080434FF6FF721A615A6102F5FE429A6147F6F8728C
:201C6000DA6140F6FF721A6208BD00BF0C00002008B5012808D020B1022808D100F012FFC3
:201C800008BD00F039FF08BD00F028FF08BD0020FDF7B2FF024801F083FA002008BD00BF95
:201CA000F090000010B50446FEF7B4FE58B12046FEF75AFD00F0A8F804F58050FEF754FD94
:201CC00000F0A2F810BDFDF797FF2146014800F0CBF810BDC48B0000884210B501EB020324
:201CE00003D8421E99420CD110BD9842F9D28118D21AD34200D110BD13F8014D01F8014DA7
:201D0000F7E711F8014B02F8014FEBE703690A699B1A30B50CD19200143014318418114412
:201D200054F8045D51F8042D954203D005D30123184630BDA042F3D3FAE74FF0FF33F7E7B3
:201D4000013910B549111469013102F1140300EB810103EB8404A342024603D300238A429C
:201D600005D310BD53F8042B40F8042BF3E742F8043BF4E703460028B8BF00F11F035B1148
:201D80009B0003F18043424200F01F0002F01F0258BF5042012202FA00F05B6B184214BFA0
:201DA000104600207047704708B5084A108A08490B8803439BB20B80138A9BB21382054BC5
:201DC0001B6813B1034A5068984708BD00400041BE3100200400002010B40022094C1346CB
:201DE00002EB420004EB40014B7104F810304B708B70CB700132042AF2D100205DF8044BB3
:201E0000704700BF6001002038B5094B9D681C4600F016FB58B1A3685B1BB3F5967FF7D90B
:201E20000020FDF7E9FE034801F0BAF938BD38BD20010020A8CB000053B94AB9002908BF1B
:201E400000281CBF4FF0FF314FF0FF3001F0F2BBADF1080C6DE904CEF6F7EAFCDDF804E09E
:201E6000DDE9022304B070470FB40A4B13B51C6824B1A36913B92046FEF778F905AB049AE1
:201E8000A16801932046F7F783FE02B0BDE8104004B07047543300209368013B002B10B4F1
:201EA000936009DA9469A34202DBCBB20A2B03D15DF8044BFBF794BC1368581C1060197039
:201EC000C8B25DF8044B704702884388934210D010B4D0F80640531C03808088B2FBF0F3C7
:201EE00000FB13239BB2E35C0B7001205DF8044B70470020704770B5446A06460D463CB9F0
:201F0000102001F06DF97062446084600460C4603DB1736A6A68DB6853F82210296043F837
:201F2000225070BD08B5094B1B7F5BB20BB1002008BD064B188099601A6100225A60DA6036
:201F40005A770121FDF7E4FA012008BD50310020094B1B7F5BB20BB10020704710B50C4690
:201F6000054B18800021996019615C60DA605977FDF7CEFA012010BD5031002010B5094CBA
:201F8000247F64B20CB1002010BD064C2080A360029B23616160E26000216177FDF7B8FA26
:201FA000012010BD5031002008B5094B1B7F5BB20BB1002008BD064B188099601A610022BA
:201FC0005A60DA605A770121FDF7DCFA012008BD78310020094B1B7F5BB20BB10020704713
:201FE00010B50C46054B18800021996019615C60DA605977FDF7C6FA012010BD783100201D
:2020000010B5094C247F64B20CB1002010BD064C2080A360029B23616160E2600021617731
:20202000FDF7B0FA012010BD7831002008B5084B5B7A63B1064A937A3321917203F0FF00AC
:202040002BB1044B1B6813B1024A5168984708BD003C00402C010020094B1B7813F0800F23
:202060000AD1074B06225A701A7842F002021A701A469368002BFCD10122014B5A717047AB
:2020800000200040094B1B7813F0800F0AD1074B0B225A701A7842F002021A701A46936896
:2020A000002BFCD10122014B5A7170470020004030B4428885880488141BAC420CD0D0F8CF
:2020C0000640531C4380B2FBF5F305FB13239BB2E154012030BC70470020FBE730B4074A40
:2020E000C301D1188401064D2C5DD45473234B700222044B1A54002030BC70471420002061
:202100006C0F00200033002030B4074AC301D1188401064D2C5DD45473234B700222044BA2
:202120001A54002030BC7047142000206C0F00200033002008B5022805D8064B9A68064BC4
:2021400043F8202008BD0020FDF756FD034801F027F808BD20010020600F002084900000D4
:2021600070B54A1E642555430E4605F17001FBF795FB044640B1002180E842000C30A06032
:2021800005F1640201F004F8204670BD074A136843B10749184488429ABF106018464FF0C7
:2021A000FF307047034B1360F3E700BF6433002098430020983300204FEA410C7FEA6C5C8B
:2021C00002D150EA013C0AD14FEA430C7FEA6C5C02D152EA033C02D14FF0000070474FF0CB
:2021E0000100704700290EDD0378FF2B0DD1431C0844834205D013F8012BFF2AF9D0002002
:202200007047012070470120704700207047FEE7084A936823F001039360D36813F0010FF6
:20222000FBD1044B5A6822F002025A6001229A60704700BF00600041084A936823F0010359
:202240009360D36813F0010FFBD1044B5A6842F002025A6001229A60704700BF006000413C
:20226000084A936823F001039360D36813F0010FFBD1044B5A6822F004025A6001229A60ED
:20228000704700BF00600041084A936823F001039360D36813F0010FFBD1044B5A6842F073
:2022A00004025A6001229A60704700BF00600041074B99684FF47A7303FB00F0054BA3FBCB
:2022C00000308009024A93685B1A9842FBD8704720010020D34D6210084A537943F080037E
:2022E0005371136913F0040FFBD1044A537913F0E00FFBD1014B988A80B27047003C004011
:20230000084A537943F080035371136913F0040FFBD1044A537913F0E00FFBD1014B988A81
:2023200080B270470038004010B4084B03EBC0004478837843EA04230B80C178037943EAFF
:202340000123138000205DF8044B70479801002008B5022803D8064B185CC0B208BD0020B4
:20236000FDF74AFC034800F01BFF002008BD00BF7033002008900000084B4FF40062C3F81C
:2023800088204FF48041C3F888104FF48061C3F88810C3F89810C3F8982070470080004179
:2023A0000EB417B5044618B183690BB9FDF7DEFE06AB059AA16801932046F7F7E9FB03B024
:2023C000BDE8104003B070470080E03779C34143176E05B5B5B89346F5F93FE9034F384DD5
:2023E000321D30F94877825A3CBF737FDD4F1575BC89D897B2D29C3C33A7A8D523F6493925
:202400003DA7F444FD0FA5329D978CCF08BA5B25436FAC642806C80A70B50D4661B1164644
:2024200042B138B91446012001F0FAF8013C05F8010BF8D1304670BD0E46304670BD00BFF2
:2024400000B583B005238DF80330022301AA01210DF1030000F004F99DF8050000F0010049
:2024600003B05DF804FBFEE7064B1B7F5BB23BB9054B588B00F03000103818BF012070473A
:20248000012070475031002000200141064B1B7F5BB23BB9054B588B00F03000103818BF03
:2024A00001207047012070477831002000300040074B80221A7607225A831B7E13F0040FFA
:2024C00005D0034B9A6A1A7E12F0040FFAD1704700340040074B80221A7607225A831B7E0F
:2024E00013F0040F05D0034B9A6A1A7E12F0040FFAD17047000C0043074B80221A76072274
:202500005A831B7E13F0040F05D0034B9A6A1A7E12F0040FFAD1704700080043074B80229A
:202520001A7607225A831B7E13F0040F05D0034B9A6A1A7E12F0040FFAD1704700040043B9
:20254000064A136843F002031360136913F0020FFBD10022024B9A60704700BF0038004052
:202560002001002000B1704710B5054C0121A01CFCF778FDA1780348FFF79AFD10BD00BFD9
:202580006C330020B431002000B1704710B5054C01212046FCF71AFE21780348FFF788FD07
:2025A00010BD00BF6C330020A031002000B1704710B5054C01216018FCF7CCFD61780348E7
:2025C000FFF776FD10BD00BF6C330020AA31002008B5022803D80022044B1A5408BD0020C6
:2025E000FDF70AFB024800F0DBFD08BD703300203090000008B5022803D80122044B1A54E6
:2026000008BD0020FDF7F8FA024800F0C9FD08BD703300205C900000BFF34F8F0549CA686B
:2026200002F4E062044B1343CB60BFF34F8F00BFFDE700BF00ED00E00400FA0579B1F8B5F9
:202640000F461646054600210C4629443046FFF7DDF90134A4B22146BC42F6D3F8BD704737
:20266000F8B504460D4616461F4600F089FD3B4632462946204600F070FF00F0EDFD00F0E2
:2026800077FDF8BD014620B9044B05491868FFF745B9044B1868FEF7E7B900BF383601004E
:2026A000690A01005433002010B50C46B1F90E1000F030F8431CA38915BF606523F48053FA
:2026C00043F48053A38118BFA38110BD38B5074C054608461146002222601A4600F0BCFF25
:2026E000431C02D1236803B12B6038BD101C002038B5074C0023054608461146236000F0D7
:20270000A3FF431C02D1236803B12B6038BD00BF101C002038B5074C0546084611460022C9
:2027200022601A4600F094FF431C02D1236803B12B6038BD101C002030B4064C064D2468E2
:20274000246A002C08BF2C46D4F8E440A44630BC604700BF543300209428002082B001B9EB
:2027600001A942B14BB113780B601278101C18BF012002B070471046FBE76FF00100F8E73C
:2027800038B5074C054608461146002222601A4600F060FF431C02D1236803B12B6038BDC5
:2027A000101C002030B4064C064D2468246A002C08BF2C46D4F8E040A44630BC604700BF9D
:2027C000543300209428002071B1F8B50D4617460646002432462946384600F051FC0134B0
:2027E000A4B2A542F6D1F8BD704700B583B005238DF80330022301AA01210DF10300FFF7B8
:202800002FFF9DF8050003B05DF804FB10B582B002AC062304F8013D00F0B2FC204600F0ED
:2028200097FE00F019FD00F0A3FC02B010BD3031323334353637383941424344454600301D
:202840003132333435363738396162636465660010B50C46B1F90E10FFF792FF0028ABBF4E
:20286000636DA3891B1823F48053ACBF6365A38110BDFEE7064A936823F001039360D368A6
:2028800013F0010FFBD10122014B1A62704700BF0060004108B50122044B9A71044B1B684B
:2028A00013B1034A5068984708BD00BF002000403C01002051B1002808DB420900F01F00C8
:2028C000012303FA00F0024B43F82200704700BF00E100E038B505460C4600F069FA0346E0
:2028E00018B9034A32F915202280184638BD00BFD4320020064B93F8590030B10138C0B2BF
:20290000012894BF0020012070470020704700BF4030002069B1F8B54F021646054600243A
:2029200061193046FFF772F80134A4B2BC42F7DBF8BD704700000000000000000000000080
:20294000000000000000000000000000000000000000000000000000000000000000000077
:20296000000000000000000000000000000000000000000000000000000000000000000057
:20298000000000000000000000000000000000000000000038B5064C0023054608462360B9
:2029A000FFF7F4FB431C02D1236803B12B6038BD101C002038B5064C002305460846236077
:2029C00000F040FE431C02D1236803B12B6038BD101C002038B5064C00230546084623600E
:2029E00000F034FE431C02D1236803B12B6038BD101C00204840082348F2084210F0010F31
:202A000014BF82EA50004008013B13F0FF03F5D1704738B504460D46884208D8204600F097
:202A200047FB204600F014F80134A542F6D238BD10B501390244904201D1002010BD10F83B
:202A4000013B11F8014FA342F5D0181B10BDFEE70022044B1A80044B58614AF201529A8096
:202A600001207047BE31002000400041044B198A044A13880B439BB21380108880B2704764
:202A800000400041BE310020054B187F30B94FF08643187E80F00200C0F34000704700BF5D
:202AA0001400002010B5054B588B10F0070401D1204610BDFFF7FCFCFAE700BF00340040D8
:202AC00010B5054B588B10F0070401D1204610BDFFF700FDFAE700BF000C004310B5054BF7
:202AE000588B10F0070401D1204610BDFFF704FDFAE700BF0008004310B5054B588B10F009
:202B0000070401D1204610BDFFF708FDFAE700BF00040043054B420011184900595CC9B28F
:202B2000024403EB420359700020704760010020054B4FF00062C3F814214FF08051C3F84F
:202B400014115A61012070470080004107B5009313460A46014603480068FDF71FFC03B048
:202B60005DF804FB54330020B2F90C3013F4005F06D143F400539381136E43F40053136614
:202B8000FCF73AB8044B1B68186A044B002808BF1846F030704700BF543300209428002047
:202BA000044B1B68186A044B002808BF1846F030704700BF5433002094280020044B054A6E
:202BC0001B681B6A002B08BF134693F8280170475433002094280020044B054A1B681B6A0E
:202BE000002B08BF1346D3F8EC007047543300209428002038B502FB01F42146FAF74EFE16
:202C0000054618B12246002100F0C2FA284638BD52B138B515460C460D4414F8011BFFF7FC
:202C2000E9FEAC42F9D138BD704738B50C460968054609B1FFF7F9FF21462846BDE83840B4
:202C4000FBF734BC49B1FF2A85BF8A2303600A704FF0FF3098BF0120704708467047FEE71A
:202C6000044A936823F001039360D36813F0010FFBD1704700600041044B4FF4E0721A8011
:202C800040F2FF721A820122DA817047004000410022034B1A804AF23352024B9A80704756
:202CA000BE31002000400041044B93F82C2083F82C0083F834101046704700BF40000020CC
:202CC000044A9368D068834238BF03F58063181A704700BF78000020044B93F82C2083F8FB
:202CE0002C0083F834101046704700BF78000020044B93F82C2083F82C0083F834101046A3
:202D0000704700BFB0000020044B93F82C2083F82C0083F834101046704700BFE80000200D
:202D2000044A136843F002031360136913F0020FFBD17047003C0040044A136823F00203AF
:202D40001360136913F0020FFBD17047003C0040044A136823F002031360136913F0020F8D
:202D6000FBD1704700380040044B9B6813F0100F02D1A522014B1A73704700BF002000409B
:202D800000B583B002AB03F8010D01211846FDF75FFB03B05DF804FB00EB4000034B03EB59
:202DA0004000012343710020704700BF6001002008B500EB40004000024B185CFDF72CFDDE
:202DC00008BD00BF6001002008B500EB4000034B03EB4000C078FDF71FFD08BD60010020FC
:202DE00008B500EB4000034B03EB40008078FDF713FD08BD60010020414C41524D3A203036
:202E000078252E3158203078252E31580D0A000010B5044B03EB801300245C70FFF774F9BB
:202E2000204610BD6C0F002008B500EBC000034B03EBC00000F01CF808BD00BF282B002065
:202E400008B500EB8000034B03EB4000FFF73CF808BD00BFA031002070B504460D46164611
:202E6000FEF7D2FF324629462046FCF789FD70BD10B5431E0A44914200D110BD11F8014B5F
:202E800003F8014FF7E7FEE7034A13889BB223F03003184310807047004000414FF0804384
:202EA00001225A72014A1A60704700BF21000100034A9368D068834238BF8033181A7047EE
:202EC00040000020034B986A5B6A984288BF0233181A704740000020034B986A5B6A9842EF
:202EE00088BF0233181A704778000020034A9368D068834238BF8033181A7047B00000202D
:202F0000034B986A5B6A984288BF0233181A7047B0000020034A9368D068834238BF80339E
:202F2000181A7047E8000020034B986A5B6A984288BF0233181A7047E8000020034B9882DC
:202F40001A46136913F0100FFBD17047003C0040034B98831A46136913F0400FFBD170475A
:202F6000003C0040034B98821A46136913F0100FFBD1704700380040034B98831A4613692F
:202F800013F0400FFBD1704700380040034B1A7802F0FD021A7001221A71704700200040C4
:202FA00008B5034A138801331380FCF7B3FC08BDEA32002010F8012B11F8013B012A28BF77
:202FC0009A42F7D0D01A704713460A46014602480068F4F793B800BF5433002013460A46C6
:202FE000014602480068F6F7D3BD00BF5433002013460A46014602480068FDF777BE00BF6B
:2030000054330020EFF3108072B6BFF35F8FB0FA80F04009704718B972B6BFF35F8F704765
:20302000BFF35F8F62B67047C0F806100023037043708370C3708280704710B50C460121F2
:20304000FCF70EFE01224461026110BD51F8040C0028A0F10400BCBF0B58C0187047232DA6
:20306000302B2000686C4C0065666745464700232D302B2000686C4C0065666745464700C2
:2030800008B513460A461946FFF7F2FE012008BD024B588AC04300F0010070470040004144
:2030A000024B58614AF211529A80704700400041024B58614AF212529A8070470040004121
:2030C000024BD86AC0F38000704700BF00400041024B188AC0F30020704700BF004000417E
:2030E0004AF21752014B9A80704700BF004000414AF23252014B9A80704700BF00400041B1
:20310000024AD3899BB21843D081704700400041024A93899BB2184390817047004000417D
:2031200008B50B46024600210846F8F777F808BD024B1A7C1874197610467047400000203C
:20314000024B1A7C187419761046704778000020024B1A7C1874197610467047B0000020F1
:20316000024B1A7C1874197610467047E80000204FF48042014BC3F8982070470080004100
:203180004FF48042014BC3F8942070470080004102440346934200D1704703F8011BF9E714
:2031A000024B01461868FAF78DB900BF5433002000294FF480630CBF02220022F7F780BFD1
:2031C000034613F8012B002AFBD1181A01387047024B0A4601461868FAF702BB543300209E
:2031E000024B01461868FAF759BB00BF54330020024B01461868FBF759B900BF54330020D2
:20320000024B0A4601461868FEF7E0BC54330020496E66696E697479004E614E003000FF9C
:2032200080B240EA01414FF080431960704708B5FFF746FDC0F57F70033008BD037823F09E
:203240000E0343EA410101707047037803F01F0343EA41110170704708B5FFF715FC0028A3
:20326000FBD1012008BDFEE7014B588A80B2704700400041014B9869704700BF00400041DB
:20328000014BD86A704700BF00400041014B18605960704704000020014B1860596070471D
:2032A0000C00002003695A400A405A4002617047014B1878704700BF000C0040014B9878E4
:2032C000704700BF000C0040014B18625962704750310020014B587F704700BF5031002019
:2032E000014B18625962704778310020014B587F704700BF78310020014B18625962704733
:203300001400002008B500231A46F7F787FF08BD08B5FFF7D7FDC0F1010008BD08B1014AFE
:203320001063704740000020014BD861196270474000002008B5FFF7BBFDC0F17F0008BD8C
:2033400008B1014A5061704740000020014B1860596070474000002008B5FFF7BDFDC0F1EF
:20336000010008BD08B1014A1063704778000020014BD861196270477800002008B1014A6E
:203380005061704778000020014B1860596070477800002008B5FFF7B3FDC0F1010008BD87
:2033A00008B1014A10637047B0000020014BD86119627047B000002008B5FFF797FDC0F190
:2033C0007F0008BD08B1014A50617047B0000020014B186059607047B000002008B5FFF7B6
:2033E000A3FDC0F1010008BD08B1014A10637047E8000020014BD86119627047E8000020C1
:2034000008B5FFF787FDC0F17F0008BD08B1014A50617047E8000020014B186059607047D8
:20342000E8000020014B988B80B27047003C0040014B1860596070472C010020014B988BC0
:2034400080B2704700380040014B18605960704734010020014B1860596070473C010020F1
:20346000014B1888704700BFEA320020014B1878704700BF7B330020014B1878704700BF3C
:2034800077330020014B1878704700BF73330020014B1870704700BF7F3300200122014BBF
:2034A0001A547047343300200122014B1A5470473033002008B5B1300003FBF7C3FE08BD30
:2034C00008B5B1300003FDF74FF908BD0122014B1A707047933300200122014B1A70704704
:2034E00092330020014B1878704700BF93330020014B1878704700BF9233002008B5012199
:20350000FFF70EFE012008BD00EB41300AB900F5805070470149FEF701BA00BF690A0100FB
:20352000014B1868FFF7F6BF3836010005000000190000007D0000004FF400534B600020A9
:20354000704700BF4300504F53495800002E00FF08B50121FFF7D6FE08BD08B5F7F75EFE7D
:20356000012008BD08B5FFF7A3FC08BD00487047404B4C0008B5FFF7A3FB08BD0048704763
:20358000404B4C0008B5FFF7B1FC08BD00487047404B4C0008B5FFF7BDFC08BD0048704729
:2035A000404B4C0000487047404B4C00BFF35F8F62B670478842A8BF0846704708B5FFF706
:2035C000D3FB08BD08B5FFF79DFE08BDB1F90E10FFF7F0B94FF0FF30704700BF40F2FF3099
:2035E0007047C0F300107047C0F342007047D0F8EC00704741617047C161704741607047F9
:2036000081607047012070477F20704701207047012070477F207047012070477F207047B0
:203620000020704700207047002070474009704700207047704700BFB030002000207047E1
:20364000F0307047FFF7C6BFFFF776BF00F006B800F006B8FEF7E0BEFEF79CB901207047DC
:203660000020704770477047704770477047FFFFFFFFFFFFFFFFFFFFFFFFFFFFFFFFFFFFF2
:20368000FFFFFFFFFFFFFFFFFFFFFFFFFFFFFFFFFFFFFFFFFFFFFFFFFFFFFFFFFFFFFFFF4A
:2036A000FFFFFFFFFFFFFFFFFFFFFFFFFFFFFFFFFFFFFFFFFFFFFFFFFFFFFFFFFFFFFFFF2A
:2036C000FFFFFFFFFFFFFFFFFFFFFFFFFFFFFFFFFFFFFFFFFFFFFFFFFFFFFFFFFFFFFFFF0A
:2036E000FFFFFFFFFFFFFFFFFFFFFFFFFFFFFFFFFFFFFFFFFFFFFFFFFFFFFFFFFFFFFFFFEA
:020000040003F7
:20FFE000FFFFFFFFFFFFFFFFFFFFFFFFFFFFFFFF57414D4A010000006C36010088DB4C226D
:020000040004F6
:20000000FFFFFFFFFFFFFFFFFFFFFFFFFFFFFFFFFFFFFFFFFFFFFFFFFFFFFFFFFFFFFFFF00
:20002000FFFFFFFFFFFFFFFFFFFFFFFFFFFFFFFFFFFFFFFFFFFFFFFFFFFFFFFFFFFFFFFFE0
:20004000FFFFFFFFFFFFFFFFFFFFFFFFFFFFFFFFFFFFFFFFFFFFFFFFFFFFFFFFFFFFFFFFC0
:20006000FFFFFFFFFFFFFFFFFFFFFFFFFFFFFFFFFFFFFFFFFFFFFFFFFFFFFFFFFFFFFFFFA0
:02000004000FEB
:0200000400807A
:2040000039929AFE80FFECAEFFFFFFFFFFFFFFFF10408000FFFFFFFFFFFFFFFFFFFFFFFF68
:20402000FFFFFFFFFFFFFFFFFFFFFFFFFFFFFFFFFFFFFFFFFFFFFFFFFFFFFFFFFFFFFFFFA0
:20404000FFFFFFFFFFFFFFFFFFFFFFFFFFFFFFFFFFFFFFFFFFFFFFFFFFFFFFFFFFFFFFFF80
:20406000FFFFFFFFFFFFFFFFFFFFFFFFFFFFFFFFFFFFFFFFFFFFFFFFFFFFFFFFFFFFFFFF60
:20408000FFFFFFFFFFFFFFFFFFFFFFFFFFFFFFFFFFFFFFFFFFFFFFFFFFFFFFFFFFFFFFFF40
:2040A000FFFFFFFFFFFFFFFFFFFFFFFFFFFFFFFFFFFFFFFFFFFFFFFFFFFFFFFFFFFFFFFF20
:2040C000FFFFFFFFFFFFFFFFFFFFFFFFFFFFFFFFFFFFFFFFFFFFFFFFFFFFFFFFFFFFFFFF00
:2040E000FFFFFFFFFFFFFFFFFFFFFFFFFFFFFFFFFFFFFFFFFFFFFFFFFFFFFFFFFFFFFFFFE0
:20410000FFFFFFFFFFFFFFFFFFFFFFFFFFFFFFFFFFFFFFFFFFFFFFFFFFFFFFFFFFFFFFFFBF
:20412000FFFFFFFFFFFFFFFFFFFFFFFFFFFFFFFFFFFFFFFFFFFFFFFFFFFFFFFFFFFFFFFF9F
:20414000FFFFFFFFFFFFFFFFFFFFFFFFFFFFFFFFFFFFFFFFFFFFFFFFFFFFFFFFFFFFFFFF7F
:20416000FFFFFFFFFFFFFFFFFFFFFFFFFFFFFFFFFFFFFFFFFFFFFFFFFFFFFFFFFFFFFFFF5F
:20418000FFFFFFFFFFFFFFFFFFFFFFFFFFFFFFFFFFFFFFFFFFFFFFFFFFFFFFFFFFFFFFFF3F
:2041A000FFFFFFFFFFFFFFFFFFFFFFFFFFFFFFFFFFFFFFFFFFFFFFFFFFFFFFFFFFFFFFFF1F
:2041C000FFFFFFFFFFFFFFFFFFFFFFFFFFFFFFFFFFFFFFFFFFFFFFFFFFFFFFFFFFFFFFFFFF
:2041E000FFFFFFFFFFFFFFFFFFFFFFFFFFFFFFFFFFFFFFFFFFFFFFFFFFFFFFFFFFFFFFFFDF
:00000001FF
